{
  "address": "0xA673604dA02958B80884B0Eef92A15075e7CA2a3",
  "abi": [
    {
      "inputs": [],
      "name": "font",
      "outputs": [
        {
          "internalType": "string",
          "name": "",
          "type": "string"
        }
      ],
      "stateMutability": "view",
      "type": "function"
    }
  ],
  "transactionHash": "0x67c9490db2e6b4a4852c93a620ff1ea890c3e3a6ed988e13d05f1aed9b0753c1",
  "args": [],
  "solcInputHash": "b29a9dad82f7aedd766cfad6bd5bb061",
  "bytecode": "0x608060405234801561001057600080fd5b50614725806100206000396000f3fe608060405234801561001057600080fd5b506004361061002b5760003560e01c80639d37bc7c14610030575b600080fd5b61003861004e565b604051610045919061006d565b60405180910390f35b60405180614660016040528061462d81526020016100c361462d913981565b600060208083528351808285015260005b8181101561009a5785810183015185820160400152820161007e565b818111156100ac576000604083870101525b50601f01601f191692909201604001939250505056fe646174613a666f6e742f6f74663b6261736536342c643039474d67414241414141414453514142494141414141655a41414144516f414145414141414141414141414141414141414141414141414141414141414150305a4756453063476834625142794345675a6741494e534348414a6e42555243417142745569426e44734c67684141415459434a414f454841516742596c3642344e6944494539473752714a65776d66727364744c6635622b306252626c6937592b69646c464f32746e2f6e35476344426e73447a5a5672315642496d636c6b6952566d567361457671416b5461564d4963707366776741364d6737436c52516e6a6f55466b346b37794551672f4744747269776a4a3252373869576e355056477846616f346568533548437770325948504c4356305469785650474a3959393653454858696a7546696370693862446650654d33795346522b312b696d786e4171456f623952765858315a453964374d3352795643763838516a4a4a6c7449554935616a624a41643537574a576f376c6739714535555a63662f7370572b393647375a7738456649413742774c4545574c76694c5a47356b31465930785342366c44426145685342303569563033514e754d54642b42496b614267734b6455595367574167495370524b716d436757504769633546477a786e35757353594f7431306962464b742f6e7a6465762f642f7432582b74337638466a4c58393532575176562f35587443715a70617653786a4e374e49644749303056476f54485365523373476c545366596a6c7342786b765a6467676c31503556344332354c75693239446c507a76312b354e4d4144344b2f393272347676762f4547304e694b456b6239642f68306b332b61387a624f5649674a47686b30696c34646c734551724b7457557632784f6f67586c4644785874482b78622f555a66654659594a5349576e2f674c5a425170346b716e6c6850574c5573363575654f4e6e62564e547737572f394a5a7652595951664b4f5566712f5735494a5a505030416c423267454543464f324677634a3538756a714473626c3355764e3867534530445a342f762f6d2b3631426c4d68552b585a5068466b6e6e4c6747526d6c72323041736566446368622b564e69785230424131575561696a74622b4e774f2b2b364f7172527969587570586c524d6b51695330352f7473612b4f52396973693369436b374a6645716f567956365a6136665443454a436c7a6e725769322b7076794468655650356d2b6a442b326a5173396a465768414c636758736b7141495570526a5553424f522b48494d7a446948556851583641355a7a77454f5a787a4a6e706a5850697071397a3449506b672f43783330554d5630396e622b3653375342327253714e56437737484949786866372f304a59524c626273746172796f496b532b392f392b61543859375a70325a7539694d6f304b45686345684d73696f456e66317a767a70674543344548686d4e6e412f5257357a344841343539565151446867455341675a44664541786761483464683349634457436274576a5a6b666a2b594e41494d722b754a34366d464277414433674c5172765046307831614657353479497337385647324b614e4f79715a31322b3256424c76334777316951333477724f3161686b355a7342494973654d487a69616541355a633130687342714259446272556531747936734d78305a58497847314d634c595453544c335653314333597072495a526f4c62515254504d426131444f6b423733347632642b786376706b6c4141756f61764e4157507179616e4f4a43754d725148414933335965784d7657726c4f37787177686f766866594f622f4f5546466c6163774838437563415a41596346504c563057386956323250453078782f5062796b6f48496b525072475737657a6b4945636c514950316b595a69357a52564d37574556745136327166387138547a693241476134672b456c3274795a727572503237472f2f4e533563596e54586d694f43564b7339394e6d4c6d39476e565a5155394878444374315963496744584b32546244434b3654664d5177356b513249515539793941505a39597169434d2b6f50686144795a7a75614c35537065623761372f654649497033426a4753786f364935584235664942534a4a54477863564b5a584b46557853636b716a564a79536d705767674b5a3432684458535475394d2b47724a356563664f7264736d56465964372f595167727a5a62492f6e4d705663474a595241716543665037773172414f6a683749437753472b5257324965484c3779347a6d5a724d6c5579364e7075363767582f652f345755756f32304a566751486a3372514b665469462b2f6b54373962766e38524c373332474f394f354a4f763533775958785450614d74595276416b737a416749485678414e3177667a676d54456969306f4449594455563661754a6f464977535871617864316f4a4a764c5541513058694f6736555434755269446734626b787657424c585931784e62323641784f4c47416f73364f4345382b58306461365465694f7768476c62736965704a37613939744159442b5039453266302b396a4869647462536272326c304c7278773166324e4f6b4c664672376c713536672b647658656666696f7a613473432b38522f524572637637784f522f77544d6b576276526e77706e4f543161746c2f3430374a6153536f317430475354506b47654846453235764a5a73476a4f46576b31647634326b4b733861537078614d5649656f784562387a424e394e6c697a4f43316f47625367314845414856377a644a536a7135797874723539554e41574e5358537a4d2f4f794b45477036716173654e76616d6f5032686d746266766f47576c393973736d37317561737276757735714a472b704672594a586d35346b3835384934316852516366513479636a304277544e394654546b41595a6f696b305a77346a74445a6a705a6e774769666d47656e456b61676a764d71614830344e4e6e7166444e364d584472486c75744955476d46716c68423146734a4c6379536833514a6a5845494767446c6d61443771314c76424a57684549583165623877346e6168746870414d695a6b78676e6b334151685344616d387257694e5848746d42694d6c484c69616174594770694147416c2f4c4731623648566c6a4939676864494b595179737a4b42564d537068484653513259636b415951656b756b596d342b62666b734a3433655a54535678596b554865762b302b5a39794e6a6f4b4b5976545961383367376b557a4a78364a673135705a453069346e4435436d456d7342685636725164456c553271585a75717a4c643232386b516f56644e45794d64735031655a6342386f2b6a4a5a5a6d704a357539324d304256476949544c6b5a45664878306c5a6c6b61726338632b58514d6c614f6b6149594f4c413833575967446b2f6d353665515453354d6e484e5373456f4f316663676c3237446e316d366f7756726b344e69773044494a6f356b4d79646b4336646b6a444d797a6a6d5a34414b5a35434b5a34684b5a356f725974714f4f5a52624b6b764a3832764b436b6e6962444133356c706f716e764f72623633534f6638725365454a6b356b7338756b387772734d336b414a436c43425141304344516930494e4342514138434177694d49444342326d31474256706937786b6f6546444c45545644696d4c5170726b7044744d2b74472b3375644e416e33744f34784b58784c737665614e734f4363752f6936654f5765726438756a633263797139592f5677345674326747304e7a754d64347733654c314242573468724f4977306275716a6a77447546626e2b5a436c724b48435878654b54366a51733936684a4432333045462f533676564155446546526f316c6562476e516d6f4c3648306c6b4574636d552f5a422b756655533466654d3630316462677851716f75507357664942423735377843702f68684f4a4c4e774c4d6e4d6b2f316b5730435641724174345561555858575373687968425334635332706966304453655458542f443666717337644c6d4145535530636b53373449574f7a636e42352f4e4b3044464c434943516e44683039684b49684f626937724f54524b464465536b73586c3479516b5936456d746b415977626b7369424a736e4b5969536935496d664673456a714558416c4553652f4f3030624a71427650534948435a6b6d63714f4956457658566445774755324244724248564b4165713259543461564d547a4e30766b7055596f31774c344d6c6a5651626f6c517936454d4577383967547144374653557666632b504d36466e7275535135475364726a432f6b5154526f415170562b624872356b4e396169307a41374750796c734d376e5044624e574f455733784d51584f6f326836533078672b464a696837684e633455774f7442536b6f363143516242683430315a5a364a4a4c563864504770344d4b4b70537931485679546d596332754566306672385439454447506c42483362755370614d6855715456525a4a506761684a784b5243676e746d367755666b374536616355643179547634786733637546584f486262557166736778344f4e4e5037776f475a31582f416138566c4f69532b705855705561627a3678755033556a514f646f474e5773454c544d5462755a3370304f71567368364a6d767667506f71646442483668686a574155314c67426d44494a314c52474d4174753573505265744874744b7751724d7a4e576a507676643468625651494e733374466b73303375346674564d6a324131753931434832412f55515933674d5067396b6945796539766a6f7a4d5457334a43636e4d713844346a745a78643772465a35796e475259713666454b30513636534b4e644a6448667a546b713365367a56585971365431455054346831786150766463626779526d445a32634d58767949764c7151764c6c51656f65714f487734342f44706a4d4f584d773766666b522b5845682b5864692b31682f2f42664874513665394e456f5372526472724b7037516e644b30566c624c4e526c4367636a304350686d37655170794752674555513977776b72774679674a3667537974307856796b71565a386450673958313541716855526a7a695a6a4f6249584c4a3943534c2b527459705a715064666d534d49376d347a2f30744334586d55524f696b75445a6332344b57794c6b70687a6f426d743775445538436d614678644b386257305231745a7754334934775953455262696834584133424552733062622b586e6f67684a5968706c67596c49694242516379354e362b576e384a55786d43685430744b5353456b466879686a665347756e617a6158412f6177705a746d415752675a456330436d4e48573167463048344f6a6961456b706a7a456e34566765794d7362524565414969777a6176743742435045496b307464687174546e4e45675a664730467144765a6c456e4b395864734839334d4a4244577071794f675165584979735872372b494546754c64364a69754f773561535852413148746962487242506144754f51674e4d476653654d7539587a4d6962334164376c477841384b306b4b3965674e5337532f6532716e592b704d77793741736734665a4b6469563857743548793638375741347441787047503674374e412f4564465448717757786e5456673751485a5a7658544d2b387378457939384d766e2f6257623047797a4b4f6a33342f384363454c464765497065534c4e723155766b4972424875715a7a41594f54436b5630456f5544796839323046616878526161695346534d6735526f4869504b72735376357351534778544c6d47376136667a3663754274637245616b723862552b384c6e4963466550674639384545672b736b2f49556a2f34522f786a394e65572f6f436661716544304b48764a5541763478547874786843544273376f734c43394d6d77515935743151634f766373344470667a6b5145692f367a32336a6b715766382b6f646844774b465769744f6e69485a4e35693538754f6843504b5079314659792b4278716e4f737059666662646b382b57665555646a4375597438504c795057754e6b2f64517574376e4173364948755934305365644554564b7a305651313679343868796745315045654e7a4a6f6b756778456e5851445a32646e784e57445a44316148415a583046632b364b4a69686878586c5262545761715a5161533557364944322b59543479777136516c7152324f634d627a434b46494969576e45494d4f6246747141394277594a4d38517372626a386f3431687a57544b6e76504846385950425478657a476b6e44747430626332486a6272467939343442387354792f45377157547a6e424b6b56534b6e4d797567584431782b77736b724f693336566c7844392f31333456546d6252312f7072395459687a386b723074544d786d716f65435a654c4f793343446947736767352f36696b2b677264693074512f6273374d4a7255436b62563053352f41666a2b444174713159385a56635838446a6f37796c5a646f413453326b55572b6846634c2f72744f324e3163503868792f4e3770397a484b483841614f6a6a44307971346579724e704452614e794839304d6b624f696f7454322b6d5867323544322b345949633052676c495443612b365756676f546b30463973503074775654636b65485273315a54716751796f5a31505761516177547536784c4b746132365a6736706e4150464a5842455337317076537a583741627a705836416133414138717a42587a39793465784676305467462f7057755861546f374d394b747277467459486c63476a45385558697a6436702b4e534744432f6b2b494e724566436c36564d4877436e6c6e6e7349585a38735244506657377245776f6332326f3343586a454f6871655767485252724d306e684254787279587a4f7a5871525844636930657a4f58776e374d3555586f53466f3946486c6e5a44714b5255467a57364c75497253756e4e7a74352f50315343534b4a704c736270516c55333752672f4730786936523754613861744c306648624955753538634d5946397035346b546f34423362695374777373515841377546706e4a54347950497261444d6b525261367355616a4f2b336e684d4b72742b737956396834444936374773332b726f455a595437432b6c4a65553430316f39743834774b65736b4441624f42705844415930623641537565522f4830753830656736644e74587242486a436939334d6a637a6b6a4856664f6f6a4d6f36436437764f4c734a6e376b654d433467674b2b6b653635494a5862517550794a68692b4a7a78702b49384559474763365253317174505252414c447155307a746f4f6675786f376445646f745a4c764459694f67567730724b417133737846556e66715a44517055527545454642493178395634376951726b5847596a3954597a6c756f52687a4949585536756e2b46336169306d2f4a68564f707775712b53526138526a335765495a4178797249543477316c646e7457486c566434576e513357683262613731714d65772f75727235503946746f30416174663371324e656e6e6c4b44693741316c6334706371516f77642b4c327969492b672f7a6c38466d4f59334835746b3861555a3158576676684a634553764b7832695243376f53532f71357644564f363735733852703264327344516d4a48763968772f4a2b736963396f4d74787a37514552716968776443517a39776a3668794c6e787144786a68494f344f357032676477696c4c756f46786c42434d4d6b31574f6263504d51584944446c696147526659526a47525262532f50524d764f42486e42454d3963566169556359386e496775694e54756839386f774e2b517a6f6f5338384e7553564a6b6d4a77674c435071414f65535978415a6d514d68554e4156314d2b50684b4964746668526270644d4748304f6f336f31485130626873657045516f526a3476614151684663557a454c397579764831776c47377a70614146724c4752752b666f4f30454366495670786d4d456d5a303337774531677a4857636452687a5163343141675234474553655951552b456a656e705a7a79504758614963633671614e5a6d6c362f556c74777a414c53697468626e4d6d526f49756a316574545334523247552f655054527374646e747a7864766b4f37725043686c553939665568666f724d34684c4b33456b6e53436b364f335853344a7152344e4974676c594c44537130344e734a33566b5139565a566e37624e596e6c514e574a6b54444d305659654b4442637039784d7676614e50784c3361767a41304a696f76685a4e70654465666d2f594c45364139705538704c3636656a4a4f724b776c637651794d443236777366726f3449736e6c714b357166315378436458686f49335351524176363443746573576739517656716a6c326f4a6e345465327470327363726238566f5746385157576f685a524a774c36456336377472495a56717a626968644f45435a7843313444474e4a6749397859415a554c354c714435583633716a3736486b4f34576572654e4a47396f4c4678516349435742744b71504457625754622f7768656a3852465154766a6b4c6b656d2f73356d6e616e375242787556567a5838445a624758445a4e74475654574873336c444f484e327574787734385943595a664c3132516d453055344b324332556b4f4a5a6362474d322b435552546175355a774a4c4c2b34493548456a6662596c766461467251327a46587167574162366a447545486c6267792b594753597853506379696f463834697a3173446d376533615071354574487069676d442b734a7051495278512b62636d37316b496d30655859306130412f51386c69732f59666363564573694a42424e3377616a516c723479636c38587849563750547a657273784868705942736955536c2f76564d536c484732395279546561304832303337646953782f5543506a4c654f674b35376e356d79326e727234374e625349567377657255694434542f756a74726e61583973543975344d336e75306a61345a7571562b495a376464456e7a4b73476a792f62746f6367444f59476d41524f426f51464d68674a3648624e6c754b33474b774357566174614a325546787163684a554277663732764d6b53796a517a337730332b4e654255536f7777535a36454e4d57445a6d754634346f457a6375543961743835416a36527563674d47537859454e6e743752654d365a7170374e794e664772667a2b64734641715a435858705a3655694f48634b7a66685a7470364175736e51322b2b616237376e595a48616670514875376a2f47732b6576747358674e4d46726c4539774e34366e7145554f5634462b4a76304a6d4d6b4675534852334842537343626f354b777a6b355a653576415565654332722b2f7446715461576652395970495932584c34796831416a6e6e2f7a575474326e772b5a353953385930754a61457449567865766931643354656d4b6f4e54544c41736e3942496472426b39644b74316f444174317265393877324171474e4b666655424f72702b31394567454d5777736d554875546a346e4a3932323357386a4a546f48736c6e794336715250695159506b35316437785866754945574b7032463552467366442f634231537641386e6c6a5843586130416d33702f4a6541304465347933322b4f365839327a33316248796e616a5a616938733531767042656d46627a6c594c33553231536d666c61574645692b3738665a6248756342774f734761753643626b4e63445a5837794e642f676948686c6e414b574b3465324366504a35514f31356b4148414b6f383550412f362b3173624971584555796c4a356a4b4a684a4f6f5938345044616c5446317070332b48326e716632367a58347652774764674e465771312b3848466546526e7567485749543444456d646d657a62456b4a69682f46527639377835456c65373146666537752f4c4e6e666e725753662b584368667a4c32646e676b344e6379665a6e7874355269716973312b54643459574e4b4951643642694f6366414c47337831486f4e6859492b746b76416e6a5763546b77324647596b6a61636e575a73346138416d6432512f38437a77487a65623241586833507a33614c34326861774f6a593251696c634b6e716659443838706e4b4a35306871544d443667795070345948477669537a30304e536b7a2f353937656131464a4d573777484579582b684a706d73394c6a493354794c674b586a794c4843575470384452516e4b534536554c466f7146447647644853584d2f6a31457264525543616b6d4270662b574f50616c58733647447a7530376d77686f646e45417662715458457573514236436b6258356942564c4472786a6d3650525a634e7279655970373672594a58634c4a6a54662f752f73735a5a6f67397048374d664c6c334375713142536c4b4f495331624a6b4c586a416d796d3278587259336746534f66535430356535316d685678526e6f33384b7176585a66713674445645586a7964715277754b5334376654647532346d4d464d616649667a3169634a68574d626f4131445364344258414a42482b7845682b6d7a496f58696c4f56436d616b7661486c746d39416a6250643079347a414850365a704d72504e6d704d712f77416f2b4a5376415638456c4b4342584f4a47692f5364496f746f6d415a43423354796d68384f42315256555655796c5a6d4a2f546c414b49634972746d715179315a5461776e6b6b457a45596355492b6e366e51765252583856437445676a55437155536664684c70597a43427872487467696e4d4c306130634c4835336b4b75697a4932594d6f625a492f5a7a552f6a5030344578456e64714949524f4631644b583637304c2b4f474f4e2f6158767a3449765452647061552f68743773425a42374941386d41577a7566596d385a5372725931735431386545326d644e335a5a7a6f74346e526e57372b33656e442f726548664669684862354972674564622b646e6868753739766635667156416e67344f506f3230574841787937546a576b5a7a36464753614c46516a4e4875437564384b6f3271515a5046525459616d4142475579782b2f562b7768574a502f624f783473502b6e5a4b7a44616e7830596c4368476a764a6e6e4739704973316433574b706e61765151627855506152586439522b4d4737335277663450796e414e4b524273544a6b65302b75714635744b333761587959345a556664316d7278497a524e697558427562795a4f636732697034632b71486138484c78774f637a3031535a694b6c68433230496c6b56794171336e3862495a4d6c4a64676258412f5a6770307150646550615034737058394c2f70387571484a33644d7574466d484442302f707357702b792b6a48387447516f44654747364d393074685348764179346f65525a78503349716c69656243382f5473635a6e6a596e4b6869734e6879576c4c7a327775584767584a6e50514c5a617772786966674c6d4365532f515052657279797a4d61393136666e6536353161513651456769766b63515861564c7270536c705a796c67592b646459347a3039574f71353164782b54624755412f6b3032794e367a56563576507a6e4c6e57734f78423850457444427439734165624c67386e39323337384c30394c377a66646d4a724a65475a79426875566e51302f4c2f4732584350366f33754739754155665a724455774658674f44707a6a3143317255653555613955456b474b6b3934396b6f55756631396b4a327a6c33594a443530716a56346e6e62524a6d566c4e74646c49595a766b6969507a37444e2b426d676753684775497a59766c55317a38754b7775654c65414747724a594b43775558392b344f312b325835556675774b4a6848643959383143396f6171446578646a45307650656336717a43492b373859424c61364b3772764d2f684b702f4d75504c6a7737652f667448304279716b64336a514b703558474b64557178396e354d35586e6a7630512f4a4c6b4a57717157366f487077546b5035432f647a50763579453152736746494375337a7346442b4b4872452b4350777833585678643671456369464c754a5444596a714b4b7a4f6f37594d637a73783139534e694d616446655a36375442326c6f7a30336c54506e3871354556446b396f5058664e56544666337061652b666b2f76643364384a557171375136487643366f42313866326d4538397654767033365048586641734d2b37367442526e44574e634d506934712b6d34555855376f34594738612b4f517a552b372f394536622f6134354c6c57744a413861504858574f4d7a4f383373664f6751462f57624a6a6f47466c372f585a3262303347687542437357376166515069544b7333723138656658657a3132545948526e72744d4f61793846646f724c797a657055314d334a614b63656637455058556d342b4e317076424f476b4146354f534930524b334b4f68504a34383453775265707977644458393675506e36314f63446f65344363782b6d68645363734c47514949586174662b68424630684d396437614f4e4f6c386672544437754761686661546b314e4e52797571474266664251547a56634476724f384b4e78387066333466495041742f386e566449785367377868364b4e6b624c384261515a794e4156737276516f38674a6953654c6e5274786c4f74526a35335a6d70355169472f344a6d642b6f676f6f7761774259344734464b4f45666a747356712b6c422b4f436351637a37584a7371734532672b6b50697a5547497a71756d47397a6a4e6442736b7363506467554f4f7a6b61574c56334f5a336a56705836717177457068553453424362305556626d35326f486a36704c59576f7162522f316469364f75474a364251376943304f436a675057704c77385a63343932505078794b6c70334b5550674b36416d304442536961454e425a6476363571616d4d72784e34515372533952374b45764b45354f786c61396837676d68686538616233364b4d635459347639455246374c6a6d3847477655702f614c4a537a7258757134746a41544c775439777738786b3431357131304972504770413875486c71666d3241514c6f62655a335a67393667316e754e757951473772574759356b54776c6235734b346d6178554254474f646635777a59447a524751375256343950586f61383954376c32586d7737306d68585365756e6c31377251736f42456e666c4d376e666e37765a586d482b2b6b7273727a762f4b46316d61304d466962434d344177614e5541324f6642614e4b415266774971652b2b543255754135324372454373744d6b74793664366e674b38426146344c4e503864697a59476667586b415975593368542b44662f3063324c2b77665a79577970313968715168466b43694835763566697068794a49476c387878352f6a395066767337574e712f4c4569517375484f6b6e726e644359356f4c7036743948574e434d51547656533532672f4168747862642b50754966735173704a464c796775577935554979514d704c677156454e614c52306e2f6434594e6438317578586d5568416f4c4e66346d6655525439314f5735535a773347757332355864674d54325a58434f6848574d6c665730514b5a75315456643770366f374d5269326a4a4562336f4c6d4f4a6e43556271315039435568586933363237786838693841424b5251324a48313143504d537564643778455657506e675548766170716b38764c4f724364316455776c70544b6c4c3534534977657977522f304d56675436464c527a324b7a77694e4b59324f5a53677154727161543942494a554467552f54716a66656f4a474f6c58532f743663324e3951336c35394c42537352677050696338386345416f522f4b436f2b544f4c7669687a57552b6443736e702b32626e7653314c543936634d744e59645a706453517652676a476a73503245636444623844795758494b54463938536e6a57796970706e6b374f61316a53783745737044505a4f324464354a306557717049762f584c7541325547456273303265326e655365674c752b50356568374e7a666b3836397036487275664a31704c486535724b6e2f793474667630696d2f7657577465596179534554726f30523153747776743344376a675953623776424d325431454331375731776d6552626c764e5a2b5a50624f696543686e2b4e4f6e4c30345565373665366f756843446a4150504137356a4f6c756e766c392b58666c6265784776526e4b764c4f6e33795570654663574f6e6d50463157706d64317547543335553035333958574d705845335945724254763065716954784d796d3076496c4567712f7a4d7732353676596565446e38744f6a36726f59666c7636415848512b534553645a4b6747455a59566972396b4d5a41724d756378365143627577645977513637426a357a46705366586173696e513739316341356f48374a6f746b384251312b425334662f5945552f743666376a7872796a69612f394268596b5363627533327454384675326b63466e675645356e6235514e416476777872454932753143704c593279592b444c5a474a504c482f3255496f3371455864666a65777164767a75543242356c4d546235716665414e56674a614b332b366c6b4e384d6656693635596e5455314d7062696e70307a6872755451512f51534356497335764779302f576e764a3753527665772f7546354c46574e466f386e61385636354371343848596e496d7776764f7366626b596464724c583854697367502f68567a485955344c67383445344e506f4f4376462b4230316372593064793031785739574b53634355395756335951764d413438454c5a66366461647068716e725366646e6f6a745146383779415833354e6a6c4a55493335466f654d4b3076586e614a706d424c73614e7a49656270313137375170494d793142316a56534a635a3948696572447271307261505243563156334b753035315342457579756766696e545732394d39306a734f37535a733859357a6a376430494c39486f783146676a743169307963766a674e586a537131563530427561355650714a2f6e6d674a655270503667767179314930467a2b763172677a757632544f637539692b6a3333783377776f62772b4645596c594141797439374d552b666e627162444169752f543256672f527039576746394843746c3971544e7554646e39374f4d31663332774169505434316e6572454654575338646d66667947522b6f53784a55385a78554c6935616435334b482f2f30666d5646435a53394552665857617075396e6e6271636c502f332f443234334736304d74795a38576d436b64556c4d616333713832302b6b314e4c70705239746832693454456c6441476473744d55304c694d30504b51676f465849626f5931762f513153555674677046332f666c63756937626d6a7448627748414f38636c764b4767515a61636d423552496e2f7576445763646256417a5453664d48554f6d356670364a70714954564e684f586c315777447a4c626a432b6b7837474c544341736e47782b52344a69496e35676a30475844746e39397044414865764d4661735646546a477935342b382f333449734c6c4572724b477766447a3631442f6a6e2f4a396c306f30414d524d68597645734a687673366941673659514f59584761774c51526d2b4a6d737a44486339477a652b31472b444e424d7a305038665877426b36595734436d5a6a6a6959396849793267465444377a4d4c364c546a7a437666737a712f3070716b775737612f4a4d7444677a773252364250677a6b726e354b41534a79516a3362337576655072534f75366c63506d79746879675a56496a55562f45664e645147726a722f594c753736372f464144574d586951734b72376f64502b536d312f776e70365864346f55446179756562524335584f2b55395574744c5637424c79726b72517654773153654a535869722b4c524b4a51536865444775572f784a7577652b6d46647573777767752b6772416b59414551637a6e7a4759446a48692b306a3863513662694b7975794865344e5a303565704e326276333335776a2b323346576841534868526e484567786656753141706754376967774152786c7366344d392f375249795836324532687742716d6e362f7477734c48686638576248325a666a5567617357786f4246685664386c4f6c4d5065316b68476d4e77425965362f49386f354c4c764a795779314770435a75577a454e504c306169506e317a636b486546456e346d706f55764946727a77386f6e2b32666173657366377065446c5a507941666776504b7a35352f2b586137345853397066795056422b6675466d4a67315766673259773749414d6b57392b3654664e71327a5267477243766c6b6439584d7655565a3379426a395a4e2b736150354f56653848586c736162436f5878722f4f535172387148466e674b564f59384e71723052646c312b427a7434472b5648507a667a61747154543770412b647a783567502f534848522f2f706f3950544f2b304345446c446471754e717453497a4f746f75683475417a434a4272302f584666794579412f4e6c6d6571794348546a664870714c665072316c744a31797855676931564a736c4d46456c4e4c763658535761694545534f6335333274526c4950386737476378753958774b75337239362b6559323775505034346232374e2f527837796c4a64564b657171513269335966312b786b784e31486d37726c764863506c61577531664d6a39756d643769514168494d4e626852316156434e645358476268704e63346f496a59394a7344366b64663757394c6272456f44624f4e2b5349664558567a6f6d692f375a4565597a52434556517164344330306861576868514e4c513549676a4c4649736d6735333169336b556b564b6f5361453554792b36656d554764415039594d377436615830394d6d35676d502b3248726f6c4a4345614d4c30304f4a726d3439423167393675614b726c304d302f323457615563457637324a4953514667493130515979316730784c7455555a6c344c37764d2b6d70376a68544c453376334d6f536f6650504467487337684c4d576b6468786b59724b6343304432727554306734735265644c554a68735145412f2f656d436f415948623733564767414b4775796b3246517249567663666f3245526f74384f4c50386351683873586349685050342b52513342322f372b3746443244476f7675536b517745396f63367367484958356d42797a4e54444c5957566450464746486468706c32306e70484c674946665a7667332b3570677456524e67414a44334e594852774a5966355a63477964446e557244486271496d5153426a393647667743482b4f414d6c4265784c4861334364726e4e597170537a4971544d56345a626d624578385a58372b4631424d71497a5557336e726773335177626c46453861477048734730675048456b7a35556456783256576546635269716c6f376c2f584276386461624f48495a2f65613867426a6375795a45424e72504f6341324c39455769355a524b514b6c5a756e42715a4678656231515247716f59373161464c565358716d31436f73646573675248704749707a5439333066514a724b4d4d7177454d75653334486c5777796b756a4e6f326571386d584f47644369552f4637626775434444446c496372636f5863343935495a4c646e55616c594871674861304556706251774b453062334e314235695358443243484c664e797955356b376e4d585579466836464467717156365477674e46726132396c43645479556e59347777394654734b624a6b496e6f7a53533332544a526f615456582b77546867553462414d6c4d35734a6d4c7051736c774b59594f517a75584a6b6d65646f474e72784d5974574d4e4b4e376e4f5a7461433639426832506141333667314468533436536a717032464c4f6f30444544655a535937736a554161516d6a4f71633357367a5531393766546f6141766c765a486664676374636b4d3774685239765a5a514634583353335154623152626e444c46374436485961734668497477506836326770627965326a6959706a5747732b7847726368677150564759516d6a654c2b78535137714e4474417431686479414a486251374f6368694f724b4d514a627a526c744977546c597a6a6746437550546c666d715854414e6e5251307168575339365a56507a4743627475704558472b57544d4e6b645835684463397537535654667667713256782b61553871565341436c57385a734e4375567a554c4a6c33766363544f38464b6330736f68344d72524c786f55416e2b6b4c414a2f77517042614e624a5a4a734e57627a4672437959666e4b456e41454778774b39364d6d4a53446e636a62736730453843415832486e76617142757464416956716958434a467144444c46514b5a714b6b6e424641772f42482b4d65616f4b4832382b48774d4f3344392b386549617275444a536169784a3554537a656f5830633452432b385359636b744b637a56686f6f444942584b654565793257474e6c464945796c364673544a577a4530306a49614230447859694c66594c49743552745954764d30436153596157756b4e32666b446741427443462b376179317351516f35545477616d34304555676932356937616e746d6e55706673436834414646533376386c717a654a45386c4745524b5a4c6c4f77515959365155735a53706d43696a5652756a644d6732725371754e6867626e564e325a6b5a4b647953703230594c4635364b6b37476c324b59364474472b466a72635a2f4d42416e5852666f5573636b74527a4e586b44665449664d41614146352f636c62567253306777446b39657151747272382b49465751615843374d467177794b6f454f587435794d502b5070323459385259656d70465a6661714d6876545a514c4f674e47444565316779673259785068453935473777344752586c3839526a4b5263584172516476524b2b507664526e41416a4f773467696c444a545264336543754146565a395874564c4545796767706a6757674e4556514973414a522f5854456673734f796d764d51546a6b5058374c6d6e6b61343854456250686d6a6a595751686d64774c7745726366337239333938367430393579364377583039356b5a5148594f5144534673506b5269653341386a7777384a662b2b4b61534636614f623542625a7379554f564c794758796a3434516b46545535386c724162594c445a71624577614754503661506e586a6e54774d7376686470797754344375386550666d3159744839392b314b5971335a565551624878364134537772514d6b73684943574d4c7953554658395a63466f39494752486e492b376f75436a42414e41414e614a55567462346e3236614246516243454e4b5a536565756b32755a783768322b34616e596d5a4272534958302b567158326f6f497474344d2b6e5363334d54776d4b53434f754572487839675736446f586c6b6170556d443539356c7a68793743314a43683168535a5567726e344a514154306b396f35644655315a7230736a39454752426541474c32584d374f54783347424a55485138484b61497468315a5936526d46785970724d4831617a615a6c377a706d5247456841784a48694d646c4b4a696130334c61735a75596d44354c424a774f69536a4955526c716167316d5446624e64446d4b6d63334a4b434f557a6b6149355030643374674e337433533139776859624471744d4b68735435577849576b62362b6b68426b4b52705a6366634a6c5a6464684a4134764b38326734544968474c49677a494c704369694c32634c534a39486a32346377766e63455a653853672b5a674d652f55345768476e5562534f4a6f61364e78494978414355666b3455536c6d3654335648724d486a32753357444a5539594a6f67747377524f4352644c506834557753545956487945415a6d2b564e57545362556658756d745852745a574843464b6467784c725268496c447a6d4170484e4672426e36685a4a4d52596b33614e52435a55657832507979594241676c6f4e525a676764786a5a687251574e6478796d356f56466d7a6b3437334670323044544b7462574e584b76653970414b38335131526646725833647578723337496558386d4c5a3979615a706d6b2b334263726d3232416d484e74676e487a4a563268376b44545952584e3642637a784a4472525a41456d4f77326c58454c6865595754454a7a32636231755241524d3341626877654c564d69763831726f5a74412b61526c6d38346c6b702f6b776a5a333938476459395866542b4635792f646351754f65572b726845422b4a634176414e706f7163694b7a5256684f5938315a4c306266734d704e706b464759765a714a336b5639632f6e4f496d6f63665044556e724146725a42784a5639356e78434c617463757132304134544e4457615758463857303169576c7755562f354c7563416d4b5050767769626e524a7565555153527878426a6a67374573316a6335754b304f4737586d474e474c446c656665484833546554474c46476f44375166304255344d6f6b2b462b6a57792b624d4d39744478346e2f446e453444492f77787a68385872737031444a51337067726a4959334a7037354b486147517875633741626242637a394246366171566b526b76486f38664a6266317432375a746133504d5645424b39644f5a545270647732575233464d6d366c584e4e592f4448654652394a4b5a4d38676a6f6b76584a3879467469516c59776f65596f59444f5741343175594e567664726d6d32446d69772f77494d502b4947766d4f4368463156396d593678777259657859594c45684a35697a457356772f5654536231674d783363796b67436a59744d6f6a59677375574b765a732b64524964586d4c37317751487355624838443036774a5732346e547958553643794131312f4336453347464c2b2b51324f4359554941373332353847546633313755376e77507a792f6c7045324f47716151477156583433454178414a61776d684c2f5948636c502b516765724a4d2b3379544e4c37555950426677376351593748466947574853312f765a7a746a3649304252695a58556b74324d6a47574e64507550676e5a41434463694c426830613342344e454d313347616c78783733496f666f49514c557930587a477a5130433830504b6c2b63616c516d5062762f5666344c412f643942495275324356664555374d776a3044567537774d4d68634c42756475326b696b68453956316c745654474c6468516b653031593576674762704c594762752f4f754a344c59482f58315332654d6b5931724a5830546435374f494a71317936314c4d395570313230704b355559636f30577334794564336c62784b4f5461437a4e6e6e6f734c52426e7836375a762b31433331476b346839655a50637737424d514e7a6b5151736b4e376f6a76664e6932386b3058623941516e5861735a4e4a614d474548746d63334b7a50547363727647464a5078386f6b686232663179324777666555744a31746b455963666b47466c4575664951715338663245683844356e436f717a7368644331566538696f51444a5534364263424252756f6e6149382b3944675a4c55344579447a4e6d61574253555965716c41474763494a53733078566d7057334a6a5263312b504671596933507262747563326845786f544230516d59777559424c5261414178726d432f794857644a5a6b704a4a38354b7a367630576a7652554b32564c664244416262433838596d6d763478614f2b7a55397737675978537a707848464e617650334b36755777784f457a4743796766726e474a5937376e78527472394a785a776f35396d7a6f726b74563655336755735a326c4b447669506b6c6e3951364f70455050794b693468326a335059534e39776563685558726270776a6d4556315a5a425033634c4e712b73597a6a756b6a6341462b765a66387449336e6f70674f566f6349676b505961556d6a523432344f585861386d492f6262545a6d4d54562b7970395043353033622f706a6b75664c373041556e624464676b30686b626a70414b456755644c4b5a3231676b6c6f5a44684f494556553668474c6a682b7839324d6c4a524d735a5338415658514b7761516c5634442b564e77654f454336464337536a4671444d4375513365434374316f6f577071456c4c654241636170374c354d4a57704a5969446f6a3943546b34446556654159664d2b36356f44635a2b4c4e46586a6379667332766a6e7a4932585a7172704f5a573571716d79514a6a7873566f5973526b55302f524a786b434e635037556b4f4c446b4d525667693950713336572b6e54346654664f7a30716b61534730793858515137493279797a4c4c737a39654254477846585848694d455235712b2b6a35334a443865716841437854706479693967587a4f4e70433638486e49615754377238747459793748622f712f586c66396b547a746b314e4856694d667376525a6f414333752b3150344a662f77336d6730634f55527733654b4551435271736c30307474526132517645383875446275706c795945385a46427572314d347a3544546666365369454e564c444e726e6d35432b6c523063413169322f314d47524845576242627346354238526c504950356a36584159515853476b514546543066783845624c4455557a67653446757451724e4b464b6137394e4d6a3537784d416c6b626543463549546b4b494b53386c7a6b79326954394542776e42377855777a5473687a4f7743593744515a69464d62574c74456b6d4e63456f744d4543775958384f77414f5a4f585466674a6649794e49313867377a627855475a6e344170325170704b37382f7056634156763074416f52646a3153675870596f6b38396b6f38464249584c7a754a316b756c4e6c79366948414151736d2b79663566557554465139505361514d49794a72333050553448675a4438677267352f7a64636f646b6266536a2f764e515347615947306f303463556a7a7a307972496d50503656644b536870792b677a4d34396638636f4d62726c66666c6f6c73684d454f7a54706230682b643136374575542b46744b504150624149477848643259434b2f687a664f6367466b3877675334456341354957555047634b3547535078586f787a473678716a5336444747534f6e4a6a444856436d56585255314256646c71476149672f79375a706a74346c6b7a497172536d6c483261306e6e6e7a6771586331666b485332356d2b67397531572f34437758352b6c2b355978572f2b486f62326f65484e4a546c5a324b5a5a4d43676a43796b2b516751524b3255374b6d477873624c6c32516361306f6c776c6e564b4b564731656d6c306b3662336933534831556e45534453502b326c6b356a56517a4c343251376d6373494835645669526c534837686b615274777473686941796b3335785948774a7a4569743734487764686342547a3544774f415766754d6a77376f4a346d69586d573268576c4e57534871595646597244444c5472594279587838557275455935386b39537045725264697046695a315652686a6c6c674431556947665a4839734a34496138476141386859556b3430696d71624e513435536f6e41705a77686d6b4346636c42796c7978784a4d446849736855793758497475595a746c504d37594d784c656738365a45485453566b724256352f47562b456a526c696347476e67305855344a39564452434150786d51637738704d424c56626d516c52383532576e366c5767355462474244327046784a5431445742615a794870704d456b6f70584a54394e306f42437551736b6f5866777848524e35626c5a47577954486a7059556b356b3456774149687836726e6b634943642f79745557315a496f4f634278536d564634363145425a686f4a512b585a4f79623439662f32337a2b716e465572683969356d5566393132502b586c7532344876636a555274624f3373485279636b79746b466a584631772b4941304e33443038766278396650483038676b674c496c4d4167616e4249614667344c594c4f5945617932464852484336504c78434b784a4b5932446970544b35517175495445745761704f535556473362546a5732486872553254616f34556544505549544c4c444241526338344f4244424b4951677a676b494d6d6d6f494d524a6a69676877464f614448467a73474d61636759552f6d6269374d444e737756357042496a737a4c354751776637774732653258794c662b7a4f5630755678756c38666c64666b45576c66414658516d6d35774f314f686b2f46756f447031576e2f31316b69756e6568476c4f307144644a374330347166524e693664687a2f6e2f4f79667966426254734a6952465a6d6664446e676d2b30474446546457352f346a7763303147546c393230445a7231674a744d6432446d437a4d6b39694139447444307535556c6a4b3734325a4a2f50486b4f675752675a783338396b7272456969564a664a6b72634a30316443554a72476643412f69642f75795a6e5163343147556c66393568333572365a614846483635494f4c3432617357514d4141413d3da26469706673582212201d055f0f669be35495c0f4c0050362738c91030d59f698f51b2842694fe60f7364736f6c63430008090033",
  "devdoc": {
    "kind": "dev",
    "methods": {},
    "version": 1
  },
  "userdoc": {
    "kind": "user",
    "methods": {},
    "version": 1
  },
  "storageLayout": {
    "storage": [],
    "types": null
  }
}