{
  "address": "0x6293bbfEf55221C233b3de29bD5852fAF97e1C0E",
  "abi": [
    {
      "inputs": [
        {
          "internalType": "address",
          "name": "baseFactory",
          "type": "address"
        },
        {
          "internalType": "address",
          "name": "_rendererAddress",
          "type": "address"
        },
        {
          "internalType": "uint256",
          "name": "_maxSupply",
          "type": "uint256"
        }
      ],
      "stateMutability": "nonpayable",
      "type": "constructor"
    },
    {
      "anonymous": false,
      "inputs": [
        {
          "indexed": true,
          "internalType": "uint256",
          "name": "tokenId",
          "type": "uint256"
        },
        {
          "indexed": true,
          "internalType": "address",
          "name": "actor",
          "type": "address"
        }
      ],
      "name": "DrankCoffee",
      "type": "event"
    },
    {
      "stateMutability": "nonpayable",
      "type": "fallback"
    },
    {
      "inputs": [
        {
          "internalType": "uint256",
          "name": "tokenId",
          "type": "uint256"
        }
      ],
      "name": "burn",
      "outputs": [],
      "stateMutability": "nonpayable",
      "type": "function"
    },
    {
      "inputs": [
        {
          "internalType": "uint256",
          "name": "tokenId",
          "type": "uint256"
        }
      ],
      "name": "drinkCoffee",
      "outputs": [],
      "stateMutability": "nonpayable",
      "type": "function"
    },
    {
      "inputs": [],
      "name": "implementation",
      "outputs": [
        {
          "internalType": "address",
          "name": "",
          "type": "address"
        }
      ],
      "stateMutability": "view",
      "type": "function"
    },
    {
      "inputs": [],
      "name": "maxSupply",
      "outputs": [
        {
          "internalType": "uint256",
          "name": "",
          "type": "uint256"
        }
      ],
      "stateMutability": "view",
      "type": "function"
    },
    {
      "inputs": [
        {
          "internalType": "uint256",
          "name": "count",
          "type": "uint256"
        }
      ],
      "name": "mint",
      "outputs": [],
      "stateMutability": "payable",
      "type": "function"
    },
    {
      "inputs": [],
      "name": "mintsLeft",
      "outputs": [
        {
          "internalType": "uint256",
          "name": "",
          "type": "uint256"
        }
      ],
      "stateMutability": "view",
      "type": "function"
    },
    {
      "inputs": [],
      "name": "renderer",
      "outputs": [
        {
          "internalType": "contract GmRenderer",
          "name": "",
          "type": "address"
        }
      ],
      "stateMutability": "view",
      "type": "function"
    },
    {
      "inputs": [],
      "name": "salePrice",
      "outputs": [
        {
          "internalType": "uint256",
          "name": "",
          "type": "uint256"
        }
      ],
      "stateMutability": "view",
      "type": "function"
    },
    {
      "inputs": [
        {
          "internalType": "uint256",
          "name": "tokenId",
          "type": "uint256"
        }
      ],
      "name": "seed",
      "outputs": [
        {
          "internalType": "bytes32",
          "name": "",
          "type": "bytes32"
        }
      ],
      "stateMutability": "view",
      "type": "function"
    },
    {
      "inputs": [
        {
          "internalType": "uint256",
          "name": "newPrice",
          "type": "uint256"
        }
      ],
      "name": "setSalePrice",
      "outputs": [],
      "stateMutability": "nonpayable",
      "type": "function"
    },
    {
      "inputs": [
        {
          "internalType": "uint256",
          "name": "tokenId",
          "type": "uint256"
        }
      ],
      "name": "tokenURI",
      "outputs": [
        {
          "internalType": "string",
          "name": "",
          "type": "string"
        }
      ],
      "stateMutability": "view",
      "type": "function"
    },
    {
      "inputs": [],
      "name": "withdraw",
      "outputs": [],
      "stateMutability": "nonpayable",
      "type": "function"
    },
    {
      "stateMutability": "payable",
      "type": "receive"
    }
  ],
  "transactionHash": "0x9728216da52ba0d5a480014fb4d086a548b415d5f0e03184d074051d7d17c6f8",
  "args": [
    "0x86c67a16C16BF784BdFE7D4b7575dB664D191F88",
    "0x24926c20d0DA1De24f54455ADB2f212fb9D784d8",
    "6969"
  ],
  "solcInputHash": "3db21975abdd364791299bb8be6b7212",
  "bytecode": "0x60a06040523480156200001157600080fd5b5060405162001a0938038062001a0983398101604081905262000034916200021f565b8260405180604001604052806002815260200161676d60f01b81525060405180604001604052806002815260200161676d60f01b81525060405180608001604052806103e861ffff16815260200160405180602001604052806000815250815260200160405180602001604052806000815250815260200160001515815250620000c484620001a460201b60201c565b6000846001600160a01b031633858585604051602401620000e99493929190620002c1565b60408051601f198184030181529181526020820180516001600160e01b031663b1a78e3f60e01b1790525162000120919062000360565b600060405180830381855af49150503d80600081146200015d576040519150601f19603f3d011682016040523d82523d6000602084013e62000162565b606091505b50509050806200017157600080fd5b5050620186a280546001600160a01b0319166001600160a01b0396909616959095179094555050608052506200037e9050565b80620001de7f360894a13ba1a3210667c828492db98dca3e2076cc3735a920a3ca505d382bbc60001b620001ff60201b620009631760201c565b80546001600160a01b0319166001600160a01b039290921691909117905550565b90565b80516001600160a01b03811681146200021a57600080fd5b919050565b6000806000606084860312156200023557600080fd5b620002408462000202565b9250620002506020850162000202565b9150604084015190509250925092565b60005b838110156200027d57818101518382015260200162000263565b838111156200028d576000848401525b50505050565b60008151808452620002ad81602086016020860162000260565b601f01601f19169290920160200192915050565b6001600160a01b0385168152608060208201819052600090620002e79083018662000293565b8281036040840152620002fb818662000293565b9050828103606084015261ffff845116815260208401516080602083015262000328608083018262000293565b90506040850151828203604084015262000343828262000293565b915050606085015115156060830152809250505095945050505050565b600082516200037481846020870162000260565b9190910192915050565b608051611661620003a860003960008181610239015281816105a201526105cd01526116616000f3fe6080604052600436106100ab5760003560e01c8063955648371161006457806395564837146101955780639d5561e1146101d2578063a0712d68146101e7578063c87b56dd146101fa578063d5abeb0114610227578063f51f96dd1461025b576100b5565b80631919fed7146100cc5780633ccfd60b146100ec57806342966c68146101015780635c60da1b1461012157806385e9a256146101535780638ada6b0f14610173576100b5565b366100b557600080fd5b3480156100c157600080fd5b506100ca610273565b005b3480156100d857600080fd5b506100ca6100e7366004610f47565b6102a8565b3480156100f857600080fd5b506100ca610359565b34801561010d57600080fd5b506100ca61011c366004610f47565b61040d565b34801561012d57600080fd5b5061013661047b565b6040516001600160a01b0390911681526020015b60405180910390f35b34801561015f57600080fd5b506100ca61016e366004610f47565b6104a9565b34801561017f57600080fd5b50620186a254610136906001600160a01b031681565b3480156101a157600080fd5b506101c46101b0366004610f47565b6000908152620186a3602052604090205490565b60405190815260200161014a565b3480156101de57600080fd5b506101c461058f565b6100ca6101f5366004610f47565b6105cb565b34801561020657600080fd5b5061021a610215366004610f47565b6107bf565b60405161014a9190610f90565b34801561023357600080fd5b506101c47f000000000000000000000000000000000000000000000000000000000000000081565b34801561026757600080fd5b506101c4620186a15481565b600061027d61047b565b90503660008037600080366000845af43d6000803e80801561029e573d6000f35b3d6000fd5b505050565b306001600160a01b03166313effa0f6040518163ffffffff1660e01b815260040160206040518083038186803b1580156102e157600080fd5b505afa1580156102f5573d6000803e3d6000fd5b505050506040513d601f19601f820116820180604052508101906103199190610fc3565b6001600160a01b0316336001600160a01b0316146103525760405162461bcd60e51b815260040161034990610fec565b60405180910390fd5b620186a155565b306001600160a01b03166313effa0f6040518163ffffffff1660e01b815260040160206040518083038186803b15801561039257600080fd5b505afa1580156103a6573d6000803e3d6000fd5b505050506040513d601f19601f820116820180604052508101906103ca9190610fc3565b6001600160a01b0316336001600160a01b0316146103fa5760405162461bcd60e51b815260040161034990610fec565b61040b610405610966565b476109d9565b565b6104173382610af2565b61046f5760405162461bcd60e51b815260206004820152602360248201527f476d3a206f6e6c7920617070726f766564206f72206f776e65722063616e20626044820152623ab93760e91b6064820152608401610349565b61047881610b7e565b50565b7f360894a13ba1a3210667c828492db98dca3e2076cc3735a920a3ca505d382bbc546001600160a01b031690565b6104b33382610af2565b6104ee5760405162461bcd60e51b815260206004820152600c60248201526b2732b2b239903a379037bbb760a11b6044820152606401610349565b6000818152620186a4602052604090205460ff16156105445760405162461bcd60e51b8152602060048201526012602482015271416c72656164792068616420636f6666656560701b6044820152606401610349565b61054d81610bd2565b6000828152620186a36020526040808220929092559051339183917fd2d32cc177f71da46854436b0d443dbdba9b2fbdf1179d6ba10624d8321794ca9190a350565b600061059c620186a05490565b6105c6907f0000000000000000000000000000000000000000000000000000000000000000611025565b905090565b7f0000000000000000000000000000000000000000000000000000000000000000816105f8620186a05490565b610602919061103c565b111561063f5760405162461bcd60e51b815260206004820152600c60248201526b11db4e881cdbdb19081bdd5d60a21b6044820152606401610349565b620186a1546106875760405162461bcd60e51b815260206004820152601460248201527311db4e881cd85b19481b9bdd081cdd185c9d195960621b6044820152606401610349565b600a8111156106f05760405162461bcd60e51b815260206004820152602f60248201527f476d3a2063616e6e6f74206d696e74206d6f7265207468616e20313020696e2060448201526e37b732903a3930b739b0b1ba34b7b760891b6064820152608401610349565b80620186a1546107009190611054565b34146107455760405162461bcd60e51b8152602060048201526014602482015273476d3a2077726f6e672073616c6520707269636560601b6044820152606401610349565b60005b818110156107bb5761076361075e620186a05490565b610bd2565b620186a36000610774620186a05490565b815260208101919091526040016000205561079933610794620186a05490565b610c41565b6107a9620186a080546001019055565b806107b381611073565b915050610748565b5050565b620186a2546000828152620186a360205260408082205490516319c6e3a760e11b815260609384939283928392839283926001600160a01b039092169163338dc74e916108129160040190815260200190565b60006040518083038186803b15801561082a57600080fd5b505afa15801561083e573d6000803e3d6000fd5b505050506040513d6000823e601f3d908101601f19168201604052610866919081019061112c565b60008d8152620186a460205260409020549499509297509095509350915060609060ff16156108af575060408051808201909152600381526259657360e81b60208201526108ca565b506040805180820190915260028152614e6f60f01b60208201525b600085858584866040516020016108e595949392919061121a565b60405160208183030381529060405290506109326109028b610caa565b61090b89610db0565b8360405160200161091e939291906113b4565b604051602081830303815290604052610de1565b97508760405160200161094591906114eb565b60405160208183030381529060405298505050505050505050919050565b90565b6000306001600160a01b03166313effa0f6040518163ffffffff1660e01b815260040160206040518083038186803b1580156109a157600080fd5b505afa1580156109b5573d6000803e3d6000fd5b505050506040513d601f19601f820116820180604052508101906105c69190610fc3565b80471015610a295760405162461bcd60e51b815260206004820152601d60248201527f416464726573733a20696e73756666696369656e742062616c616e63650000006044820152606401610349565b6000826001600160a01b03168260405160006040518083038185875af1925050503d8060008114610a76576040519150601f19603f3d011682016040523d82523d6000602084013e610a7b565b606091505b50509050806102a35760405162461bcd60e51b815260206004820152603a60248201527f416464726573733a20756e61626c6520746f2073656e642076616c75652c207260448201527f6563697069656e74206d617920686176652072657665727465640000000000006064820152608401610349565b60003060405163296cf3bd60e11b81526001600160a01b0385811660048301526024820185905291909116906352d9e77a9060440160206040518083038186803b158015610b3f57600080fd5b505afa158015610b53573d6000803e3d6000fd5b505050506040513d601f19601f82011682018060405250810190610b779190611530565b9392505050565b60405163068d00a960e51b815260048101829052309063d1a0152090602401600060405180830381600087803b158015610bb757600080fd5b505af1158015610bcb573d6000803e3d6000fd5b5050505050565b6000333a834342610be4600183611025565b60405160609690961b6bffffffffffffffffffffffff1916602087015260348601949094526054850192909252607484015260948301524060b482015260d401604051602081830303815290604052805190602001209050919050565b30604051633dc8ded760e01b81526001600160a01b038481166004830152602482018490529190911690633dc8ded790604401600060405180830381600087803b158015610c8e57600080fd5b505af1158015610ca2573d6000803e3d6000fd5b505050505050565b606081610cce5750506040805180820190915260018152600360fc1b602082015290565b8160005b8115610cf85780610ce281611073565b9150610cf19050600a83611568565b9150610cd2565b60008167ffffffffffffffff811115610d1357610d1361108e565b6040519080825280601f01601f191660200182016040528015610d3d576020820181803683370190505b5090505b8415610da857610d52600183611025565b9150610d5f600a8661157c565b610d6a90603061103c565b60f81b818381518110610d7f57610d7f611590565b60200101906001600160f81b031916908160001a905350610da1600a86611568565b9450610d41565b949350505050565b6060610dbb82610de1565b604051602001610dcb91906115a6565b6040516020818303038152906040529050919050565b6060815160001415610e0157505060408051602081019091526000815290565b60006040518060600160405280604081526020016115ec6040913990506000600384516002610e30919061103c565b610e3a9190611568565b610e45906004611054565b90506000610e5482602061103c565b67ffffffffffffffff811115610e6c57610e6c61108e565b6040519080825280601f01601f191660200182016040528015610e96576020820181803683370190505b509050818152600183018586518101602084015b81831015610f02576003830192508251603f8160121c168501518253600182019150603f81600c1c168501518253600182019150603f8160061c168501518253600182019150603f8116850151825350600101610eaa565b600389510660018114610f1c5760028114610f2d57610f39565b613d3d60f01b600119830152610f39565b603d60f81b6000198301525b509398975050505050505050565b600060208284031215610f5957600080fd5b5035919050565b60005b83811015610f7b578181015183820152602001610f63565b83811115610f8a576000848401525b50505050565b6020815260008251806020840152610faf816040850160208701610f60565b601f01601f19169190910160400192915050565b600060208284031215610fd557600080fd5b81516001600160a01b0381168114610b7757600080fd5b6020808252600990820152682737ba1037bbb732b960b91b604082015260600190565b634e487b7160e01b600052601160045260246000fd5b6000828210156110375761103761100f565b500390565b6000821982111561104f5761104f61100f565b500190565b600081600019048311821515161561106e5761106e61100f565b500290565b60006000198214156110875761108761100f565b5060010190565b634e487b7160e01b600052604160045260246000fd5b600082601f8301126110b557600080fd5b815167ffffffffffffffff808211156110d0576110d061108e565b604051601f8301601f19908116603f011681019082821181831017156110f8576110f861108e565b8160405283815286602085880101111561111157600080fd5b611122846020830160208901610f60565b9695505050505050565b600080600080600060a0868803121561114457600080fd5b855167ffffffffffffffff8082111561115c57600080fd5b61116889838a016110a4565b9650602088015191508082111561117e57600080fd5b61118a89838a016110a4565b955060408801519150808211156111a057600080fd5b6111ac89838a016110a4565b945060608801519150808211156111c257600080fd5b6111ce89838a016110a4565b935060808801519150808211156111e457600080fd5b506111f1888289016110a4565b9150509295509295909350565b60008151611210818560208601610f60565b9290920192915050565b6e2261747472696275746573223a205b60881b81527f7b2274726169745f74797065223a227374796c65222c2276616c7565223a2200600f820152855160009061126b81602e850160208b01610f60565b7f227d2c7b2274726169745f74797065223a226261636b67726f756e6420636f6c602e918401918201526c37b91116113b30b63ab2911d1160991b604e82015286516112be81605b840160208b01610f60565b7f227d2c7b2274726169745f74797065223a22666f6e7420636f6c6f72222c2276605b92909101918201526630b63ab2911d1160c91b607b820152855161130c816082840160208a01610f60565b7f227d2c7b2274726169745f74797065223a226361666665696e61746564222c2260829290910191820152673b30b63ab2911d1160c11b60a28201526113a861139961139361135e60aa8501896111fe565b7f227d2c7b2274726169745f74797065223a22656666656374222c2276616c7565815262111d1160e91b602082015260230190565b866111fe565b62227d5d60e81b815260030190565b98975050505050505050565b7f7b226465736372697074696f6e223a2022676d2d6f6e636861696e206973206181527f20636f6c6c656374696f6e206f6620363936392072616e646f6d6c792067656e60208201527f6572617465642c206f6e636861696e2072656e646572696e6773206f66206f7560408201527f72206661766f726974652063727970746f207068726173652e20656e6a6f792e6060820152600061088b60f21b8060808401526c0113a34ba3632911d101133b69609d1b6082840152855161148081608f860160208a01610f60565b6c1116101134b6b0b3b2911d101160991b608f9185019182015285516114ad81609c840160208a01610f60565b01609c8101919091528351906114ca82609e830160208801610f60565b6114e0609e83830101607d60f81b815260010190565b979650505050505050565b7f646174613a6170706c69636174696f6e2f6a736f6e3b6261736536342c00000081526000825161152381601d850160208701610f60565b91909101601d0192915050565b60006020828403121561154257600080fd5b81518015158114610b7757600080fd5b634e487b7160e01b600052601260045260246000fd5b60008261157757611577611552565b500490565b60008261158b5761158b611552565b500690565b634e487b7160e01b600052603260045260246000fd5b7f646174613a696d6167652f7376672b786d6c3b6261736536342c0000000000008152600082516115de81601a850160208701610f60565b91909101601a019291505056fe4142434445464748494a4b4c4d4e4f505152535455565758595a6162636465666768696a6b6c6d6e6f707172737475767778797a303132333435363738392b2fa26469706673582212201bae731acb716ad59e8de4d04156576a39bb50f358276309203340fe6ee7699864736f6c63430008090033",
  "devdoc": {
    "kind": "dev",
    "methods": {
      "withdraw()": {
        "details": "This withdraws ETH from the contract to the contract owner."
      }
    },
    "version": 1
  },
  "userdoc": {
    "kind": "user",
    "methods": {},
    "notice": "GGGGGGGGGGGGGMMMMMMMM               MMMMMMMM GGG::::::::::::GM:::::::M             M:::::::M GG:::::::::::::::GM::::::::M           M::::::::M G:::::GGGGGGGG::::GM:::::::::M         M:::::::::M G:::::G       GGGGGGM::::::::::M       M::::::::::M G:::::G              M:::::::::::M     M:::::::::::M G:::::G              M:::::::M::::M   M::::M:::::::M G:::::G    GGGGGGGGGGM::::::M M::::M M::::M M::::::M G:::::G    G::::::::GM::::::M  M::::M::::M  M::::::M G:::::G    GGGGG::::GM::::::M   M:::::::M   M::::::M G:::::G        G::::GM::::::M    M:::::M    M::::::M G:::::G       G::::GM::::::M     MMMMM     M::::::M G:::::GGGGGGGG::::GM::::::M               M::::::M GG:::::::::::::::GM::::::M               M::::::M GGG::::::GGG:::GM::::::M               M::::::M GGGGGG   GGGGMMMMMMMM               MMMMMMMM",
    "version": 1
  },
  "storageLayout": {
    "storage": [
      {
        "astId": 8928,
        "contract": "contracts/Gm.sol:Gm",
        "label": "gap",
        "offset": 0,
        "slot": "0",
        "type": "t_array(t_uint256)100000_storage"
      },
      {
        "astId": 2069,
        "contract": "contracts/Gm.sol:Gm",
        "label": "currentTokenId",
        "offset": 0,
        "slot": "100000",
        "type": "t_struct(Counter)1538_storage"
      },
      {
        "astId": 2073,
        "contract": "contracts/Gm.sol:Gm",
        "label": "salePrice",
        "offset": 0,
        "slot": "100001",
        "type": "t_uint256"
      },
      {
        "astId": 2076,
        "contract": "contracts/Gm.sol:Gm",
        "label": "renderer",
        "offset": 0,
        "slot": "100002",
        "type": "t_contract(GmRenderer)6440"
      },
      {
        "astId": 2080,
        "contract": "contracts/Gm.sol:Gm",
        "label": "mintSeeds",
        "offset": 0,
        "slot": "100003",
        "type": "t_mapping(t_uint256,t_bytes32)"
      },
      {
        "astId": 2084,
        "contract": "contracts/Gm.sol:Gm",
        "label": "hasHadCoffee",
        "offset": 0,
        "slot": "100004",
        "type": "t_mapping(t_uint256,t_bool)"
      }
    ],
    "types": {
      "t_array(t_uint256)100000_storage": {
        "base": "t_uint256",
        "encoding": "inplace",
        "label": "uint256[100000]",
        "numberOfBytes": "3200000"
      },
      "t_bool": {
        "encoding": "inplace",
        "label": "bool",
        "numberOfBytes": "1"
      },
      "t_bytes32": {
        "encoding": "inplace",
        "label": "bytes32",
        "numberOfBytes": "32"
      },
      "t_contract(GmRenderer)6440": {
        "encoding": "inplace",
        "label": "contract GmRenderer",
        "numberOfBytes": "20"
      },
      "t_mapping(t_uint256,t_bool)": {
        "encoding": "mapping",
        "key": "t_uint256",
        "label": "mapping(uint256 => bool)",
        "numberOfBytes": "32",
        "value": "t_bool"
      },
      "t_mapping(t_uint256,t_bytes32)": {
        "encoding": "mapping",
        "key": "t_uint256",
        "label": "mapping(uint256 => bytes32)",
        "numberOfBytes": "32",
        "value": "t_bytes32"
      },
      "t_struct(Counter)1538_storage": {
        "encoding": "inplace",
        "label": "struct CountersUpgradeable.Counter",
        "members": [
          {
            "astId": 1537,
            "contract": "contracts/Gm.sol:Gm",
            "label": "_value",
            "offset": 0,
            "slot": "0",
            "type": "t_uint256"
          }
        ],
        "numberOfBytes": "32"
      },
      "t_uint256": {
        "encoding": "inplace",
        "label": "uint256",
        "numberOfBytes": "32"
      }
    }
  }
}