{
  "address": "0xde185Fc83E36BA1D5ab388D5c786879a2ecb0C30",
  "abi": [
    {
      "inputs": [
        {
          "internalType": "contract ICorruptionsFont",
          "name": "fontAddress",
          "type": "address"
        },
        {
          "internalType": "contract GmDataInterface",
          "name": "gmData1Address",
          "type": "address"
        },
        {
          "internalType": "contract GmDataInterface",
          "name": "gmData2Address",
          "type": "address"
        }
      ],
      "stateMutability": "nonpayable",
      "type": "constructor"
    },
    {
      "inputs": [
        {
          "components": [
            {
              "internalType": "bytes",
              "name": "imageName",
              "type": "bytes"
            },
            {
              "internalType": "bytes",
              "name": "compressedImage",
              "type": "bytes"
            },
            {
              "internalType": "uint256",
              "name": "compressedSize",
              "type": "uint256"
            }
          ],
          "internalType": "struct GmDataInterface.GmDataSet",
          "name": "gmData",
          "type": "tuple"
        }
      ],
      "name": "decompress",
      "outputs": [
        {
          "internalType": "bytes",
          "name": "",
          "type": "bytes"
        },
        {
          "internalType": "bytes",
          "name": "",
          "type": "bytes"
        }
      ],
      "stateMutability": "pure",
      "type": "function"
    },
    {
      "inputs": [
        {
          "internalType": "bytes32",
          "name": "seed",
          "type": "bytes32"
        }
      ],
      "name": "svgRaw",
      "outputs": [
        {
          "internalType": "bytes",
          "name": "",
          "type": "bytes"
        },
        {
          "internalType": "bytes",
          "name": "",
          "type": "bytes"
        },
        {
          "internalType": "bytes",
          "name": "",
          "type": "bytes"
        },
        {
          "internalType": "bytes",
          "name": "",
          "type": "bytes"
        },
        {
          "internalType": "bytes",
          "name": "",
          "type": "bytes"
        }
      ],
      "stateMutability": "view",
      "type": "function"
    }
  ],
  "transactionHash": "0xf826079605a816868a5e534b61598a1ab243dd815672485dafb99854602a7ed2",
  "args": [
    "0xA673604dA02958B80884B0Eef92A15075e7CA2a3",
    "0xe0c8BF356E19A896742A7d3a4bc46c40173781Ef",
    "0xdD22E87667318521C5E8d0725c1cB78Cb5e8B10F"
  ],
  "solcInputHash": "f9bf5b12334617721a72ef7015801ca0",
  "bytecode": "0x60e06040523480156200001157600080fd5b5060405162005b3238038062005b3283398101604081905262000034916200006b565b6001600160a01b0392831660805290821660a0521660c052620000bf565b6001600160a01b03811681146200006857600080fd5b50565b6000806000606084860312156200008157600080fd5b83516200008e8162000052565b6020850151909350620000a18162000052565b6040850151909250620000b48162000052565b809150509250925092565b60805160a05160c051615a43620000ef60003960006101c401526000610115015260006106440152615a436000f3fe608060405234801561001057600080fd5b50600436106100365760003560e01c8063338dc74e1461003b57806390accf5614610068575b600080fd5b61004e6100493660046152ba565b610089565b60405161005f95949392919061532f565b60405180910390f35b61007b610076366004615487565b610328565b60405161005f929190615524565b60608080808060006100a6604563ffffffff609f8a901c1661555f565b905060006100bf606463ffffffff607f8b901c1661555f565b905060006100d28263ffffffff16610349565b90506000806100e08b6104f6565b9150915060608060328763ffffffff1610156101a55760405163586e3c7d60e11b815263ffffffff8816600482015261019c907f00000000000000000000000000000000000000000000000000000000000000006001600160a01b03169063b0dc78fa906024015b60006040518083038186803b15801561016057600080fd5b505afa158015610174573d6000803e3d6000fd5b505050506040513d6000823e601f3d908101601f1916820160405261007691908101906155d2565b92509050610200565b60405163586e3c7d60e11b815263ffffffff881660048201526101fb907f00000000000000000000000000000000000000000000000000000000000000006001600160a01b03169063b0dc78fa90602401610148565b925090505b6102258160405180604001604052806003815260200162090caf60eb1b8152506105d5565b806102535750610253816040518060400160405280600681526020016542696e61727960d01b8152506105d5565b80610280575061028081604051806040016040528060058152602001644d6f72736560d81b8152506105d5565b806102b057506102b081604051806040016040528060088152602001674d6e656d6f6e696360c01b8152506105d5565b156102d557604051806040016040528060048152602001636e6f6e6560e01b81525094505b835183516102e4919087610640565b826040516020016102f692919061568b565b60408051601f198184030181529190526020948501519390940151939d909c50919a5091985091965090945050505050565b606080600061033f8460200151856040015161070f565b9451959350505050565b60608115806103585750816063145b1561037e5750506040805180820190915260058152646e6f69736560d81b602082015290565b816001148061038d5750816002145b806103985750816003145b806103a35750816004145b806103ae5750816005145b156103d25750506040805180820190915260038152621b1a5d60ea1b602082015290565b81600714806103e15750816008145b806103ec5750816009145b156104155750506040805180820190915260088152677363726962626c6560c01b602082015290565b60466104228360646156e1565b11801561043a5750605a6104378360646156e1565b11155b156104605750506040805180820190915260058152640dadee4e0d60db1b602082015290565b603c61046d8360646156e1565b118015610485575060466104828360646156e1565b11155b156104aa575050604080518082019091526004815263676c6f7760e01b602082015290565b81604514156104d6575050604080518082019091526007815266199c9858dd185b60ca1b602082015290565b50506040805180820190915260048152636e6f6e6560e01b602082015290565b60408051808201909152606080825260208201526040805180820190915260608082526020820152600061052f606f60e086901c61555f565b90506000610548600563ffffffff60c088901c1661555f565b9050600061055e600260ff60b889901c166156f8565b60ff16905060008161059257606f61057784603761571a565b610581908661571a565b61058b919061555f565b90506105b6565b606f61059f846037615742565b6105a9908661571a565b6105b3919061555f565b90505b6105bf846109c0565b6105c8826109c0565b9550955050505050915091565b600081518351146105e85750600061063a565b816040516020016105f99190615767565b60405160208183030381529060405280519060200120836040516020016106209190615767565b604051602081830303815290604052805190602001201490505b92915050565b60607f00000000000000000000000000000000000000000000000000000000000000006001600160a01b0316639d37bc7c6040518163ffffffff1660e01b815260040160006040518083038186803b15801561069b57600080fd5b505afa1580156106af573d6000803e3d6000fd5b505050506040513d6000823e601f3d908101601f191682016040526106d79190810190615783565b82846106e1612ffe565b876040516020016106f69594939291906157cb565b60405160208183030381529060405290505b9392505050565b600060606000604051806101000160405280856001600160401b038111156107395761073961539c565b6040519080825280601f01601f191660200182016040528015610763576020820181803683370190505b508152602001600081526020018681526020016000815260200160008152602001600081526020016040518060400160405280600f60016107a491906159ae565b6001600160401b038111156107bb576107bb61539c565b6040519080825280602002602001820160405280156107e4578160200160208202803683370190505b5081526040805161012080825261242082019092526020928301929091908201612400803683370190505081525081526020016040518060400160405280600f600161083091906159ae565b6001600160401b038111156108475761084761539c565b604051908082528060200260200182016040528015610870578160200160208202803683370190505b50815260408051601e8082526103e0820190925260209283019290919082016103c080368337505050905290529050600080806108ac846138c4565b9050600081600e8111156108c2576108c26159c6565b146108d75792519294509192506109b9915050565b826109ae576108e7846001613a4e565b93509050600081600e8111156108ff576108ff6159c6565b146109145792519294509192506109b9915050565b61091f846002613a4e565b92509050600081600e811115610937576109376159c6565b1461094c5792519294509192506109b9915050565b811561098057816001146109775781600214610969576003610989565b61097284613b1f565b610989565b61097284613b99565b61098984613bae565b9050600081600e81111561099f5761099f6159c6565b146109a9576109ae565b6108d7565b925192945091925050505b9250929050565b604080518082019091526060808252602082015263ffffffff8216610a205760408051808201825260078152660233030303030360cc1b60208083019190915290835281518083019092526005825264426c61636b60d81b828201528201525b8163ffffffff1660011415610a795760408051808201825260078152662330303463366160c81b6020808301919091529083528151808301909252600e82526d4e617679204461726b20426c756560901b828201528201525b8163ffffffff1660021415610acf57604080518082018252600781526608cc0c0e4e190d60ca1b6020808301919091529083528151808301909252600b82526a42617965726e20426c756560a81b828201528201525b8163ffffffff1660031415610b2a576040805180820182526007815266119818329a199b60c91b6020808301919091529083528151808301909252601082526f2632bc30b637b33336329023b932b2b760811b828201528201525b8163ffffffff1660041415610b82576040805180820182526007815266119898199a309b60c91b6020808301919091529083528151808301909252600d82526c456779707469616e20426c756560981b828201528201525b8163ffffffff1660051415610bd85760408051808201825260078152662330303838313160c81b6020808301919091529083528151808301909252600b82526a263ab9b41023b0b93232b760a91b828201528201525b8163ffffffff1660061415610c32576040805180820182526007815266046606cc8606e760cb1b6020808301919091529083528151808301909252600f82526e2ab73232b93bb0ba32b9102332b93760891b828201528201525b8163ffffffff1660071415610c875760408051808201825260078152660233163316366360cc1b6020808301919091529083528151808301909252600a825269109b1d59589bdb9b995d60b21b828201528201525b8163ffffffff1660081415610cde5760408051808201825260078152662331323734353360c81b6020808301919091529083528151808301909252600c82526b11dc99595b8815995b1d995d60a21b828201528201525b8163ffffffff1660091415610d3857604080518082018252600781526608cc4d1898588d60ca1b6020808301919091529083528151808301909252600f82526e53757065722052617265204a61646560881b828201528201525b8163ffffffff16600a1415610d89576040805180820182526007808252661198989898991960c91b6020808401919091529184528251808401909352825266436f726265617560c81b828201528201525b8163ffffffff16600b1415610ddf5760408051808201825260078152662331363564393560c81b6020808301919091529083528151808301909252600b82526a13185c1a5cc812995dd95b60aa1b828201528201525b8163ffffffff16600c1415610e335760408051808201825260078152662331366238663360c81b602080830191909152908352815180830190925260098252685a696d6120426c756560b81b828201528201525b8163ffffffff16600d1415610e915760408051808201825260078152661198b2b31c1b9b60c91b6020808301919091529083528151808301909252601382527214de5b9d1a195d1a58c814dc19585c9b5a5b9d606a1b828201528201525b8163ffffffff16600e1415610ee2576040805180820182526007808252661199189a33319b60c91b60208084019190915291845282518084019093528252662732bb9021b0b960c91b828201528201525b8163ffffffff16600f1415610f3c5760408051808201825260078152660466468726268760cb1b6020808301919091529083528151808301909252600f82526e2830b832b93137bc93b9902630bbb760891b828201528201525b8163ffffffff1660101415610f945760408051808201825260078152662332346461393160c81b6020808301919091529083528151808301909252600d82526c2932b83a34b6329023b932b2b760991b828201528201525b8163ffffffff1660111415610fed5760408051808201825260078152662332323333313160c81b6020808301919091529083528151808301909252600e82526d11185c9ad95cdd08119bdc995cdd60921b828201528201525b8163ffffffff166012141561104357604080518082018252600781526608cc8e4dd98d9960ca1b6020808301919091529083528151808301909252600b82526a4d65726d6169642053656160a81b828201528201525b8163ffffffff16601314156110995760408051808201825260078152662332326363636360c81b6020808301919091529083528151808301909252600b82526a13595c9b585a590813995d60aa1b828201528201525b8163ffffffff16601414156110ee5760408051808201825260078152662332653232343960c81b6020808301919091529083528151808301909252600a825269456c646572626572727960b01b828201528201525b8163ffffffff16601514156111465760408051808201825260078152662333323661623160c81b6020808301919091529083528151808301909252600d82526c446f766572205374726169747360981b828201528201525b8163ffffffff166016141561119f576040805180820182526007815266119931319a98b160c91b6020808301919091529083528151808301909252600e82526d46656c776f6f64204c656176657360901b828201528201525b8163ffffffff16601714156111f65760408051808201825260078152662333393132383560c81b6020808301919091529083528151808301909252600c82526b2834bc34b2902837bbb232b960a11b828201528201525b8163ffffffff166018141561125357604080518082018252600781526604664ca6a70ca760cb1b602080830191909152908352815180830190925260128252715665746572616e27732044617920426c756560701b828201528201525b8163ffffffff16601914156112ab5760408051808201825260078152662334313966353960c81b6020808301919091529083528151808301909252600d82526c21b430ba32b0ba9023b932b2b760991b828201528201525b8163ffffffff16601a14156113045760408051808201825260078152662334356539633160c81b6020808301919091529083528151808301909252600e82526d417068726f64697465204171756160901b828201528201525b8163ffffffff16601b141561135a5760408051808201825260078152660233432343333360cc1b6020808301919091529083528151808301909252600b82526a08ec2e4c8cadc40a0c2e8d60ab1b828201528201525b8163ffffffff16601c14156113ab576040805180820182526007808252662334323933393560c81b602080840191909152918452825180840190935282526621b0ba30b630b760c91b828201528201525b8163ffffffff16601d14156114015760408051808201825260078152660233434646430360cc1b6020808301919091529083528151808301909252600b82526a4d6167696320426c61646560a81b828201528201525b8163ffffffff16601e1415611458576040805180820182526007815266119a1999329b3360c91b6020808301919091529083528151808301909252600c82526b48657220486967686e65737360a01b828201528201525b8163ffffffff16601f14156114ae57604080518082018252600781526608cd0d0dcdd91960ca1b6020808301919091529083528151808301909252600b82526a416e6472656120426c756560a81b828201528201525b8163ffffffff16602014156115075760408051808201825260078152662335616433336560c81b6020808301919091529083528151808301909252600e82526d56657264616e74204669656c647360901b828201528201525b8163ffffffff166021141561155d5760408051808201825260078152662333613138623160c81b6020808301919091529083528151808301909252600b82526a496e6469676f20426c756560a81b828201528201525b8163ffffffff16602214156115b95760408051808201825260078152662335353636313160c81b60208083019190915290835281518083019092526011825270119bdc995cdd1a585b0813dd5d1c1bdcdd607a1b828201528201525b8163ffffffff16602314156116125760408051808201825260078152660466a6ac4c470760cb1b6020808301919091529083528151808301909252600e82526d426c656163686564204f6c69766560901b828201528201525b8163ffffffff166024141561166e5760408051808201825260078152662335353030656560c81b6020808301919091529083528151808301909252601182527054657a6361746c69706f636120426c756560781b828201528201525b8163ffffffff16602514156116c457604080518082018252600781526608cd4d0d4d4d4d60ca1b6020808301919091529083528151808301909252600b82526a436172626f6e20436f707960a81b828201528201525b8163ffffffff16602614156117155760408051808201825260078152662335386130626360c81b60208083019190915290835281518083019092526006825265223ab830b4b760d11b828201528201525b8163ffffffff166027141561176d576040805180820182526007815266119a9ab333191960c91b6020808301919091529083528151808301909252600d82526c2a3930b33334b19023b932b2b760991b828201528201525b8163ffffffff16602814156117c25760408051808201825260078152660233562336539360cc1b6020808301919091529083528151808301909252600a825269088c2d2e6f24084eae6d60b31b828201528201525b8163ffffffff1660291415611817576040805180820182526007815266119b1b1c1c333360c91b6020808301919091529083528151808301909252600a825269446565702044656e696d60b01b828201528201525b8163ffffffff16602a14156118705760408051808201825260078152660233631653136360cc1b6020808301919091529083528151808301909252600e82526d2634b3b43a34b9b41023b932b2b760911b828201528201525b8163ffffffff16602b14156118c75760408051808201825260078152662336613331636160c81b6020808301919091529083528151808301909252600c82526b536167617420507572706c6560a01b828201528201525b8163ffffffff16602c14156119205760408051808201825260078152662336363763336560c81b6020808301919091529083528151808301909252600e82526d26b4b634ba30b93c9023b932b2b760911b828201528201525b8163ffffffff16602d141561197757604080518082018252600781526608cd8e18ce0e5960ca1b6020808301919091529083528151808301909252600c82526b496e74656e7365204a61646560a01b828201528201525b8163ffffffff16602e14156119d05760408051808201825260078152660466cc8626060760cb1b6020808301919091529083528151808301909252600e82526d21b432b9ba373aba10213937bbb760911b828201528201525b8163ffffffff16602f1415611a2757604080518082018252600781526608cd8e4d8ccdcd60ca1b6020808301919091529083528151808301909252600c82526b0a0eae4e0d8ca40a0eadcc6d60a31b828201528201525b8163ffffffff1660301415611a7c5760408051808201825260078152660233666623765360cc1b6020808301919091529083528151808301909252600a8252694c69666520466f72636560b01b828201528201525b8163ffffffff1660311415611ada57604080518082018252600781526608cdcdcc0c0d0d60ca1b602080830191909152908352815180830190925260138252724461776e206f6620746865204661697269657360681b828201528201525b8163ffffffff1660321415611b335760408051808201825260078152662337383531613960c81b6020808301919091529083528151808301909252600e82526d2937bcb0b6102630bb32b73232b960911b828201528201525b8163ffffffff1660331415611b8f5760408051808201825260078152660466e6c72c662760cb1b60208083019190915290835281518083019092526011825270263ab6b4b732b9b1b2b73a1023b932b2b760791b828201528201525b8163ffffffff1660341415611be057604080518082018252600780825266119bb1329c1c9960c91b6020808401919091529184528251808401909352825266149859ddd9595960ca1b828201528201525b8163ffffffff1660351415611c385760408051808201825260078152662337303362653760c81b6020808301919091529083528151808301909252600d82526c426c7569736820507572706c6560981b828201528201525b8163ffffffff1660361415611c8e57604080518082018252600781526608cdd88e188d5960ca1b6020808301919091529083528151808301909252600b82526a53616765204c656176657360a81b828201528201525b8163ffffffff1660371415611ce95760408051808201825260078152662338326439633560c81b6020808301919091529083528151808301909252601082526f54656e6465722054757271756f69736560801b828201528201525b8163ffffffff1660381415611d415760408051808201825260078152660233765323533360cc1b6020808301919091529083528151808301909252600d82526c536361726c657420536861646560981b828201528201525b8163ffffffff1660391415611d9b5760408051808201825260078152662338333736396360c81b6020808301919091529083528151808301909252600f82526e566f786174726f6e20507572706c6560881b828201528201525b8163ffffffff16603a1415611df35760408051808201825260078152660233838636330360cc1b6020808301919091529083528151808301909252600d82526c466162756c6f75732046726f6760981b828201528201525b8163ffffffff16603b1415611e4e576040805180820182526007815266119c1c18989b1b60c91b6020808301919091529083528151808301909252601082526f506f7373657373656420507572706c6560801b828201528201525b8163ffffffff16603c1415611ea657604080518082018252600781526608ce0dcd4d994d60ca1b6020808301919091529083528151808301909252600d82526c476c6f6f6d7920507572706c6560981b828201528201525b8163ffffffff16603d1415611f0457604080518082018252600781526608ce4cd88c4cd960ca1b60208083019190915290835281518083019092526013825272477265656e205465612049636520437265616d60681b828201528201525b8163ffffffff16603e1415611f595760408051808201825260078152662339306664613960c81b6020808301919091529083528151808301909252600a8252692337b0b69023b932b2b760b11b828201528201525b8163ffffffff16603f1415611fb25760408051808201825260078152662339313462313360c81b6020808301919091529083528151808301909252600e82526d2830b930b9b4ba3290213937bbb760911b828201528201525b8163ffffffff166040141561200e5760408051808201825260078152662339313963383160c81b6020808301919091529083528151808301909252601182527057686973706572696e672057696c6c6f7760781b828201528201525b8163ffffffff16604114156120665760408051808201825260078152662339396565656560c81b6020808301919091529083528151808301909252600d82526c467265657a7920427265657a7960981b828201528201525b8163ffffffff16604214156120ba5760408051808201825260078152662339383364353360c81b60208083019190915290835281518083019092526009825268105b19d8594814995960ba1b828201528201525b8163ffffffff16604314156121155760408051808201825260078152662339633837633160c81b6020808301919091529083528151808301909252601082526f50657472696669656420507572706c6560801b828201528201525b8163ffffffff16604414156121715760408051808201825260078152662339386461326360c81b60208083019190915290835281518083019092526011825270456666657276657363656e74204c696d6560781b828201528201525b8163ffffffff16604514156121c65760408051808201825260078152662339343231393360c81b6020808301919091529083528151808301909252600a82526941636169204a7569636560b01b828201528201525b8163ffffffff16604614156122235760408051808201825260078152662361363735666560c81b60208083019190915290835281518083019092526012825271141d5c9c1b1948125b1b1d5cda5bdb9a5cdd60721b828201528201525b8163ffffffff166047141561227a5760408051808201825260078152662361346331363160c81b6020808301919091529083528151808301909252600c82526b4a756e676c65204a7569636560a01b828201528201525b8163ffffffff16604814156122d65760408051808201825260078152662361613030636360c81b602080830191909152908352815180830190925260118252704665726f63696f7573204675636873696160781b828201528201525b8163ffffffff166049141561232c5760408051808201825260078152662361383565333960c81b6020808301919091529083528151808301909252600b82526a4561727468656e204a756760a81b828201528201525b8163ffffffff16604a141561238157604080518082018252600781526608d858584e584d60ca1b6020808301919091529083528151808301909252600a825269456c6c6965204772657960b01b828201528201525b8163ffffffff16604b14156123e25760408051808201825260078152662361616565313160c81b6020808301919091529083528151808301909252601682527523b637b934b7bab99023b932b2b71023b634ba3a32b960511b828201528201525b8163ffffffff16604c141561243a5760408051808201825260078152662361643433373960c81b6020808301919091529083528151808301909252600d82526c26bcb9ba34b19026b0b937b7b760991b828201528201525b8163ffffffff16604d141561249857604080518082018252600781526608d88c4e4d594d60ca1b60208083019190915290835281518083019092526013825272111c99585b5e4810d85b991e48119bdc995cdd606a1b828201528201525b8163ffffffff16604e14156124e95760408051808201825260078082526611b118b2321a9960c91b602080840191909152918452825180840190935282526621b7b734b332b960c91b828201528201525b8163ffffffff16604f141561254257604080518082018252600781526611b198199a30b360c91b6020808301919091529083528151808301909252600e82526d141a5b9ac814195c995b9b9a585b60921b828201528201525b8163ffffffff16605014156125aa5760408051808201825260078152662362373837323760c81b6020808301919091529083528151808301909252601d82527f556e6976657273697479206f662043616c69666f726e696120476f6c64000000828201528201525b8163ffffffff166051141561260157604080518082018252600781526611b11cb2181c3160c91b6020808301919091529083528151808301909252600c82526b596f756e67204c656176657360a01b828201528201525b8163ffffffff166052141561265c5760408051808201825260078152662362623131656560c81b6020808301919091529083528151808301909252601082526f50726f6d697363756f75732050696e6b60801b828201528201525b8163ffffffff16605314156126b35760408051808201825260078152660236330363936360cc1b6020808301919091529083528151808301909252600c82526b15185c195cdd1c9e4814995960a21b828201528201525b8163ffffffff16605414156127095760408051808201825260078152662362656262633960c81b6020808301919091529083528151808301909252600b82526a53696c766572626572727960a81b828201528201525b8163ffffffff16605514156127615760408051808201825260078152660236266306133360cc1b6020808301919091529083528151808301909252600d82526c13db190811db1bdc9e48149959609a1b828201528201525b8163ffffffff16605614156127b85760408051808201825260078152662363333562393960c81b6020808301919091529083528151808301909252600c82526b131b1a5b1858dc5d595c995960a21b828201528201525b8163ffffffff166057141561281157604080518082018252600781526611b1b0b09c981b60c91b6020808301919091529083528151808301909252600e82526d10da1c9a5cdd1b585cc811dbdb1960921b828201528201525b8163ffffffff16605814156128695760408051808201825260078152662363326631373760c81b6020808301919091529083528151808301909252600d82526c437563756d626572204d696c6b60981b828201528201525b8163ffffffff16605914156128c25760408051808201825260078152662364363438643760c81b6020808301919091529083528151808301909252600e82526d50696e6b69736820507572706c6560901b828201528201525b8163ffffffff16605a141561292157604080518082018252600781526611b1b31c999a1b60c91b6020808301919091529083528151808301909252601482527308cd8cae6d0e8dedcca40a6d0c2c8ca40aec2e6d60631b828201528201525b8163ffffffff16605b141561297a5760408051808201825260078152662364336530623160c81b6020808301919091529083528151808301909252600e82526d149bd8dadb595b1bdb88149a5b9960921b828201528201525b8163ffffffff16605c14156129cd57604080518082018252600781526608d90c8c990c5960ca1b60208083019190915290835281518083019092526008825267141d5c994814995960c21b828201528201525b8163ffffffff16605d1415612a1d5760408051808201825260078152662364323830383360c81b6020808301919091529083528151808301909252600582526408ec2d8c2d60db1b828201528201525b8163ffffffff16605e1415612a72576040805180820182526007815266046c86ac66eca760cb1b6020808301919091529083528151808301909252600a825269466f676779204c6f766560b01b828201528201525b8163ffffffff16605f1415612ac85760408051808201825260078152662364623134353960c81b6020808301919091529083528151808301909252600b82526a527562796c6963696f757360a81b828201528201525b8163ffffffff1660601415612b1e57604080518082018252600781526611b2321b1b313160c91b6020808301919091529083528151808301909252600b82526a50696e6b2043686172676560a81b828201528201525b8163ffffffff1660611415612b725760408051808201825260078152662365326232323760c81b60208083019190915290835281518083019092526009825268476f6c64205469707360b81b828201528201525b8163ffffffff1660621415612bc85760408051808201825260078152662365653030393960c81b6020808301919091529083528151808301909252600b82526a131bdd994815995cdcd95b60aa1b828201528201525b8163ffffffff1660631415612c2357604080518082018252600781526611b2321a9ab33360c91b6020808301919091529083528151808301909252601082526f466c616d696e6720466c616d696e676f60801b828201528201525b8163ffffffff1660641415612c7e5760408051808201825260078152662365646133363760c81b6020808301919091529083528151808301909252601082526f416476656e74757265204f72616e676560801b828201528201525b8163ffffffff1660651415612cd85760408051808201825260078152660236539663164360cc1b6020808301919091529083528151808301909252600f82526e59656c6c6f7769736820576869746560881b828201528201525b8163ffffffff1660661415612d2e5760408051808201825260078152662365663339333960c81b6020808301919091529083528151808301909252600b82526a159a5d985b191a4814995960aa1b828201528201525b8163ffffffff1660671415612d895760408051808201825260078152662365373865613560c81b6020808301919091529083528151808301909252601082526f556e646572776174657220466c61726560801b828201528201525b8163ffffffff1660681415612de25760408051808201825260078152662365656464313160c81b6020808301919091529083528151808301909252600e82526d59656c6c6f772042757a7a696e6760901b828201528201525b8163ffffffff1660691415612e3c5760408051808201825260078152662365653232373760c81b6020808301919091529083528151808301909252600f82526e467572696f7573204675636873696160881b828201528201525b8163ffffffff16606a1415612e9b57604080518082018252600781526611b3181b9ab29b60c91b602080830191909152908352815180830190925260148252734c69616e20486f6e67204c6f7475732050696e6b60601b828201528201525b8163ffffffff16606b1415612ef75760408051808201825260078152662366376333346360c81b6020808301919091529083528151808301909252601182527021b932b0b6bc9029bbb2b2ba1021b7b93760791b828201528201525b8163ffffffff16606c1415612f4a5760408051808201825260078152660236663306663360cc1b602080830191909152908352815180830190925260088252674347412050696e6b60c01b828201528201525b8163ffffffff16606d1415612fa257604080518082018252600781526611b3331b1b191960c91b6020808301919091529083528151808301909252600d82526c53706172726f7773204669726560981b828201528201525b8163ffffffff16606e1415612ff957604080518082018252600781526608d99898598e1960ca1b6020808301919091529083528151808301909252600c82526b4f72616e67652047726f766560a01b828201528201525b919050565b60606040516020016138b0907f3c646566733e3c66696c7465722069643d226672616374616c222066696c746581527f72556e6974733d226f626a656374426f756e64696e67426f782220783d22302560208201527f2220793d223025222077696474683d223130302522206865696768743d22313060408201527f302522203e3c666554757262756c656e63652069643d2274757262756c656e6360608201527f652220747970653d226672616374616c4e6f697365222062617365467265717560808201527f656e63793d22302e303322206e756d4f6374617665733d223122203e3c616e6960a08201527f6d617465206174747269627574654e616d653d22626173654672657175656e6360c08201527f79222076616c7565733d22302e30313b302e343b302e303122206475723d223160e08201527f3030732220726570656174436f756e743d22696e646566696e69746522202f3e6101008201527f3c2f666554757262756c656e63653e3c6665446973706c6163656d656e744d616101208201527f7020696e3d22536f757263654772617068696322207363616c653d223530223e6101408201527f3c2f6665446973706c6163656d656e744d61703e3c2f66696c7465723e3c66696101608201527f6c7465722069643d226d6f727068223e3c66654d6f7270686f6c6f6779206f706101808201527f657261746f723d2264696c61746522207261646975733d2230223e3c616e696d6101a08201527f617465206174747269627574654e616d653d22726164697573222076616c75656101c08201527f733d22303b353b3022206475723d2238732220726570656174436f756e743d226101e08201527f696e646566696e69746522202f3e3c2f66654d6f7270686f6c6f67793e3c2f666102008201527f696c7465723e3c66696c7465722069643d22676c6f77222066696c746572556e6102208201527f6974733d226f626a656374426f756e64696e67426f782220783d2230252220796102408201527f3d223025222077696474683d223130302522206865696768743d2231303025226102608201527f203e3c6665476175737369616e426c757220737464446576696174696f6e3d226102808201527f352220726573756c743d22626c7572322220696e3d22536f75726365477261706102a08201527f68696322202f3e3c66654d657267653e3c66654d657267654e6f646520696e3d6102c08201527f22626c75723222202f3e3c66654d657267654e6f646520696e3d22536f7572636102e08201527f654772617068696322202f3e3c2f66654d657267653e3c2f66696c7465723e3c6103008201527f66696c7465722069643d226e6f697365223e3c666554757262756c656e6365206103208201527f626173654672657175656e63793d22302e3035222f3e3c6665436f6c6f724d616103408201527f7472697820747970653d22687565526f74617465222076616c7565733d2230226103608201527f3e3c616e696d617465206174747269627574654e616d653d2276616c756573226103808201527f2066726f6d3d22302220746f3d2233363022206475723d2231732220726570656103a08201527f6174436f756e743d22696e646566696e697465222f3e3c2f6665436f6c6f724d6103c08201527f61747269783e3c6665436f6c6f724d617472697820747970653d226d617472696103e08201527f78222076616c7565733d223020302030203020312030203020302030203020306104008201527f203020302030203020312030203020302030222f3e3c6665446973706c6163656104208201527f6d656e744d617020696e3d22536f757263654772617068696322207363616c656104408201527f3d223130222f3e3c2f66696c7465723e3c66696c7465722069643d226e6f6e656104608201527f223e3c66654f66667365743e3c2f66654f66667365743e3c2f66696c7465723e6104808201527f3c66696c7465722069643d227363726962626c65223e3c666554757262756c656104a08201527f6e636520747970653d2274757262756c656e63652220626173654672657175656104c08201527f6e63793d22302e303522206e756d4f6374617665733d22322220726573756c746104e08201527f3d2274757262756c656e6365222f3e3c6665446973706c6163656d656e744d616105008201527f7020696e323d2274757262756c656e63652220696e3d22536f757263654772616105208201527f7068696322207363616c653d2235302220784368616e6e656c53656c6563746f6105408201527f723d22522220794368616e6e656c53656c6563746f723d2247222f3e3c2f66696105608201527f6c7465723e3c66696c7465722069643d2274696c652220783d2231302220793d6105808201527f223130222077696474683d2231302522206865696768743d22313025223e3c666105a08201527f6554696c6520696e3d22536f75726365477261706869632220783d22313022206105c08201527f793d223130222077696474683d22313022206865696768743d22313022202f3e6105e08201527f3c666554696c652f3e3c2f66696c7465723e3c66696c746572206964203d20226106008201527f6c69742220783d222d33302220793d222d3330222077696474683d22363430226106208201527f206865696768743d22363430223e3c666554757262756c656e636520747970656106408201527f3d2274757262756c656e63652220626173654672657175656e63793d22302e306106608201527f3122206e756d4f6374617665733d22322220726573756c743d2274757262756c6106808201527f656e6365222f3e3c6665436f6d706f7369746520696e3d22536f7572636547726106a08201527f61706869632220696e323d22737065634f757422206f70657261746f723d22616106c08201527f726974686d6574696322206b313d223022206b323d223122206b333d223122206106e082015277359a1e911811179f1e17b334b63a32b91f1e17b232b3399f60411b6107008201526107180190565b604051602081830303815290604052905090565b604080516101208082526124208201909252600091829182916020820161240080368337019050509050600091505b609082101561392d576008818381518110613910576139106159dc565b602090810291909101015281613925816159f2565b9250506138f3565b61010082101561396857600981838151811061394b5761394b6159dc565b602090810291909101015281613960816159f2565b92505061392d565b6101188210156139a3576007818381518110613986576139866159dc565b60209081029190910101528161399b816159f2565b925050613968565b6101208210156139de5760088183815181106139c1576139c16159dc565b6020908102919091010152816139d6816159f2565b9250506139a3565b6139f18460c00151826101206000613dbe565b50600091505b601e821015613a31576005818381518110613a1457613a146159dc565b602090810291909101015281613a29816159f2565b9250506139f7565b613a438460e0015182601e6000613dbe565b506000949350505050565b608082015160009081905b838560a001511015613ae25784604001515185606001511415613a84576001600092509250506109b9565b60a0850151604086015160608701805190613a9e826159f2565b905281518110613ab057613ab06159dc565b602001015160f81c60f81b60f81c60ff16901b8117905060088560a001818151613ada91906159ae565b905250613a59565b80841c608086015260a085018051859190613afe9083906156e1565b9052506000613b10600180871b6156e1565b60009792169550909350505050565b6000613b3e604051806040016040528060608152602001606081525090565b60408051808201909152606080825260208201526000613b5d85614089565b90945092509050600081600e811115613b7857613b786159c6565b14613b8557949350505050565b613b9085848461473f565b95945050505050565b600061063a828360c001518460e0015161473f565b60006080820181905260a082018190526040820151516060830151829190613bd79060046159ae565b1115613be65750600192915050565b604083015160608401805190613bfb826159f2565b905281518110613c0d57613c0d6159dc565b0160200151604084015160608501805160f89390931c935060089290613c32826159f2565b905281518110613c4457613c446159dc565b602001015160f81c60f81b60f81c60ff16901b81179050801960ff168360400151846060018051809190613c77906159f2565b905281518110613c8957613c896159dc565b016020015160f81c141580613cd45750604083015160608401805160ff841960081c169291613cb7826159f2565b905281518110613cc957613cc96159dc565b016020015160f81c14155b15613ce25750600492915050565b826040015151818460600151613cf891906159ae565b1115613d075750600192915050565b8251516020840151613d1a9083906159ae565b1115613d295750600292915050565b8015613db557613d3a6001826156e1565b90508260400151836060018051809190613d53906159f2565b905281518110613d6557613d656159dc565b602001015160f81c60f81b8360000151846020018051809190613d87906159f2565b905281518110613d9957613d996159dc565b60200101906001600160f81b031916908160001a905350613d29565b50600092915050565b600080600080613dcc61529b565b600092505b600f8311613e0e57600089600001518481518110613df157613df16159dc565b602090810291909101015282613e06816159f2565b935050613dd1565b600093505b86841015613e7a57885188613e2886896159ae565b81518110613e3857613e386159dc565b602002602001015181518110613e5057613e506159dc565b602002602001018051809190613e65906159f2565b90525083613e72816159f2565b945050613e13565b868960000151600081518110613e9257613e926159dc565b60200260200101511415613ead576000945050505050614081565b60019150600192505b600f8311613f30578851805160019390931b9284908110613ed957613ed96159dc565b6020026020010151821015613ef557600e945050505050614081565b8851805184908110613f0957613f096159dc565b602002602001015182613f1c91906156e1565b915082613f28816159f2565b935050613eb6565b60006020820152600192505b600f831015613fb5578851805184908110613f5957613f596159dc565b6020026020010151818460108110613f7357613f736159dc565b6020020151613f8291906159ae565b81613f8e8560016159ae565b60108110613f9e57613f9e6159dc565b602002015282613fad816159f2565b935050613f3c565b600093505b868410156140685787613fcd85886159ae565b81518110613fdd57613fdd6159dc565b60200260200101516000146140565760208901518490828a613fff848b6159ae565b8151811061400f5761400f6159dc565b602002602001015160108110614027576140276159dc565b60200201805190614037826159f2565b905281518110614049576140496159dc565b6020026020010181815250505b83614060816159f2565b945050613fba565b6000821161407757600061407a565b600e5b9450505050505b949350505050565b60006140a8604051806040016040528060608152602001606081525090565b60408051808201909152606080825260208201526000808080806140cf601e61011e6159ae565b6001600160401b038111156140e6576140e661539c565b60405190808252806020026020018201604052801561410f578160200160208202803683370190505b50905060006040518060400160405280600f600161412d91906159ae565b6001600160401b038111156141445761414461539c565b60405190808252806020026020018201604052801561416d578160200160208202803683370190505b5081526040805161011e8082526123e0820190925260209283019290919082016123c08036833701905050815250905060006040518060400160405280600f60016141b891906159ae565b6001600160401b038111156141cf576141cf61539c565b6040519080825280602002602001820160405280156141f8578160200160208202803683370190505b50815260408051601e8082526103e0820190925260209283019290919082016103c0803683375050509052905060006142328c6005613a4e565b98509450600085600e81111561424a5761424a6159c6565b14614262575092985096509094506147389350505050565b61426e610101896159ae565b975061427b8c6005613a4e565b97509450600085600e811115614293576142936159c6565b146142ab575092985096509094506147389350505050565b6142b66001886159ae565b965061011e8811806142c85750601e87115b156142e25750600599509097509550614738945050505050565b6142eb8c614f6a565b9095509350600085600e811115614304576143046159c6565b1461431c575092985096509094506147389350505050565b61432a838560136000613dbe565b9450600085600e811115614340576143406159c6565b1461435a5750600699509097509550614738945050505050565b600095505b61436987896159ae565b8610156145625760008061437d8e8661518c565b9097509150600087600e811115614396576143966159c6565b146143b05750949a50919850965061473895505050505050565b60108210156143e8578186896143c5816159f2565b9a50815181106143d7576143d76159dc565b60200260200101818152505061455b565b50600060108214156144875787614411575060079b509299509097506147389650505050505050565b8561441d60018a6156e1565b8151811061442d5761442d6159dc565b602002602001015190506144428e6002613a4e565b9097509250600087600e81111561445b5761445b6159c6565b146144755750949a50919850965061473895505050505050565b6144808360036159ae565b91506144e7565b816011141561449b576144428e6003613a4e565b6144a68e6007613a4e565b9097509250600087600e8111156144bf576144bf6159c6565b146144d95750949a50919850965061473895505050505050565b6144e483600b6159ae565b91505b6144f1898b6159ae565b6144fb838a6159ae565b1115614519575060089b509299509097506147389650505050505050565b811561455b5761452a6001836156e1565b9150808689614538816159f2565b9a508151811061454a5761454a6159dc565b602002602001018181525050614519565b505061435f565b8361010081518110614576576145766159dc565b60200260200101516000141561459b5750600b99509097509550614738945050505050565b6145a883858a6000613dbe565b9450600085600e8111156145be576145be6159c6565b141580156146485750600185600e8111156145db576145db6159c6565b14806145f85750600285600e8111156145f6576145f66159c6565b145b806146485750825180516001908110614613576146136159dc565b60200260200101518360000151600081518110614632576146326159dc565b602002602001015161464491906159ae565b8814155b156146625750600999509097509550614738945050505050565b61466e8285898b613dbe565b9450600085600e811115614684576146846159c6565b1415801561470e5750600185600e8111156146a1576146a16159c6565b14806146be5750600285600e8111156146bc576146bc6159c6565b145b8061470e57508151805160019081106146d9576146d96159dc565b602002602001015182600001516000815181106146f8576146f86159dc565b602002602001015161470a91906159ae565b8714155b156147285750600a99509097509550614738945050505050565b5060009950909750955050505050505b9193909250565b6000806000806000604051806103a00160405280600361ffff168152602001600461ffff168152602001600561ffff168152602001600661ffff168152602001600761ffff168152602001600861ffff168152602001600961ffff168152602001600a61ffff168152602001600b61ffff168152602001600d61ffff168152602001600f61ffff168152602001601161ffff168152602001601361ffff168152602001601761ffff168152602001601b61ffff168152602001601f61ffff168152602001602361ffff168152602001602b61ffff168152602001603361ffff168152602001603b61ffff168152602001604361ffff168152602001605361ffff168152602001606361ffff168152602001607361ffff168152602001608361ffff16815260200160a361ffff16815260200160c361ffff16815260200160e361ffff16815260200161010261ffff1681525090506000604051806103a00160405280600060ff168152602001600060ff168152602001600060ff168152602001600060ff168152602001600060ff168152602001600060ff168152602001600060ff168152602001600060ff168152602001600160ff168152602001600160ff168152602001600160ff168152602001600160ff168152602001600260ff168152602001600260ff168152602001600260ff168152602001600260ff168152602001600360ff168152602001600360ff168152602001600360ff168152602001600360ff168152602001600460ff168152602001600460ff168152602001600460ff168152602001600460ff168152602001600560ff168152602001600560ff168152602001600560ff168152602001600560ff168152602001600060ff1681525090506000604051806103c00160405280600161ffff168152602001600261ffff168152602001600361ffff168152602001600461ffff168152602001600561ffff168152602001600761ffff168152602001600961ffff168152602001600d61ffff168152602001601161ffff168152602001601961ffff168152602001602161ffff168152602001603161ffff168152602001604161ffff168152602001606161ffff168152602001608161ffff16815260200160c161ffff16815260200161010161ffff16815260200161018161ffff16815260200161020161ffff16815260200161030161ffff16815260200161040161ffff16815260200161060161ffff16815260200161080161ffff168152602001610c0161ffff16815260200161100161ffff16815260200161180161ffff16815260200161200161ffff16815260200161300161ffff16815260200161400161ffff16815260200161600161ffff1681525090506000604051806103c00160405280600060ff168152602001600060ff168152602001600060ff168152602001600060ff168152602001600160ff168152602001600160ff168152602001600260ff168152602001600260ff168152602001600360ff168152602001600360ff168152602001600460ff168152602001600460ff168152602001600560ff168152602001600560ff168152602001600660ff168152602001600660ff168152602001600760ff168152602001600760ff168152602001600860ff168152602001600860ff168152602001600960ff168152602001600960ff168152602001600a60ff168152602001600a60ff168152602001600b60ff168152602001600b60ff168152602001600c60ff168152602001600c60ff168152602001600d60ff168152602001600d60ff16815250905060005b8761010014614f5857614c798c8c61518c565b98509050600081600e811115614c9157614c916159c6565b14614ca55797506107089650505050505050565b610100881015614d1b578b515160208d01511415614cce57600298505050505050505050610708565b8760f81b8c600001518d6020015181518110614cec57614cec6159dc565b60200101906001600160f81b031916908160001a90535060208c01805190614d13826159f2565b905250614c66565b610100881115614f46576000614d336101018a6156e1565b9850601d8910614d4f57600c9950505050505050505050610708565b614d728d868b601d8110614d6557614d656159dc565b602002015160ff16613a4e565b9092509050600082600e811115614d8b57614d8b6159c6565b14614da0575097506107089650505050505050565b80868a601d8110614db357614db36159dc565b602002015161ffff16614dc691906159ae565b9750614dd28d8c61518c565b99509150600082600e811115614dea57614dea6159c6565b14614dff575097506107089650505050505050565b614e158d848b601e8110614d6557614d656159dc565b9092509050600082600e811115614e2e57614e2e6159c6565b14614e43575097506107089650505050505050565b80848a601e8110614e5657614e566159dc565b602002015161ffff16614e6991906159ae565b96508c60200151871115614e8957600d9950505050505050505050610708565b8c515160208e0151614e9c908a906159ae565b1115614eb45760029950505050505050505050610708565b8715614f4057614ec56001896156e1565b97508c60000151878e60200151614edc91906156e1565b81518110614eec57614eec6159dc565b602001015160f81c60f81b8d600001518e6020015181518110614f1157614f116159dc565b60200101906001600160f81b031916908160001a90535060208d01805190614f38826159f2565b905250614eb4565b50614c66565b868c602001818151614d1391906159ae565b5060009b9a5050505050505050505050565b60006060818080614f7e601e61011e6159ae565b6001600160401b03811115614f9557614f9561539c565b604051908082528060200260200182016040528015614fbe578160200160208202803683370190505b506040805161026081018252601081526011602082015260129181019190915260006060820181905260086080830152600760a0830152600960c0830152600660e0830152600a6101008301526005610120830152600b61014083015260046101608301819052600c61018084015260036101a0840152600d6101c084015260026101e0840152600e6102008401526001610220840152600f6102408401529293509161506c908990613a4e565b95509150600082600e811115615084576150846159c6565b146150955750969095509350505050565b6150a06004866159ae565b9450600093505b84841015615129576150ba886003613a4e565b848387601381106150cd576150cd6159dc565b602002015160ff16815181106150e5576150e56159dc565b60209081029190910101529150600082600e811115615106576151066159c6565b146151175750969095509350505050565b83615121816159f2565b9450506150a7565b601384101561517c57600083828660138110615147576151476159dc565b602002015160ff168151811061515f5761515f6159dc565b602090810291909101015283615174816159f2565b945050615129565b5060009791965090945050505050565b600080600181808080805b600f86116152885760006151ac8b6001613a4e565b9092509050600082600e8111156151c5576151c56159c6565b146151dc57509650600095506109b9945050505050565b8951805196821796889081106151f4576151f46159dc565b60200260200101519350838561520a91906159ae565b8610156152555760208a015160009061522387896156e1565b61522d90866159ae565b8151811061523d5761523d6159dc565b602002602001015198509850505050505050506109b9565b61525f84846159ae565b925061526b84866159ae565b600196871b961b9450869050615280816159f2565b965050615197565b50600c9960009950975050505050505050565b6040518061020001604052806010906020820280368337509192915050565b6000602082840312156152cc57600080fd5b5035919050565b60005b838110156152ee5781810151838201526020016152d6565b838111156152fd576000848401525b50505050565b6000815180845261531b8160208601602086016152d3565b601f01601f19169290920160200192915050565b60a08152600061534260a0830188615303565b82810360208401526153548188615303565b905082810360408401526153688187615303565b9050828103606084015261537c8186615303565b905082810360808401526153908185615303565b98975050505050505050565b634e487b7160e01b600052604160045260246000fd5b604051606081016001600160401b03811182821017156153d4576153d461539c565b60405290565b604051601f8201601f191681016001600160401b03811182821017156154025761540261539c565b604052919050565b60006001600160401b038211156154235761542361539c565b50601f01601f191660200190565b600082601f83011261544257600080fd5b81356154556154508261540a565b6153da565b81815284602083860101111561546a57600080fd5b816020850160208301376000918101602001919091529392505050565b60006020828403121561549957600080fd5b81356001600160401b03808211156154b057600080fd5b90830190606082860312156154c457600080fd5b6154cc6153b2565b8235828111156154db57600080fd5b6154e787828601615431565b8252506020830135828111156154fc57600080fd5b61550887828601615431565b6020830152506040830135604082015280935050505092915050565b6040815260006155376040830185615303565b8281036020840152613b908185615303565b634e487b7160e01b600052601260045260246000fd5b600063ffffffff8084168061557657615576615549565b92169190910692915050565b60006155906154508461540a565b90508281528383830111156155a457600080fd5b6107088360208301846152d3565b600082601f8301126155c357600080fd5b61070883835160208501615582565b6000602082840312156155e457600080fd5b81516001600160401b03808211156155fb57600080fd5b908301906060828603121561560f57600080fd5b6156176153b2565b82518281111561562657600080fd5b615632878286016155b2565b82525060208301518281111561564757600080fd5b615653878286016155b2565b6020830152506040830151604082015280935050505092915050565b600081516156818185602086016152d3565b9290920192915050565b6000835161569d8184602088016152d3565b8351908301906156b18183602088016152d3565b651e17b9bb339f60d11b9101908152600601949350505050565b634e487b7160e01b600052601160045260246000fd5b6000828210156156f3576156f36156cb565b500390565b600060ff83168061570b5761570b615549565b8060ff84160691505092915050565b600063ffffffff808316818516808303821115615739576157396156cb565b01949350505050565b600063ffffffff8381169083168181101561575f5761575f6156cb565b039392505050565b600082516157798184602087016152d3565b9190910192915050565b60006020828403121561579557600080fd5b81516001600160401b038111156157ab57600080fd5b8201601f810184136157bc57600080fd5b61408184825160208401615582565b7f3c7376672076696577426f783d2730203020363430203634302720776964746881527f3d273130302527206865696768743d27313030252720786d6c6e733d2768747460208201527f703a2f2f7777772e77332e6f72672f323030302f737667273e3c7374796c653e60408201527f2040666f6e742d66616365207b20666f6e742d66616d696c793a20436f7572696060820152716572466f6e743b207372633a2075726c282760701b608082015260008651615890816092850160208b016152d3565b77272920666f726d617428276f70656e7479706527293b207d60401b609291840191820152712e626173657b66696c7465723a75726c282360701b60aa82015286516158e38160bc840160208b016152d3565b66149db334b6361d60c91b60bc929091019182015261539061599d61599761595e61595861591460c387018c61566f565b7f3b666f6e742d66616d696c793a436f7572696572466f6e743b666f6e742d73698152713d329d10189b383c1dbe9e17b9ba3cb6329f60711b602082015260320190565b8961566f565b7f3c726563742077696474683d223130302522206865696768743d223130302522815266103334b6361e9160c91b602082015260270190565b8661566f565b6401110179f160dd1b815260050190565b600082198211156159c1576159c16156cb565b500190565b634e487b7160e01b600052602160045260246000fd5b634e487b7160e01b600052603260045260246000fd5b6000600019821415615a0657615a066156cb565b506001019056fea264697066735822122021cc40e16f1618ae1302eb173630d96409b2a569c18f65f4602b9c8d247d55be64736f6c63430008090033",
  "devdoc": {
    "kind": "dev",
    "methods": {},
    "version": 1
  },
  "userdoc": {
    "kind": "user",
    "methods": {},
    "version": 1
  },
  "storageLayout": {
    "storage": [],
    "types": null
  }
}