{
  "address": "0x169a2877397F15Cac0a16F65Fe6468281597C744",
  "abi": [
    {
      "inputs": [],
      "name": "font",
      "outputs": [
        {
          "internalType": "string",
          "name": "",
          "type": "string"
        }
      ],
      "stateMutability": "view",
      "type": "function"
    }
  ],
  "transactionHash": "0x546a68952f84dd607141f017c279d22332f14656f2de2f3c61f312dd42bdeec5",
  "args": [],
  "solcInputHash": "4aa2b099cc11326497a17090d795e6df",
  "bytecode": "0x608060405234801561001057600080fd5b50614329806100206000396000f3fe608060405234801561001057600080fd5b506004361061002b5760003560e01c80639d37bc7c14610030575b600080fd5b61003861004e565b604051610045919061006d565b60405180910390f35b60405180614260016040528061423181526020016100c3614231913981565b600060208083528351808285015260005b8181101561009a5785810183015185820160400152820161007e565b818111156100ac576000604083870101525b50601f01601f191692909201604001939250505056fe646174613a666f6e742f6f74663b6261736536342c643039474d67414241414141414447554142494141414141636c774141444574414145414141414141414141414141414141414141414141414141414141414150305a4756453063476834625142794345675a6741494d794348414a6e42555243417142714443426b6c554c67674141415459434a414f446641516742596b2f42344e534449453947304e6c466579594a3742785941624c4e72676f676f30444146492f61764c2f352b504747506967316e58507370453253516d627136754b504762523030625a6144544d7556444951424232532b474f7649544a656f5844493673774a362b376a42562f6b6445564749552f6d4c647671394f55734d3169735668614e416f5a6d496f386770455a50467938325a656144696e34772b2f4146314a587836515843546d794866576279576f357442304b436e786d3854354359352f6b487232622f637a75526f45514c42556f4c48705543586a467165695a79684f56543348613579594d774462567a5a55364338524545646f4f5174416d79364155523067596b5850697069364b56656f4b6c2b563048666f76496e6a6f576150393264307a425a4b4939444e4a6d4555545359516d467331443145376d45597058426d71306c41487566722f72644256585656794578616a387150636c613937612b674d3463524b446554334d776d61767265384d426536637a56424946694c685a6156645356466f4642613439656e71726172756e686e70413843756a746141494d4e473378764e795351723837764d504d596769577a51756e594f544f464b52576b513335786e3358746f6e36557562366d6550756853442f6f5158782b55446e565157696a6e507a586e2f786c3743527178774e775a69696943673146696b76744b6161752f326633742b72304f555931745879567a344b6b784e4d336e392b704b3738487241366a414b42503273774e30344a424d6836414a5372652b4c656f74616e58566c342f375a6a6658716c3267704976614872413646676f7774706e33446c67524b4b43595a6b7637413053574c4f2f4454744f4e746772546f667038552b622f3936645a2b2b3758313169534133625149564149697335426176647342316a764f552f7676772f762f6665466c694b79343545384a50746b54504752595865744c33754f394d63543044684134443270466a306149496338446e755a697761345337594562507274742b303352566c73552b7872622f6b446f75626177794978524a48755a393935376166396f436c3963704d6f51566752455a64717a5a58335636383171384c527a5245776f514c535142504876646364414144346a5965336278356343414465756e33314f774467765a2f584c6773415667414741414b684936777841455232313156744f7443682f74465a414e7935592f5647384e6d33664e635751414d664838724a7142436f754f495335533549512b43746766524c4d4e4442376c6b632f4d756d6a6e4977566b3864457a7141464b6c3557796237747137634241344864367a61416b436b436d776749644b4a534e72644d7452527734724d544f6d4d5946564c6445786c6e5a57484e435167595349664e49446a457846464d7837507851664935564e6d7a4d32716f2f42734e56684e6d6a304c344a4b695154683962444776586f6651414c667a5337597a66643330626a6a474e764e665566462f634b426c4f736c7836627974307476564934436a494c64384c7545336d4b57774d737a5a514a794276566d6249315a37476b744a6e72773168584133722b4931504d595466476e3033334b4357764d50686e6737722b532b763337354c332f6b696478586a766a62394a39784c706c626e4a33634a3268455164797645676d695871457a4b7942786464456a3558564c573847307a374c2f41384e784a536e742b55473478683974747645755366636d4f317764542f6e312b6562326a676e4a52464a4b616c7036526d5a574e706c437064455a54426162772b587842554b524f4363334c392b4b4e4a2f6459765652635078455257555a697a314f764631797955654a654c2b4e7a747756366e766b3932524b525767674f70386b77445a6e626670794d4b6e32562f6b792b7a6a646938516b4b4c39304e6a6634685038377636536176515a6f494d4273577776523669566f393673514833395a5a4534516633636a43725066514d4a667962496f375a43506c4e61412b594265726e70416f544d5a454f44564b414d426139595a4b4b67376f627533456c504352584c4f524c4a626d68696436515868337068676452435776674f37472f646b4d4b417a435059504e416a4c5874736239447767454c4c7058656f716e5748414e4873737661476b56635436304177504c5745664d6c53683136756f497a783442355a2b3958473173523757454976566f434537762b31455878586d4761626458624f7550596f4331564e344634706b7165385144796f44577953546d3244305943386155546a566e35484b6e4d6f356e3675556c454f3570424d5a33774649774d6f68594959466a4f795a316777564a48392f2f36572f31475549656f354c515271527a67737769364241386870686b49316b454541316759587643424b334c4351336b446d6c744a374c56786c456d324e437552436c7870414136624e51665341464849356631554d49452f33365359482f6c7759356d6e4e52734c5274335a62794f324a5a7442433648693178355271314f35764b4941454b3078364972354863573348444244684f353047614562424e517071736151566b3841694e7730736d44536e4a6f617353735a697273713270364a563159573165362b68426c744a6f456c5a464b637a63327878594f4b7044754b624f346c4877656d55312b416d36724a5945445a4f6f32706d4b72596b49496b36417368756b6b56353931553573717a4a5474717857724f57317a6d42484a494f435658575651516577496f4b644b343045546e67714c64415a4d414e3044424548477355793236524c4a6d3049313344515556686d4567386833715954713373327371365370374431504661527132766272753465493071764c74647833596a674c50634e707867427241306357667056494747692f515236455843664354514f486d33594879784d4f4a5861587170504e4d39717446415152414b735846594b374777586a49474f6a63636d34736564526f41625841454a364f685239667a3650456769704f785a4f4e31514463304e6241356147594a62336145443168655668775059536d346b7868686e4747343334622b493646367378326e707952504a594343434a35576f516b4a554b5246554a5646554c54486b6c51546b6b30525549306e494c386b6f49436b6439574276314956597265355a70687a345058547755746b67304744496636306247324c7939466e69534c427972776c652b597763536a4243454469457743414d4268457769494a424441796d67454563444772426f413473337751716b68636c2b6a7055566c54796c566d474638736f6d694b347941515347596c4a4f69494a6f72613862335073353369576e7a69494b7765674644336b6f6a5a66346d396a534536696f48753166537449526470474534666c4d3642507872646e6b5a4331464c315a5944616e4843384878696e63523154666543356d3149503357636d42436d6f784a4147392b54636f517837356e534a445152784c3341334d4644636a45746c2f526e6c4b41384a445a2b56794f4c58315576426b6a395155584f796d4c796a75335877642b725941594b4469475748787059676d6f3157755a7255775051354e546c53454170784a6178766c4b70644464434f524a697962594971373775304a73316d755243484e566f755a647274565567684c68626e5a616f6f637539784e6658534a3267436a367867436662635a72476171355737617335564c65535a487663534e6e314d4d6c6333796857744630336f6462546754786c3375504a495377724f7459426f736455514b526f5536725937545a38677a324f594f527032346b45695369376e376876595956496a5241476d5a42444c5977566436524a324e3164504d736a6b56724a562b35475361785951695969685679323879314a4e6c4531344e47506534722b77304a6b696663666470783762666d702b54585741726353546d6256665162716b6473565249486b31317034597a646c3978523232747655642b776c4a507542646f796133324c674b744f664364704e6b30513047384430546d4d46326f4c775a47696f726b2f4b5348646150394a3964724d6857553835794f67663249366d7959656d73347276386a326b516d754d6863397369433535524f6d626757553946414237536b6a6d47444374376a6d726331654d344f4d435138517a2f61777967336276513875636e5a4756343567676834455547656a46456261363752324a6241714a6c79616b4b34646c683048464564776469357a3154304145324361524b69365434556d4345706e776d4456707046434a7274513445356b6e624f78516e73554c4a35753076795145596a674f6b4b5a4f3146494e69755145346a674f734b37756d4650736b6e4f517038414b455550494c426f42515467684966514371466d5a6b4752536c587a71686f4243686459566145454b6864675a7047674e59567137764143644c6c52624e6e5245727149672b6738644879536761364d643161674b485a44646669426c706453626f5677317275686f33637a626545336d436e337444654458527767783266445431776b6e76674c50664152653642713072517a51313064344d396f4b45586e6e4976764f5265654d75393846454a2b727142666d376b2f77736d35666663586956782f4352544e4d382f4c787a304275665037366b764364744c644d6130665174326e555a416d476c3339783346383738525a2b4e345342684d4e7078516f534c775264306b5038593055554a742b46464a696b43614b6149783645355155753744546334754174454c42414e474f78566e447975414b702b3152717063424f386c563879756a624a425264476475713533716a624f6339796861636f73334f794d3057794e37764d6c4c417a7448585a5572312f2b367267326f6a577867434b6e717978742b6659696a38324b6475643050615330364f3379614631545046744d787971646c58374e6d624447394c41645053686c544c3274797a6539546466726a70306e78356f793858777845577654326d4b614c366a6c54513648396e566e337856596d356465593477796e746a5a4c574a334443652f432f44336746442f517577623176514f4d6b666249306c4e7a365649697a512f77786b6d3157613434686f644c443845614f624a4c724d3768553576495248472f446a364957366f6166317767344630586f466a6e784e694459552f54797a6271466b57545a31686e536d6c674a5062756d7779344842437863486b75724351637775317938343941323963544664644277354a4d33685342527276337437464d57714638756a6155356f734c64662b72594144376a4858683745572b626f3448554e57434c714f4f6f574441696765444b696943634462375a41746b687854644e4e6861356779495a7130726a66395246424c594a76715a316737414949703445744b6b6c63312b597a69685141597972775252434f4d497a58625238327a4b426d5558684e4d716870575451476e6b3256684e3878583169357441683843582b6f636168635a4e7a70477257646b5168695a78556a705969334776594d72544b5a776e564a5a314f72474a304f775461613745585371492b774f647645493267586a38672b6a6373534d324a4161676f616e464c68497857706b48354742486e4a536d547868345a6c6c4e6559634f6f345437596d395055735664707177316c73384e5435643967327a74675165624b642b59334c6f456a45317041547649526f56526c37565a4851766375376c2f42493475794f31524b4b504d6b7161384b3670436342445a366d5368544b6d4a6d50563250516470736175786a646163395773547a5a316a4c4e5961356f6b3969787561784c507873324d57356d334836725752637039682f2f697a7a6e456e63424b5a7947447161517847365130776959537355376e4c4f786e4c4b3730666d6a76414a2f6f6276377a587953372b416d7434454258585450732b4d3458715949505435567236556c6e7a6b796a584b3436324e48715545756936677547776f396e796a564e59566c2f4c6e74527136673834766772513052695978692f6c73645656342b32766b6f2f566262574f68657a4777593432392b5743426131793375694d637454414a73614752446c554d7663637849742b654263584c624748643357513751436b7474714747726678746336342b367132593044636178706f617955626b6b59624545304770675041776a4b47567164756a79335264796356373159554c4974417168624c49446b6349343451576a7861435a4434346454546e6456776475346c6b34643833574156465449613353794f55696a735a305a78424e48415937703842505a54454b41497170326877665831724d742b727454494e2f6263744835316a45634d5746636f6a7173466679732b7879563338726d69586b486c387a793250553458486531734d2b34395345447a4f59326f327864427151503830314a4f375846476d396334556f3868306d4c456a70745766336f6b3974434c72327969354b39497a466e3266512b41586864643769616f45616969647174716a6f72776a374c355972655839376b3846733135346c7050354831594b30504638346853356f664f362f692f557a51693253656235632b486658622f32635334534a4443356f365076464d39474630626a6658577568322b4949723364535371327850667953536e6d615150537567647474377a6a59714a6e435a32674d31686d4130666b516e4c2b6d47364c73654431464c484455786b4559516679613255417130454a5a316b482b69674c4d4452335168346c6d74574c56483757574e465a31306371646467724d342b325264546542543363465a617868515671324f2f3874616b2b4277746471326352796e414a692b4f2b66726b4d706d75477633495450435353372f79797156525a6a726b656858787649442b664f34517546372f6b7970307066704d5834536d4761594362502b674876706159514b4a6746617461465943564c47636f4d512f684b4658666a6a304a5a4a615663787255456c7142564749783776674e65546f326630614462537762694371656842576958714a43776170474b716d33557169455944643758694f7832475369635966334236687658453064374e325150504b6f736b49316672414265454a7a76544a77796353563666415a71746533434955584f5353354a7a6f77564d53516d45484e4842773141644c644b674b667669374c4d6d6d42564977546873486e4d725a446561716b36736966786f35796938463651592f546462715471494955384c416167445543744e54445132444368554e6c5a4f55534e475577386f3162346f35622f58487972395755327354624474335145483265546b68316f58715535306c756c7953413572522b395348547047516b3530586d4977586d334648376568333638394a6151725157426173746b51783855366a397953676f36514d3575734f746377437251523031414e59597351727532636c566536596c4973726e432f56322f6c365a6c464c327757517a33434772455348684b673755693662785043796f327a75507a784f5349757249364846394c377548523368576c4d585165783250566f2b624c4b6f56526f454f776c753971506f624a4667564e47516b693849373853396261516951764371664156545855724749394a7a394a5036544f3876676e4d743961556e592f6f4b465a62446444456c793458754f6f4d6e4875315a313451566769567535435168622b6d43346a316c6962457247774c43536533365a4c514b6c4b715236734c445a31436f63746637777754744274386a58346a6c3948714e6444466263736a6a3478496b6c324945374e7a4a666475417478574c6c506c432b7a527a42672b78336d3245386c71316d7a4f5834393369454f58686f49447072374565495365414a337a3948772b4f2b5345523478626f355872693233517064427479636e486e62445449764b506f5644486f4364776e2b2b4648762b4170777738376a48412b3744375449394d6e396c48735672494f4430755037446646433336566d6e4157566c795257757a305244576c7a49767a6f59345148666b754e4853673242674441594d4f314b2f4a75696442454f763537636a74697776315a756e467641347a527579537178486f413449684f4d6b6836766357617859655038365850557458706e46624a364457344e6a69692f646d365a67636758567133474b4e666e4c734e616f4943564332716f44714c6276666c6d745a695244442f59635963317a584f382b5a616e4a794b6a4a7a47517363527050622f78516e5a746e5a536649725454616a475676764f346c525a634142435353674549786c6a694e70366654673235734f73674771624753594a4a6c5351454656646554723438674b316764517776436b454d6930627956384177553131646c51612b4154694151453141787243497352315842596e7a37394b47584f586d4e677a755551337a6145714663766b4b456c7869362b59784667307a5a7465754a52635449494359394a4b70556f4c5642764130326671486e6a6d4d43664d414a47496e76766733726f6b4f6e35625a4f703966596577445062644f394d50777250326d333638344250657a586e48617958562b5266764e6a4f2f33637558626d72632f6c67373577424168774739414d65672f33672b756c735173374d6549505647776a58775a66444d6b796d51467a2b3164656e4e33784b786b7533713566504a456e4a3976426942585850663137576a2b585758763850612b76514944626a3038434967654b764630594b2f48757a6b72587a6c5a754e726177732f3473394a345a72304e786356684a45623232592b31363046324569364f443570566e3771543063427376385a50776461346e6650434d547247326e36486e5a474237674e63344d4e4f576e7037395068354a43483253323179302f2b77465732467536504b326f344e6c6c6d4e4468614144427770646a7734314e42794e34477141394f4a3669716c6351377a613338387435576f7156633047614b69424f4b7632747352616a562b762b59492f6c38357a67425465416b47666c502b664141534e652f34706d2b746d79773547376771315172616c5345566c6a6453476d703259597675386379506637543873464764577034744c5657704e586f784735507471516d6e54497a664843315342514d74576d6e68417871465770384d46434e6b69685470767655585949446c4c704d54643841626144304f6376416d68773747553667616a6f714378714454446f4533483645747952657953504a57526869513276486b3136507a74587536757245695a68564c5638657a617838306c73574f58476e6a3845486271742b4c5a36687777637541635a383637584a7a525850314f64395565767a4c47554c35544c747054556c4a77344b69794e7538346a6849393551503663536e45795273664e42695652532f44593432557a4869644270644a576743462f516a3542376b41506a6e2f31494a5345327a4770694e382f5a336d7a51642f3956364c4941356d63445337784c4b74785372356c7248634376552b6155784f6474506b397634492f50673332775862446448345046777156713150797337577853517053436d4a426357786c45527373336b43345a3772756336335665454648336433794b7779504c76626a35506678505561474946546c6b3263334545685856695867524a687449736c4263703146724852794669474379526157496a70685156314939694772635746536161387742686d62415333534549534537454d52385143316f757736542b315757776539723079587875646b594659426c6f6a54332b4d44464b6730644c6c4b612f75332f577a544267714d32363354675272552f5347615257766e414a4631744f656b66617a2b79634f414a7a39425074642f4a7057456372326d2f7863396776386e4f4e434639563035587034354861643775324c5a7a4b4778673244433138744e346e3939664170784b6e3775766f4779623473707a4336785278535a6174414657692f6b4a71454337452f3766702f4e736c4c68596a6941745043736d5238555230587a76664733485775593265584341355a41783146495431556c4a54302f4d3551486e34392b722f4f6d6d2b726a536b6a6452496d515554515243534c6b334668744b676757617151665835524b3575446b623456414279523059564a3255464648763631734378326630566a37704664696f72322b775056317176712b596532793674536d67463433557a7663594b7456775633695264393158526a3561654e4a31624775343575547a437a654c47646153464a506d456351555248637241654c7652764e6a7673426748754a6d4558456a4b346a66356d6d76476d346f57676b4a3559344b6a7034475878576e6a626d486537785473325a4d4273706a4c3638724e4a78732f4b59504553725a492f754a566547534f61725452565868623335644d666b346153584a37494943365a4e4d32724f6c365a502f484c49596c67597748444d75337a6e53456c616d755378616f4e4f744731336c3775315455366c5851304c693136507442484158627a6d52626837784b4d7935385031626f65324e3841656a6b386d4c4d4935786b2f507973784e4e4c387072665266742b2b526a765a74754a5771396c69552f4635316c767a6756356a5a54734c6338644e4a743751546d585a574544796d683167474b59766173577943704d695a30564a2f44566f6b324e7568686e43384273302b67304d5331594a5a7777465441393039684d487a4b50793348643179713374622f5a7638334f46596b5965627a624e4a797662472f416b793579415369383045532b7569655271742b6879722f58324371357530476c325673552b2b376156747938615968635751512b2b455671792f4f315149326a2f766c613374384e444f58337873384e675945786d7975645a4b4a74755371386a347039586934592b446f6d5935554837475434617373536b794b623273544b3535534e5a6f4d6c71313755456b7a6f674e736635695a305852302f70443942774b523868594379626d4d7363376d38714d565473596b76737353643659556c72423471646d736a532f344f6c58706c78454e5a765a467145742b444c593868544f7876384f436f454d302b58446776324a34507633772b6366353032656447536d483377397233623067386d5a516274366670343372754d726c54302b44532b317153733354383844642b6a7736334e706d67377649316161326e365974794a375844343968506a6364624d7446616b4a3972615a416f72622f47612b31486167377a37656174447278483739347648666656536b56482f5151797262474a3775706f6c6d7369377a547747626138426d326b32552f7337506b742b4b4e7a79647267527448382f74377764577235637059634f4c3165624e75674573634130414666683267494349347a6d77324c4a5670314f73756d77714f5556356e3244546d69304f344339564e3773576c536a4d2f54586464364d61713133583650647945696a72667a324c66665731626653664b6d51746b306b4278513632324e486936336a2f376659677a787a6c797067455a34625533587870486c6f6c5446554d746376614a4748512b666f786547344864444a443442646b63613058696b34323948424c65734c7456715666737555576b756f7a447a434641334b396159563964346c2b4f63427443324858766c3559656d4a44437779532b696242696241303031336d50344a3756574e4736662b43654c372f504d727434734f5a3565314656626677435531573843772f32426744504a4f694742376a6c5a544c7564674271562b596844466761334c51444f6c38654c2b6d734c383555653472624974366467555367717777506f72462f4143625269706171707656777478574971467867655348656c326a58654b43754e5679676f6b6737746f4f70365a4f4a786b4830776e7373775469496f4775714c73544b2b37497a523531327554585651317131415367736a513938623258376c37366477357a6c37707835356b55752f69327547476c71347561422b754c61374d426d57796173354242686e656e77674b44416a6544534b2b7a39374c70574e364144416a67476d5558646f7051566d36586d373058504e3734756c6f4267422f6744524741754b5a714a3777756377666b394c6932664a355a784f4442374d65786b4e677a4448473743612f366d6a544a6f635a435a47372b592f6a5933524739563856553833732f6f785930644f596e536e4b422f48764a7a7849534b51546f6669426444524a474378374b6773652f565447443035644a7134682f6a48306134676733527944757a3759597758477341733433365a415a333948426f4f7559794b326666315241556e646a364d6a2b77352f4c5749724d5755314f366a6a52726d394a576c577330354a77774157363246612f396b4c346e50646b744275352f754e6a6d614c616c4879346c61693058444c6c66344943742f4f6559774463674f4d4331382f4b6f73516a675063514a77785a7a742b6d744a2f7852744e7676783773372f2f5a7675623175657641772f666f77463456504c634854784b376f6f387754666e51674865776e39567158546b344d62317664526b5744392f2f5041454566346850653049655946384b596e624a467a355a4d6e6f717235776472354b554a473142704d4f6e2b76676c377652435a624d444467576e482f30567a4f466b79476a43632b755771636d7569344455616541555a414a78475439756b50564a34336175774d446a4f586d7169587275566736445445425854566a576b357256504668642b744f4b6d577773444467554d546e3137475342365653774c43612f78526e47466c657672784a4f484674424439766b4d30657a73756e4466577a38305462596c4f6a7143376739756475734b3954572b38513951767631705464362b797375416639657667442b495445315851676c67325a514c41594c536f646d49474770612f6e537378626471682b58646645633873664831736255636b33377376364e48546d794c68525054476e46586f52656e3332774e716878614c5259434a7972674f4d3165794d3370754e76424a534e486a446f4c327a5a434638513236566431583272613532313069422b69586c6a6268344f6149702f494e7046337762626e6671534b6a6d7768324e49506173784c33596c375766535478542b6c537231683834734c454d4178697833356374764579323553692f4c65386b684f576a526a6d56675642325a724c58566c39715a31656a2f6e7a56737550564a7a58617965357578724b346d6d4b716f795233433457416f596a5037387967644f666c415961336d662f50707268434a68416675355a74555569464c5a51306b33534b4d5a4b655133534454792b677366767a7556754c664554566d67395631714e4731616d7232376b7a702f2f45374633566d54474b736c716e70677a75337475396d706f47474a6d416d4545394f623745482b45746d53436362746b344a2b6538717a417475363874574c7870576b6f674b54794579676c654b695845485a333671755249625830573365675542582b44537633465a546d704a4c6e516d63666230354d67696f3875352f6c67393058415269797865376369454c5a5a5470447657714259462f7870386c3556396632754c7362792b68306464464765715a3946485a4a49454f5031382f4f7a2b776f4d4d34306b5a50573264346661437163596e6f37454e484445337051704e397a304a6d74743678716630364759306e37426537485345534b71444f6e536c6f3577504b764743765a574779644c5474417a75546d376f727575784d625446692b45634e756168744f795368504e49372f593255562f756a6d354e6c3946776b4c61716d303546704b59703559366b332f6d776539506f5856485271584b6e44442b79353233474a61376b64747472474b6d51672f322b417363556b537855754d682f644254794638645a77706139676237526c7241734d426c526978796d55705055557149706968533442316e614d31354147516d3254794b5a57355a766d74587855555976376979646b596e6d7063726f6375327a56784356506a515a696a41356b7150424a42377536643730363474502f3743754f546e567a52686f5a516e754f66595a656b6b3955356467433575563378516c716e4f41743150505465706b41454f753464324c3932394f7a67414b576f3639747946434f526c727171464b52736d5a587866334b33314e30307063744c6c45702f7953636d4d424851736e68477874733259393837364c564c66396d594d4a37455130576e4149646e587071395078367941476f592f436179484b525866584457344e46557a4538494b4953546e3268526e6378704a6e65704c4f45782b6a7a44374d48357a4a433769477544482b57756d74775575634d646547676235504a537350627634426e65367878636c756f7257726355576c636546567336556b6a5257746d5635625952745461533456774f796e564e75396168724e505175626e4f63667a6936422b5a73572b6d3131353151334a6374744b7570786769635a354e524d3939792f384446517653584854557771396b7a396442535a374276693668665a4a6b5074736c5167456150364a4b656f362b6c574766765a567670674f31354f48716576646a65526b4f64682f32636368576b4b65367467647657706a584c62637049477057616c6556785261642f68664a3744325759622b656b2b614c594b6379504942442b6d37644455564e576d3441534c385551554d555a4547536c592f5a50556d6b6f50524a6c646a50616274312f3069785564416f7562744775356275324d4939697961457a4959447a4e56446e4f36524155785252516c4871385275506d2f79627764786756734d62346455784d632f4f71506257384d743941746c583563354664506f65654f666e614b39373535676745687a675073744c64726774594764516d4d30587a766b7a6f38624f6e3561395737336e7873626d557a3348694953736542645a36574572322f4942456c45762f4a634b57636b77523677553151376b694b616441486a767372526b796e78687563756c38726a4433586361696f3739307a7539784844443577412b4a4444687950384b32695a66343237796e7332623557563154426559753832586956342b324a506e6e314b2b38463550694f332f3155733944542b7353684c77514c4b2f2b4f30536667587655454d47636e782f74365a395a5175416d447a6b326a4a6d6d70425759776d506c786d41497247516e77586c515863487572663355782b6867394e44303758777079666e7774672f364957517874326572547462424862346f6438646a4d6b6c6f2b5a4f33782f6f4b6a347339586b4a764878542f6a33312b68552b785365504876426466737a3244696b356c7554516f48594c7a387168677375433874552f483563615832614d6737506758597a7637367470587a6c71556f6979697741697749586f464c744f35355231576a444c5579586e64536e6874454747355a306b7152577879547962625a5874642b2b65506755616e4d4e503335622f503843482b47436866476b7276363037346638674268554e4b366c59616a68516453777438686c324a58644c49344a54685477517061534a6c41356250652b6e7165734339392f64662f763861586f7635667a6f4a75347539476654515139646e4e3362644330767669665476764b6b436667536a6f3945364d5048754a6a324a4d316a6c4771513045416a2f2b736c524b67686d4d735779447756636a3677686e744d6b596a56564e4c65757155796a4d636835614f326e6a7371764f4d4d6f69315277454c3147772b4178772f78426d366b6b5a53546275684f7845617448455331786c6c336544336a515145433474475862774954494c44397867304457756a58526466794338456e2f4a342f594a3576316c38412f502f7439345662364f6f4955744448387170563646763474733364442b5a50586e4c616a55526f484564686c49637a312b642f41666344697744723564515a4634485477585a702f734d51727256442b77316d4d417661716f707568734d4b4163584f41794d467a6f6f6d7a76526d516c75414a52596b4a636d71626f566e6455434f6244524575314c7267713462716d775a53485845467744614f505863565949765a4a4f48784f736666616548727238576c377644697263593430664b4b4d614e46664a2f5a55486c6557416650532f4b675a4e6d4f586d546a556d6a6f32416a76523751572f59576b77767a68445a66336e5351635552474578746d4235627a5668794c52466472654d534e5a41702f5170676d46485253684a49546641774238534e6d787367506c706b6f484b4e5270614a39414562383375314575574e416a4332466d6254554f732b6e69656952614b36524642374a4737515473644e36527265466944786c6d4a61734e677241386e5245787041563154664a65313959347068413642503750436d465338546a327a466d71394c62303141674a79636463676e64546a326f4d6b4d4551495a7364764d772f783069456f4d4f424b6f56505979356f7977364c414977534b552b4d74716c7075315547366d486d65463950315278697067643944724e67586b304d77386c59574f6d695771366b543857494a6c446930334f63344536676254714d58766f6d724d7a6e7635634736307a767a6e6a6a6d655979724658316f3377765648465137732b716a4263735353446b654d6537764f4f497473476f75736f4e366d39746b4e794d634e6c564463637a366b50766a574836466f53455a744b6b4b505945457a63497830636c4f444f6c643677467757696779334f44656a63326f3748454f3351314f5a5a4274706b554d5633334b4e45675956394d574b57706a35325579496957514c73526f734a6774766a796757446d3441496331367952334752313647744c795a7650687944786c50507262414858626670567274473239744d34346a7a44434746347044656737456f452f45377046536961795830792f494a393155745961494f324469325762585137704c7979506342502f4e4e764945485456476776752f52313075724d4b6d6e3952704a434b526f6a514a58385157645a6d2f716c344b52534959466b585073334f536e695278352b33344276506a3634737637742f674548337570566c744e75713237345178314744716279626e5553696b507261514d4544564172696977693748422b73726f3731485a374e755656386a6d674849367a384771596a55626f5658786542524a64686876517439547a68494c324136643631767134613067396e67565441316c325a53363047486358557953447a717344354169305a3755537458735650697a7575495a537a75547a6d794b435334634f6c5231492f392f5950463851436b6e2b556e6e56466434366f5345376c54715a6a494b63316d47354c5253517a354f7a2f6a496e632b655776666775314f6c6463514a34654c6c58434f2f4f6d5247796635514759657974753474716c344d464557635148444a2b633059504a6b7642624b766a62352f4b47494e7a70576356334f303371636f6d7a77663374426f497a6a41374c5a6b6e4b4567764a576a465a346342646e536b4a6f384750545148354f363677476645394c396a67444f754e614b6a4b7556616b43686858454b622b71557a33307142745472584e5631443630324d3149316776545041664141623939633536666a49593342684776654661692f4c67475561335441336d6952697942745a6f6b354e69757849622b33524b435934683271476938486e694769683979635645464b387554534a383946397268486c4938685850536c4c586633735842354a546c75454f41447471396550487679674a386e4a4e3863452b6f734a455942684e6743514b556d556f4c667548445343594b626a73786b6e3270392b62793069676e67506e2b4f4c545033644e716b70674c6a6a6450686764504b696236472f4b3233755a44363532625670756d7a52656f47534a7763573739743453554468575a6d4a5a6779797631304a3731585a703649704e2f69477377633671536f41434a68726d61553636745a62794e436e317734574f724f702b767a47366243386c58416b794a6c593058383950332f4b4561774277453334686778784b6839683046474169564f7479506e3949696b754b412f7377705651475173764d5979385a4677694c4c466678676853736e38395274626551376b7a2f4b6e39786b763435696f6a5a533675594f727a685655307167436f5767707a6d5857344a387468346f7746535648504c782f64344d7a3873746b5947344a33526e352b6f6b67506344442b41597754586e5131684c415a356f4c524277526e3365504949716b35565739644c645a6131724f706171486f50616b5172704f304a6e6d495a717564534e4d426641573476424b49694a436a39356472486c51686e44394347744a6262434f7a44446c69433545514c554358325071656f2b38422b5765434c7a372f36755074494d4a6e504b30594161554f6f2f37454b5130574343484c314142613745784a6772633042534b6b304261302b386d44796256464b71356a726d6e56767573474556647879486753382f7079726a3051704132777559377047684f33586c35346a4b51785a44416a6c65355839732b645a56713634636130686a6a703275633178436f6c364d65395555652b58324871454152587743776345475a7963587538723961532b38397176514d4545317a745146566e65484173554e5a76782f692f38587a615a42656f6b5051767762676677427a324e3630704f75326d4c3348366a6765376c614b4369794a6a676d556d49782b664c7466664a39502b3872644d3749586e344b5638774162355673593143493246364473436652704739617a774571627577586d4e6c617849396b4b4758306439317749632f565279364c76734844534d34533248546d3369757437347267347a754e54747363575334455547554f472f4e5770572f613743516d30573761324469356c317138716e6c4d7a6372716a55397a515538697050594f306b507947726d7345484f484c78586f353642464332344755576b506664666c436130426e326d776a774237486f55785459364a4a574f764e3264735153623137507273446d63394d333256625570346567342f5539396547494676486d5938532b78345757715852627371526f3179746a417965513736487942514339575055702f415832356a746d3577563839796348546d656f306c696861556e585657766d672b6b73494e564d44686d4b57535565516e7a36473671644e3361536b4156484f596b32474d50444477446949344c5a776d7a6368437a4448756b31577461586a53524c3957386a77377a657335444e5a52626f786846374135616c55684d395335414f5151393374457255764e786c514e56482f67305a364a6a544c76694170496c70704f4d77476e464d6c4a702f39716338485a5153727457584241644e6c6d373359446433653732654468494b4a42466c4e6b79306349534830436f6c61374b584339344864644a57467259565473713079734c4a58334d58754f55526d453256664e7839642f64335a78353072454b355569566c4942657431524b4757784f4c74394d7645694a7757564e683870554630616179766535772b30354e354745535734614f747373466f726d4e65416551775737494236446a57396d674d467476715a6e7664497a5441636a524e4863364c39505463484a5554346b436c45387436796c774b716b725a3244375356337567524b684e497a534d7951467655393950334766744f6f584e794476524c73696e624b33784650585838433443322b6550487338634f3773394b35656d4564554f5a652b6565495a6a7558393647386247366633316856706a727142375772614457687557616a56686a6232416444326274624d4948314469446e4e716a41534f536d4936516b767a346e6d2b362f4d63557a5a43574c4e35496b4875376147454835787955776f5832624d32503238545a4763574b437644666b794c6b6d773050637a424f4764634a5465457833434f42764d2b6271634d6b44486b635866414a657075497754555837576a4d3564436e6c7457386d77564f4f634e6435654561327749306730324d3455504a4b42376d316e71785844376533456c367a30655048324d592b4e537358546371394c75775141794a325553384a7a7570703638335a33587a6f6c2f6a3038634e396b74716a534d685345617735412b664f3975686b35515952795a69574a4539582f3745443078712f544443346c776550355435596a7469514f424754486b6972793147337971557443626437526c444a5a5064493348687173756f344f304d3358323130707974665553775a36486d50694b546e4f64446e7970424a314b6753463346536662576b424565596a302b6333794a7950594253554e457a50554957464f4c6b7346792f617a3051655573746a6436753946695834574339504b7651323949795a55446a532b494d6f64456a4e447451483075492b6737674c44302f516d726d4e4d38416c41494c4c5249354745554b65454a627a2f65626e385472594c57346e46425631314c64364839332f427a6365414375694f44436a674d494135474237653775726a514a486b654c684e466e4a706e63375477594367702b6970756c3063683762634437704c6e6776414a424e4c6a4a584130556864336f423571486b66455146446b656a317a7958464b716f43755a5975345a423576416d754f6b53557a562f377a514f665659674461624137444351704b6c4b714a716678753564744a55755a555a5763526b2f724530475a72494835573054435853744c6277487742706974665a386559687a64392f5968454f482b69796d694277454c6c4730367047526e425561396c534c4c32743547473878625937327a50616765314c35364166316a394b43414246462f5779367a6379494e6665397076734b38502f3474354a507630763936397254674a6b684b59596754543976366342524164764f474d677a4e4a3734616a6957305753594638666e766a4b717778746341756b30486e652b41787130556176423942313864685668412f5134313733777276575054447250445938425a2f42382b4a4247572b63444966684f72675a2f6f63557144424e374d6e3168375743774a4f564f336e6768333659567a6d4e774a585741543553342f6c5642375368713974693247787672474666577443554e3572684a42534e4f2b6f4235317233304f34787542393630555138662f4d716a356546382b41573241324456736f45364965556d4a5433466c373448693445714c684f52363651794350425331434d344464476d3365486231684a672f4669584e346d382b52546231776c6274506e3957423263336a56654f6b647746302f697341734351545259494565344b706f42414c4956455231735270326c453970507757412b7a4d315441796239364f775567446753514869523877584a7346435357753650385038676d6f2f2b45556b464c38734568612f596a6753666f7463375064624e63544e666c7477664d65767952542f2b4a396b6c416e2f553879797a2f38307564783939444f303876424f33697168756c77754830567469563470312f2b5064657266386b2f6a63736c66456e683964565a455773557136436b564b475145455335556d4b6a455743724943644173325447357945445136483356354d316152615a5541534f596a7a417170475747624b49563438794b6c5653386b4a49706f4152683679714a594e4b3853693245546d4e6159484a5a715747776644665a4f3451594d6e3658776767755a7433653550435a4952316653774d69676942697352696971373131454c5965596a693959706c52795a646d4a4d67554b4a464970644644536b36545743424f56706d476e4f776d6956427a685a316b53694b2f4430705437324b6d50454a794f416d517158517a54305773424941784731426b7975544c5752415156796c535544424442686b78785a4b4631444b4765685654687577415641497655563664725151436264304e596552425536656362743267564c3753594372646e5a46516355565a596843416f6a7444514b657844764532727545477079674f4d5933754d7733717a4f4330597757577035347156626263554334354351567942524f456d69566d636c49676c464843596e47755548486952596f534c317a593646456f76694268534843706b35544156787343525a49676f36532f3546567078777a3339316765316367383671744b427758364e32352b5a736b554b677372473432647a73484a78633344554b46536c577065506a5838417269676b4c4349714a6770346d725671646567555a4d4555314a4b476c4633546c3442337a7455717a62744f6e54715170434d69435246716a54704d6d544b6b6f324d676f71476a6f474a6859324469346450514568454c45657550506e4255494133516f52335130495a46565452676c61306f595a32314e4742546e5368477961393973353762377a314f4d616867525869326b33377436314c537275337244644e73316a637664756b724c31533654784c44616d5a4f2b6c4f756450756a4476727a726e7a376f4b375765376550576d324a64572f56394b3161766e4f6464666455763069537a444e3151745a482b446a61684d595a32376168622b66742b3668436167627542586d6a3664515678353768386d34374a536f656a7852687354464b6d48446a5150335776766b4c76596779704a5253777a365067686864346d365548775a775a4e583855706437664d49576958467333664b74763267754d6b376f6578373353316645705531735a4a5653653476356f345543596c756757703164794b766c3670624c3475392f3274686d776a464951413da26469706673582212209abb6d945fc147f6751beaaab97d603e4d4acfa1cbda72e0bd38888748cf399f64736f6c63430008090033",
  "devdoc": {
    "kind": "dev",
    "methods": {},
    "version": 1
  },
  "userdoc": {
    "kind": "user",
    "methods": {},
    "version": 1
  },
  "storageLayout": {
    "storage": [],
    "types": null
  }
}