{
  "address": "0x1394e7948C8B60Ed7370F4C5D17eF1864518985D",
  "abi": [
    {
      "inputs": [
        {
          "internalType": "contract ICorruptionsFont",
          "name": "fontAddress",
          "type": "address"
        },
        {
          "internalType": "contract GmDataInterface",
          "name": "gmData1Address",
          "type": "address"
        },
        {
          "internalType": "contract GmDataInterface",
          "name": "gmData2Address",
          "type": "address"
        }
      ],
      "stateMutability": "nonpayable",
      "type": "constructor"
    },
    {
      "inputs": [
        {
          "components": [
            {
              "internalType": "bytes",
              "name": "imageName",
              "type": "bytes"
            },
            {
              "internalType": "bytes",
              "name": "compressedImage",
              "type": "bytes"
            },
            {
              "internalType": "uint256",
              "name": "compressedSize",
              "type": "uint256"
            }
          ],
          "internalType": "struct GmDataInterface.GmDataSet",
          "name": "gmData",
          "type": "tuple"
        }
      ],
      "name": "decompress",
      "outputs": [
        {
          "internalType": "bytes",
          "name": "",
          "type": "bytes"
        },
        {
          "internalType": "bytes",
          "name": "",
          "type": "bytes"
        }
      ],
      "stateMutability": "pure",
      "type": "function"
    },
    {
      "inputs": [
        {
          "internalType": "uint256",
          "name": "tokenId",
          "type": "uint256"
        },
        {
          "internalType": "bytes32",
          "name": "seed",
          "type": "bytes32"
        }
      ],
      "name": "svgRaw",
      "outputs": [
        {
          "internalType": "bytes",
          "name": "",
          "type": "bytes"
        },
        {
          "internalType": "bytes",
          "name": "",
          "type": "bytes"
        }
      ],
      "stateMutability": "view",
      "type": "function"
    }
  ],
  "transactionHash": "0x0cce6b9c4f10d56eeb139dadc9a40d1d15604f0b6e61de7efc512dfa929e46fa",
  "args": [
    "0xFd6D660Eaa86f65b859631D70897E1b2c391792F",
    "0x32651619c1cA8aA3a372f13Daa829D131dE92a19",
    "0xdd62387516437E814575D003C4874dF638A318a4"
  ],
  "solcInputHash": "fa1e5bf847c40fe5893b9b66ec44a2d4",
  "bytecode": "0x60e06040523480156200001157600080fd5b5060405162002ac438038062002ac483398101604081905262000034916200006b565b6001600160a01b0392831660805290821660a0521660c052620000bf565b6001600160a01b03811681146200006857600080fd5b50565b6000806000606084860312156200008157600080fd5b83516200008e8162000052565b6020850151909350620000a18162000052565b6040850151909250620000b48162000052565b809150509250925092565b60805160a05160c0516129d6620000ee60003960006101950152600060e6015260006106df01526129d66000f3fe608060405234801561001057600080fd5b50600436106100365760003560e01c806390accf561461003b5780639ab440b414610065575b600080fd5b61004e61004936600461238a565b610078565b60405161005c929190612483565b60405180910390f35b61004e6100733660046124a8565b610099565b606080600061008f84602001518560400151610219565b9451959350505050565b60608060006100b3604563ffffffff602087901c166124e0565b905060608060328363ffffffff1610156101765760405163586e3c7d60e11b815263ffffffff8416600482015261016d907f00000000000000000000000000000000000000000000000000000000000000006001600160a01b03169063b0dc78fa906024015b60006040518083038186803b15801561013157600080fd5b505afa158015610145573d6000803e3d6000fd5b505050506040513d6000823e601f3d908101601f191682016040526100499190810190612553565b925090506101d1565b60405163586e3c7d60e11b815263ffffffff841660048201526101cc907f00000000000000000000000000000000000000000000000000000000000000006001600160a01b03169063b0dc78fa90602401610119565b925090505b60006101dc876104c8565b90506101e78161061f565b836040516020016101f992919061260c565b6040516020818303038152906040528295509550505050505b9250929050565b600060606000604051806101000160405280856001600160401b038111156102435761024361229f565b6040519080825280601f01601f19166020018201604052801561026d576020820181803683370190505b508152602001600081526020018681526020016000815260200160008152602001600081526020016040518060400160405280600f60016102ae9190612662565b6001600160401b038111156102c5576102c561229f565b6040519080825280602002602001820160405280156102ee578160200160208202803683370190505b5081526040805161012080825261242082019092526020928301929091908201612400803683370190505081525081526020016040518060400160405280600f600161033a9190612662565b6001600160401b038111156103515761035161229f565b60405190808252806020026020018201604052801561037a578160200160208202803683370190505b50815260408051601e8082526103e0820190925260209283019290919082016103c080368337505050905290529050600080806103b68461079e565b9050600081600e8111156103cc576103cc61267a565b146103e1579251929450919250610212915050565b826104b8576103f1846001610928565b93509050600081600e8111156104095761040961267a565b1461041e579251929450919250610212915050565b610429846002610928565b92509050600081600e8111156104415761044161267a565b14610456579251929450919250610212915050565b811561048a57816001146104815781600214610473576003610493565b61047c846109f9565b610493565b61047c84610a73565b61049384610a8e565b9050600081600e8111156104a9576104a961267a565b146104b3576104b8565b6103e1565b9251929792965091945050505050565b6040805160c081018252600080825260208201819052918101829052606081018290526080810182905260a081018290529061050a61016860e085901c6124e0565b9050600061052461016863ffffffff60c087901c166124e0565b9050600061053d605963ffffffff60a088901c166124e0565b610548906016612690565b90506000610561606263ffffffff608089901c166124e0565b61056c906016612690565b90506000610585600263ffffffff60608a901c166124e0565b9050600061059e601463ffffffff60608b901c166124e0565b9050600063ffffffff83166105bf576105b8826014612690565b90506105cd565b6105ca82603c612690565b90505b60006105da8260646126b8565b6040805160c08101825263ffffffff9a8b168152978a16602089015292891692870192909252509486166060850152505083166080820152911660a082015292915050565b60606000610636836000015163ffffffff16610c9e565b610649846020015163ffffffff16610c9e565b61065c856040015163ffffffff16610c9e565b60405160200161066e939291906126dd565b60405160208183030381529060405290506000610694846060015163ffffffff16610c9e565b6106a7856080015163ffffffff16610c9e565b6106ba8660a0015163ffffffff16610c9e565b6040516020016106cc939291906126dd565b60405160208183030381529060405290507f00000000000000000000000000000000000000000000000000000000000000006001600160a01b0316639d37bc7c6040518163ffffffff1660e01b815260040160006040518083038186803b15801561073657600080fd5b505afa15801561074a573d6000803e3d6000fd5b505050506040513d6000823e601f3d908101601f19168201604052610772919081019061275c565b8282604051602001610786939291906127a4565b60405160208183030381529060405292505050919050565b604080516101208082526124208201909252600091829182916020820161240080368337019050509050600091505b60908210156108075760088183815181106107ea576107ea612930565b6020908102919091010152816107ff81612946565b9250506107cd565b61010082101561084257600981838151811061082557610825612930565b60209081029190910101528161083a81612946565b925050610807565b61011882101561087d57600781838151811061086057610860612930565b60209081029190910101528161087581612946565b925050610842565b6101208210156108b857600881838151811061089b5761089b612930565b6020908102919091010152816108b081612946565b92505061087d565b6108cb8460c00151826101206000610da3565b50600091505b601e82101561090b5760058183815181106108ee576108ee612930565b60209081029190910101528161090381612946565b9250506108d1565b61091d8460e0015182601e6000610da3565b506000949350505050565b608082015160009081905b838560a0015110156109bc578460400151518560600151141561095e57600160009250925050610212565b60a085015160408601516060870180519061097882612946565b90528151811061098a5761098a612930565b602001015160f81c60f81b60f81c60ff16901b8117905060088560a0018181516109b49190612662565b905250610933565b80841c608086015260a0850180518591906109d8908390612961565b90525060006109ea600180871b612961565b60009792169550909350505050565b6000610a18604051806040016040528060608152602001606081525090565b60408051808201909152606080825260208201526000610a378561106c565b90945092509050600081600e811115610a5257610a5261267a565b14610a5f57949350505050565b610a6a858484611722565b95945050505050565b6000610a88828360c001518460e00151611722565b92915050565b60006080820181905260a082018190526040820151516060830151829190610ab7906004612662565b1115610ac65750600192915050565b604083015160608401805190610adb82612946565b905281518110610aed57610aed612930565b0160200151604084015160608501805160f89390931c935060089290610b1282612946565b905281518110610b2457610b24612930565b602001015160f81c60f81b60f81c60ff16901b81179050801960ff168360400151846060018051809190610b5790612946565b905281518110610b6957610b69612930565b016020015160f81c141580610bb45750604083015160608401805160ff841960081c169291610b9782612946565b905281518110610ba957610ba9612930565b016020015160f81c14155b15610bc25750600492915050565b826040015151818460600151610bd89190612662565b1115610be75750600192915050565b8251516020840151610bfa908390612662565b1115610c095750600292915050565b8015610c9557610c1a600182612961565b90508260400151836060018051809190610c3390612946565b905281518110610c4557610c45612930565b602001015160f81c60f81b8360000151846020018051809190610c6790612946565b905281518110610c7957610c79612930565b60200101906001600160f81b031916908160001a905350610c09565b50600092915050565b606081610cc25750506040805180820190915260018152600360fc1b602082015290565b8160005b8115610cec5780610cd681612946565b9150610ce59050600a83612978565b9150610cc6565b6000816001600160401b03811115610d0657610d0661229f565b6040519080825280601f01601f191660200182016040528015610d30576020820181803683370190505b5090505b8415610d9b57610d45600183612961565b9150610d52600a8661298c565b610d5d906030612662565b60f81b818381518110610d7257610d72612930565b60200101906001600160f81b031916908160001a905350610d94600a86612978565b9450610d34565b949350505050565b600080600080610db1612280565b600092505b600f8311610df357600089600001518481518110610dd657610dd6612930565b602090810291909101015282610deb81612946565b935050610db6565b600093505b86841015610e5f57885188610e0d8689612662565b81518110610e1d57610e1d612930565b602002602001015181518110610e3557610e35612930565b602002602001018051809190610e4a90612946565b90525083610e5781612946565b945050610df8565b868960000151600081518110610e7757610e77612930565b60200260200101511415610e92576000945050505050610d9b565b60019150600192505b600f8311610f15578851805160019390931b9284908110610ebe57610ebe612930565b6020026020010151821015610eda57600e945050505050610d9b565b8851805184908110610eee57610eee612930565b602002602001015182610f019190612961565b915082610f0d81612946565b935050610e9b565b60006020820152600192505b600f831015610f9a578851805184908110610f3e57610f3e612930565b6020026020010151818460108110610f5857610f58612930565b6020020151610f679190612662565b81610f73856001612662565b60108110610f8357610f83612930565b602002015282610f9281612946565b935050610f21565b600093505b8684101561104d5787610fb28588612662565b81518110610fc257610fc2612930565b602002602001015160001461103b5760208901518490828a610fe4848b612662565b81518110610ff457610ff4612930565b60200260200101516010811061100c5761100c612930565b6020020180519061101c82612946565b90528151811061102e5761102e612930565b6020026020010181815250505b8361104581612946565b945050610f9f565b6000821161105c57600061105f565b600e5b9998505050505050505050565b600061108b604051806040016040528060608152602001606081525090565b60408051808201909152606080825260208201526000808080806110b2601e61011e612662565b6001600160401b038111156110c9576110c961229f565b6040519080825280602002602001820160405280156110f2578160200160208202803683370190505b50905060006040518060400160405280600f60016111109190612662565b6001600160401b038111156111275761112761229f565b604051908082528060200260200182016040528015611150578160200160208202803683370190505b5081526040805161011e8082526123e0820190925260209283019290919082016123c08036833701905050815250905060006040518060400160405280600f600161119b9190612662565b6001600160401b038111156111b2576111b261229f565b6040519080825280602002602001820160405280156111db578160200160208202803683370190505b50815260408051601e8082526103e0820190925260209283019290919082016103c0803683375050509052905060006112158c6005610928565b98509450600085600e81111561122d5761122d61267a565b146112455750929850965090945061171b9350505050565b61125161010189612662565b975061125e8c6005610928565b97509450600085600e8111156112765761127661267a565b1461128e5750929850965090945061171b9350505050565b611299600188612662565b965061011e8811806112ab5750601e87115b156112c5575060059950909750955061171b945050505050565b6112ce8c611f4f565b9095509350600085600e8111156112e7576112e761267a565b146112ff5750929850965090945061171b9350505050565b61130d838560136000610da3565b9450600085600e8111156113235761132361267a565b1461133d575060069950909750955061171b945050505050565b600095505b61134c8789612662565b861015611545576000806113608e86612171565b9097509150600087600e8111156113795761137961267a565b146113935750949a50919850965061171b95505050505050565b60108210156113cb578186896113a881612946565b9a50815181106113ba576113ba612930565b60200260200101818152505061153e565b506000601082141561146a57876113f4575060079b5092995090975061171b9650505050505050565b8561140060018a612961565b8151811061141057611410612930565b602002602001015190506114258e6002610928565b9097509250600087600e81111561143e5761143e61267a565b146114585750949a50919850965061171b95505050505050565b611463836003612662565b91506114ca565b816011141561147e576114258e6003610928565b6114898e6007610928565b9097509250600087600e8111156114a2576114a261267a565b146114bc5750949a50919850965061171b95505050505050565b6114c783600b612662565b91505b6114d4898b612662565b6114de838a612662565b11156114fc575060089b5092995090975061171b9650505050505050565b811561153e5761150d600183612961565b915080868961151b81612946565b9a508151811061152d5761152d612930565b6020026020010181815250506114fc565b5050611342565b836101008151811061155957611559612930565b60200260200101516000141561157e5750600b9950909750955061171b945050505050565b61158b83858a6000610da3565b9450600085600e8111156115a1576115a161267a565b1415801561162b5750600185600e8111156115be576115be61267a565b14806115db5750600285600e8111156115d9576115d961267a565b145b8061162b57508251805160019081106115f6576115f6612930565b6020026020010151836000015160008151811061161557611615612930565b60200260200101516116279190612662565b8814155b15611645575060099950909750955061171b945050505050565b6116518285898b610da3565b9450600085600e8111156116675761166761267a565b141580156116f15750600185600e8111156116845761168461267a565b14806116a15750600285600e81111561169f5761169f61267a565b145b806116f157508151805160019081106116bc576116bc612930565b602002602001015182600001516000815181106116db576116db612930565b60200260200101516116ed9190612662565b8714155b1561170b5750600a9950909750955061171b945050505050565b5060009950909750955050505050505b9193909250565b6000806000806000604051806103a00160405280600361ffff168152602001600461ffff168152602001600561ffff168152602001600661ffff168152602001600761ffff168152602001600861ffff168152602001600961ffff168152602001600a61ffff168152602001600b61ffff168152602001600d61ffff168152602001600f61ffff168152602001601161ffff168152602001601361ffff168152602001601761ffff168152602001601b61ffff168152602001601f61ffff168152602001602361ffff168152602001602b61ffff168152602001603361ffff168152602001603b61ffff168152602001604361ffff168152602001605361ffff168152602001606361ffff168152602001607361ffff168152602001608361ffff16815260200160a361ffff16815260200160c361ffff16815260200160e361ffff16815260200161010261ffff1681525090506000604051806103a00160405280600060ff168152602001600060ff168152602001600060ff168152602001600060ff168152602001600060ff168152602001600060ff168152602001600060ff168152602001600060ff168152602001600160ff168152602001600160ff168152602001600160ff168152602001600160ff168152602001600260ff168152602001600260ff168152602001600260ff168152602001600260ff168152602001600360ff168152602001600360ff168152602001600360ff168152602001600360ff168152602001600460ff168152602001600460ff168152602001600460ff168152602001600460ff168152602001600560ff168152602001600560ff168152602001600560ff168152602001600560ff168152602001600060ff1681525090506000604051806103c00160405280600161ffff168152602001600261ffff168152602001600361ffff168152602001600461ffff168152602001600561ffff168152602001600761ffff168152602001600961ffff168152602001600d61ffff168152602001601161ffff168152602001601961ffff168152602001602161ffff168152602001603161ffff168152602001604161ffff168152602001606161ffff168152602001608161ffff16815260200160c161ffff16815260200161010161ffff16815260200161018161ffff16815260200161020161ffff16815260200161030161ffff16815260200161040161ffff16815260200161060161ffff16815260200161080161ffff168152602001610c0161ffff16815260200161100161ffff16815260200161180161ffff16815260200161200161ffff16815260200161300161ffff16815260200161400161ffff16815260200161600161ffff1681525090506000604051806103c00160405280600060ff168152602001600060ff168152602001600060ff168152602001600060ff168152602001600160ff168152602001600160ff168152602001600260ff168152602001600260ff168152602001600360ff168152602001600360ff168152602001600460ff168152602001600460ff168152602001600560ff168152602001600560ff168152602001600660ff168152602001600660ff168152602001600760ff168152602001600760ff168152602001600860ff168152602001600860ff168152602001600960ff168152602001600960ff168152602001600a60ff168152602001600a60ff168152602001600b60ff168152602001600b60ff168152602001600c60ff168152602001600c60ff168152602001600d60ff168152602001600d60ff16815250905060005b8761010014611f3b57611c5c8c8c612171565b98509050600081600e811115611c7457611c7461267a565b14611c88579750611f489650505050505050565b610100881015611cfe578b515160208d01511415611cb157600298505050505050505050611f48565b8760f81b8c600001518d6020015181518110611ccf57611ccf612930565b60200101906001600160f81b031916908160001a90535060208c01805190611cf682612946565b905250611c49565b610100881115611f29576000611d166101018a612961565b9850601d8910611d3257600c9950505050505050505050611f48565b611d558d868b601d8110611d4857611d48612930565b602002015160ff16610928565b9092509050600082600e811115611d6e57611d6e61267a565b14611d8357509750611f489650505050505050565b80868a601d8110611d9657611d96612930565b602002015161ffff16611da99190612662565b9750611db58d8c612171565b99509150600082600e811115611dcd57611dcd61267a565b14611de257509750611f489650505050505050565b611df88d848b601e8110611d4857611d48612930565b9092509050600082600e811115611e1157611e1161267a565b14611e2657509750611f489650505050505050565b80848a601e8110611e3957611e39612930565b602002015161ffff16611e4c9190612662565b96508c60200151871115611e6c57600d9950505050505050505050611f48565b8c515160208e0151611e7f908a90612662565b1115611e975760029950505050505050505050611f48565b8715611f2357611ea8600189612961565b97508c60000151878e60200151611ebf9190612961565b81518110611ecf57611ecf612930565b602001015160f81c60f81b8d600001518e6020015181518110611ef457611ef4612930565b60200101906001600160f81b031916908160001a90535060208d01805190611f1b82612946565b905250611e97565b50611c49565b868c602001818151611cf69190612662565b6000985050505050505050505b9392505050565b60006060818080611f63601e61011e612662565b6001600160401b03811115611f7a57611f7a61229f565b604051908082528060200260200182016040528015611fa3578160200160208202803683370190505b506040805161026081018252601081526011602082015260129181019190915260006060820181905260086080830152600760a0830152600960c0830152600660e0830152600a6101008301526005610120830152600b61014083015260046101608301819052600c61018084015260036101a0840152600d6101c084015260026101e0840152600e6102008401526001610220840152600f61024084015292935091612051908990610928565b95509150600082600e8111156120695761206961267a565b1461207a5750969095509350505050565b612085600486612662565b9450600093505b8484101561210e5761209f886003610928565b848387601381106120b2576120b2612930565b602002015160ff16815181106120ca576120ca612930565b60209081029190910101529150600082600e8111156120eb576120eb61267a565b146120fc5750969095509350505050565b8361210681612946565b94505061208c565b60138410156121615760008382866013811061212c5761212c612930565b602002015160ff168151811061214457612144612930565b60209081029190910101528361215981612946565b94505061210e565b5060009791965090945050505050565b600080600181808080805b600f861161226d5760006121918b6001610928565b9092509050600082600e8111156121aa576121aa61267a565b146121c15750965060009550610212945050505050565b8951805196821796889081106121d9576121d9612930565b6020026020010151935083856121ef9190612662565b86101561223a5760208a01516000906122088789612961565b6122129086612662565b8151811061222257612222612930565b60200260200101519850985050505050505050610212565b6122448484612662565b92506122508486612662565b600196871b961b945086905061226581612946565b96505061217c565b50600c9960009950975050505050505050565b6040518061020001604052806010906020820280368337509192915050565b634e487b7160e01b600052604160045260246000fd5b604051606081016001600160401b03811182821017156122d7576122d761229f565b60405290565b604051601f8201601f191681016001600160401b03811182821017156123055761230561229f565b604052919050565b60006001600160401b038211156123265761232661229f565b50601f01601f191660200190565b600082601f83011261234557600080fd5b81356123586123538261230d565b6122dd565b81815284602083860101111561236d57600080fd5b816020850160208301376000918101602001919091529392505050565b60006020828403121561239c57600080fd5b81356001600160401b03808211156123b357600080fd5b90830190606082860312156123c757600080fd5b6123cf6122b5565b8235828111156123de57600080fd5b6123ea87828601612334565b8252506020830135828111156123ff57600080fd5b61240b87828601612334565b6020830152506040830135604082015280935050505092915050565b60005b8381101561244257818101518382015260200161242a565b83811115612451576000848401525b50505050565b6000815180845261246f816020860160208601612427565b601f01601f19169290920160200192915050565b6040815260006124966040830185612457565b8281036020840152610a6a8185612457565b600080604083850312156124bb57600080fd5b50508035926020909101359150565b634e487b7160e01b600052601260045260246000fd5b600063ffffffff808416806124f7576124f76124ca565b92169190910692915050565b60006125116123538461230d565b905082815283838301111561252557600080fd5b611f48836020830184612427565b600082601f83011261254457600080fd5b611f4883835160208501612503565b60006020828403121561256557600080fd5b81516001600160401b038082111561257c57600080fd5b908301906060828603121561259057600080fd5b6125986122b5565b8251828111156125a757600080fd5b6125b387828601612533565b8252506020830151828111156125c857600080fd5b6125d487828601612533565b6020830152506040830151604082015280935050505092915050565b60008151612602818560208601612427565b9290920192915050565b6000835161261e818460208801612427565b835190830190612632818360208801612427565b651e17b9bb339f60d11b9101908152600601949350505050565b634e487b7160e01b600052601160045260246000fd5b600082198211156126755761267561264c565b500190565b634e487b7160e01b600052602160045260246000fd5b600063ffffffff8083168185168083038211156126af576126af61264c565b01949350505050565b600063ffffffff838116908316818110156126d5576126d561264c565b039392505050565b630d0e6d8560e31b8152600084516126fc816004850160208901612427565b600b60fa1b600491840191820152845161271d816005840160208901612427565b61094b60f21b600592909101918201528351612740816007840160208801612427565b61252960f01b6007929091019182015260090195945050505050565b60006020828403121561276e57600080fd5b81516001600160401b0381111561278457600080fd5b8201601f8101841361279557600080fd5b610d9b84825160208401612503565b7f3c7376672076696577426f783d2730203020363430203634302720786d6c6e7381527f3d27687474703a2f2f7777772e77332e6f72672f323030302f737667273e3c7360208201527f74796c653e2040666f6e742d66616365207b20666f6e742d66616d696c793a20604082015276436f7572696572466f6e743b207372633a2075726c282760481b606082015260008451612848816077850160208901612427565b7f272920666f726d617428276f70656e7479706527293b207d202e626173657b666077918401918201526334b6361d60e11b6097820152845161289281609b840160208901612427565b7f3b666f6e742d66616d696c793a436f7572696572466f6e743b666f6e742d7369609b92909101918201527f7a653a20313670783b7d3c2f7374796c653e3c726563742077696474683d223160bb8201527818181291103432b4b3b43a1e911898181291103334b6361e9160391b60db82015261292661291560f48301866125f0565b6401110179f160dd1b815260050190565b9695505050505050565b634e487b7160e01b600052603260045260246000fd5b600060001982141561295a5761295a61264c565b5060010190565b6000828210156129735761297361264c565b500390565b600082612987576129876124ca565b500490565b60008261299b5761299b6124ca565b50069056fea2646970667358221220a7fb6a2b93805c7aa5b3a40c3cdf37d934d814fd9f769a58c1118dc91c21932d64736f6c63430008090033",
  "devdoc": {
    "kind": "dev",
    "methods": {},
    "version": 1
  },
  "userdoc": {
    "kind": "user",
    "methods": {},
    "version": 1
  },
  "storageLayout": {
    "storage": [],
    "types": null
  }
}