{
  "address": "0x944bBD7E287c74a6EaB7d3c9AAad0707301FE036",
  "abi": [
    {
      "inputs": [
        {
          "internalType": "uint256",
          "name": "index",
          "type": "uint256"
        }
      ],
      "name": "getSvg",
      "outputs": [
        {
          "components": [
            {
              "internalType": "bytes",
              "name": "imageName",
              "type": "bytes"
            },
            {
              "internalType": "bytes",
              "name": "compressedImage",
              "type": "bytes"
            },
            {
              "internalType": "uint256",
              "name": "compressedSize",
              "type": "uint256"
            }
          ],
          "internalType": "struct GmDataInterface.GmDataSet",
          "name": "data",
          "type": "tuple"
        }
      ],
      "stateMutability": "pure",
      "type": "function"
    }
  ],
  "transactionHash": "0x63fdefcbba941d23b5a0b82950be496f34ac556a8906b4863a7b5b1e814c433e",
  "args": [],
  "solcInputHash": "8e09e9c98c228d8922f10f5929ca7340",
  "bytecode": "0x608060405234801561001057600080fd5b50600436106100365760003560e01c8063338dc74e1461003b57806390accf5614610068575b600080fd5b61004e610049366004615152565b610089565b60405161005f9594939291906151c7565b60405180910390f35b61007b61007636600461531f565b610328565b60405161005f9291906153bc565b60608080808060006100a6604563ffffffff609f8a901c166153f7565b905060006100bf606463ffffffff607f8b901c166153f7565b905060006100d28263ffffffff16610349565b90506000806100e08b6104c5565b9150915060608060328763ffffffff1610156101a55760405163586e3c7d60e11b815263ffffffff8816600482015261019c907f000000000000000000000000944bbd7e287c74a6eab7d3c9aaad0707301fe0366001600160a01b03169063b0dc78fa906024015b60006040518083038186803b15801561016057600080fd5b505afa158015610174573d6000803e3d6000fd5b505050506040513d6000823e601f3d908101601f19168201604052610076919081019061546a565b92509050610200565b60405163586e3c7d60e11b815263ffffffff881660048201526101fb907f000000000000000000000000e643991873f308bb35e8fa39928bf8af4bd853866001600160a01b03169063b0dc78fa90602401610148565b925090505b6102258160405180604001604052806003815260200162090caf60eb1b8152506105a4565b806102535750610253816040518060400160405280600681526020016542696e61727960d01b8152506105a4565b80610280575061028081604051806040016040528060058152602001644d6f72736560d81b8152506105a4565b806102b057506102b081604051806040016040528060088152602001674d6e656d6f6e696360c01b8152506105a4565b156102d557604051806040016040528060048152602001636e6f6e6560e01b81525094505b835183516102e491908761060f565b826040516020016102f6929190615523565b60408051601f198184030181529190526020948501519390940151939d909c50919a5091985091965090945050505050565b606080600061033f846020015185604001516106de565b9451959350505050565b6060816001148061035a5750816002145b806103655750816003145b806103705750816004145b8061037b5750816005145b156103a15750506040805180820190915260058152646e6f69736560d81b602082015290565b81600714806103b05750816008145b806103bb5750816009145b156103e45750506040805180820190915260088152677363726962626c6560c01b602082015290565b60466103f1836064615579565b1180156104095750605a610406836064615579565b11155b1561042f5750506040805180820190915260058152640dadee4e0d60db1b602082015290565b603c61043c836064615579565b11801561045457506046610451836064615579565b11155b15610479575050604080518082019091526004815263676c6f7760e01b602082015290565b81604514156104a5575050604080518082019091526007815266199c9858dd185b60ca1b602082015290565b50506040805180820190915260048152636e6f6e6560e01b602082015290565b6040805180820190915260608082526020820152604080518082019091526060808252602082015260006104fe606f60e086901c6153f7565b90506000610517600563ffffffff60c088901c166153f7565b9050600061052d600260ff60b889901c16615590565b60ff16905060008161056157606f6105468460376155b2565b61055090866155b2565b61055a91906153f7565b9050610585565b606f61056e8460376155da565b61057890866155b2565b61058291906153f7565b90505b61058e8461098f565b6105978261098f565b9550955050505050915091565b600081518351146105b757506000610609565b816040516020016105c891906155ff565b60405160208183030381529060405280519060200120836040516020016105ef91906155ff565b604051602081830303815290604052805190602001201490505b92915050565b60607f0000000000000000000000004f58ee8f0ed85d8e02fd8a33ebc8122433bf61126001600160a01b0316639d37bc7c6040518163ffffffff1660e01b815260040160006040518083038186803b15801561066a57600080fd5b505afa15801561067e573d6000803e3d6000fd5b505050506040513d6000823e601f3d908101601f191682016040526106a6919081019061561b565b82846106b0612fcd565b876040516020016106c5959493929190615663565b60405160208183030381529060405290505b9392505050565b600060606000604051806101000160405280856001600160401b0381111561070857610708615234565b6040519080825280601f01601f191660200182016040528015610732576020820181803683370190505b508152602001600081526020018681526020016000815260200160008152602001600081526020016040518060400160405280600f60016107739190615846565b6001600160401b0381111561078a5761078a615234565b6040519080825280602002602001820160405280156107b3578160200160208202803683370190505b5081526040805161012080825261242082019092526020928301929091908201612400803683370190505081525081526020016040518060400160405280600f60016107ff9190615846565b6001600160401b0381111561081657610816615234565b60405190808252806020026020018201604052801561083f578160200160208202803683370190505b50815260408051601e8082526103e0820190925260209283019290919082016103c0803683375050509052905290506000808061087b8461375c565b9050600081600e8111156108915761089161585e565b146108a6579251929450919250610988915050565b8261097d576108b68460016138e6565b93509050600081600e8111156108ce576108ce61585e565b146108e3579251929450919250610988915050565b6108ee8460026138e6565b92509050600081600e8111156109065761090661585e565b1461091b579251929450919250610988915050565b811561094f57816001146109465781600214610938576003610958565b610941846139b7565b610958565b61094184613a31565b61095884613a46565b9050600081600e81111561096e5761096e61585e565b146109785761097d565b6108a6565b925192945091925050505b9250929050565b604080518082019091526060808252602082015263ffffffff82166109ef5760408051808201825260078152660233030303030360cc1b60208083019190915290835281518083019092526005825264426c61636b60d81b828201528201525b8163ffffffff1660011415610a485760408051808201825260078152662330303463366160c81b6020808301919091529083528151808301909252600e82526d4e617679204461726b20426c756560901b828201528201525b8163ffffffff1660021415610a9e57604080518082018252600781526608cc0c0e4e190d60ca1b6020808301919091529083528151808301909252600b82526a42617965726e20426c756560a81b828201528201525b8163ffffffff1660031415610af9576040805180820182526007815266119818329a199b60c91b6020808301919091529083528151808301909252601082526f2632bc30b637b33336329023b932b2b760811b828201528201525b8163ffffffff1660041415610b51576040805180820182526007815266119898199a309b60c91b6020808301919091529083528151808301909252600d82526c456779707469616e20426c756560981b828201528201525b8163ffffffff1660051415610ba75760408051808201825260078152662330303838313160c81b6020808301919091529083528151808301909252600b82526a263ab9b41023b0b93232b760a91b828201528201525b8163ffffffff1660061415610c01576040805180820182526007815266046606cc8606e760cb1b6020808301919091529083528151808301909252600f82526e2ab73232b93bb0ba32b9102332b93760891b828201528201525b8163ffffffff1660071415610c565760408051808201825260078152660233163316366360cc1b6020808301919091529083528151808301909252600a825269109b1d59589bdb9b995d60b21b828201528201525b8163ffffffff1660081415610cad5760408051808201825260078152662331323734353360c81b6020808301919091529083528151808301909252600c82526b11dc99595b8815995b1d995d60a21b828201528201525b8163ffffffff1660091415610d0757604080518082018252600781526608cc4d1898588d60ca1b6020808301919091529083528151808301909252600f82526e53757065722052617265204a61646560881b828201528201525b8163ffffffff16600a1415610d58576040805180820182526007808252661198989898991960c91b6020808401919091529184528251808401909352825266436f726265617560c81b828201528201525b8163ffffffff16600b1415610dae5760408051808201825260078152662331363564393560c81b6020808301919091529083528151808301909252600b82526a13185c1a5cc812995dd95b60aa1b828201528201525b8163ffffffff16600c1415610e025760408051808201825260078152662331366238663360c81b602080830191909152908352815180830190925260098252685a696d6120426c756560b81b828201528201525b8163ffffffff16600d1415610e605760408051808201825260078152661198b2b31c1b9b60c91b6020808301919091529083528151808301909252601382527214de5b9d1a195d1a58c814dc19585c9b5a5b9d606a1b828201528201525b8163ffffffff16600e1415610eb1576040805180820182526007808252661199189a33319b60c91b60208084019190915291845282518084019093528252662732bb9021b0b960c91b828201528201525b8163ffffffff16600f1415610f0b5760408051808201825260078152660466468726268760cb1b6020808301919091529083528151808301909252600f82526e2830b832b93137bc93b9902630bbb760891b828201528201525b8163ffffffff1660101415610f635760408051808201825260078152662332346461393160c81b6020808301919091529083528151808301909252600d82526c2932b83a34b6329023b932b2b760991b828201528201525b8163ffffffff1660111415610fbc5760408051808201825260078152662332323333313160c81b6020808301919091529083528151808301909252600e82526d11185c9ad95cdd08119bdc995cdd60921b828201528201525b8163ffffffff166012141561101257604080518082018252600781526608cc8e4dd98d9960ca1b6020808301919091529083528151808301909252600b82526a4d65726d6169642053656160a81b828201528201525b8163ffffffff16601314156110685760408051808201825260078152662332326363636360c81b6020808301919091529083528151808301909252600b82526a13595c9b585a590813995d60aa1b828201528201525b8163ffffffff16601414156110bd5760408051808201825260078152662332653232343960c81b6020808301919091529083528151808301909252600a825269456c646572626572727960b01b828201528201525b8163ffffffff16601514156111155760408051808201825260078152662333323661623160c81b6020808301919091529083528151808301909252600d82526c446f766572205374726169747360981b828201528201525b8163ffffffff166016141561116e576040805180820182526007815266119931319a98b160c91b6020808301919091529083528151808301909252600e82526d46656c776f6f64204c656176657360901b828201528201525b8163ffffffff16601714156111c55760408051808201825260078152662333393132383560c81b6020808301919091529083528151808301909252600c82526b2834bc34b2902837bbb232b960a11b828201528201525b8163ffffffff166018141561122257604080518082018252600781526604664ca6a70ca760cb1b602080830191909152908352815180830190925260128252715665746572616e27732044617920426c756560701b828201528201525b8163ffffffff166019141561127a5760408051808201825260078152662334313966353960c81b6020808301919091529083528151808301909252600d82526c21b430ba32b0ba9023b932b2b760991b828201528201525b8163ffffffff16601a14156112d35760408051808201825260078152662334356539633160c81b6020808301919091529083528151808301909252600e82526d417068726f64697465204171756160901b828201528201525b8163ffffffff16601b14156113295760408051808201825260078152660233432343333360cc1b6020808301919091529083528151808301909252600b82526a08ec2e4c8cadc40a0c2e8d60ab1b828201528201525b8163ffffffff16601c141561137a576040805180820182526007808252662334323933393560c81b602080840191909152918452825180840190935282526621b0ba30b630b760c91b828201528201525b8163ffffffff16601d14156113d05760408051808201825260078152660233434646430360cc1b6020808301919091529083528151808301909252600b82526a4d6167696320426c61646560a81b828201528201525b8163ffffffff16601e1415611427576040805180820182526007815266119a1999329b3360c91b6020808301919091529083528151808301909252600c82526b48657220486967686e65737360a01b828201528201525b8163ffffffff16601f141561147d57604080518082018252600781526608cd0d0dcdd91960ca1b6020808301919091529083528151808301909252600b82526a416e6472656120426c756560a81b828201528201525b8163ffffffff16602014156114d65760408051808201825260078152662335616433336560c81b6020808301919091529083528151808301909252600e82526d56657264616e74204669656c647360901b828201528201525b8163ffffffff166021141561152c5760408051808201825260078152662333613138623160c81b6020808301919091529083528151808301909252600b82526a496e6469676f20426c756560a81b828201528201525b8163ffffffff16602214156115885760408051808201825260078152662335353636313160c81b60208083019190915290835281518083019092526011825270119bdc995cdd1a585b0813dd5d1c1bdcdd607a1b828201528201525b8163ffffffff16602314156115e15760408051808201825260078152660466a6ac4c470760cb1b6020808301919091529083528151808301909252600e82526d426c656163686564204f6c69766560901b828201528201525b8163ffffffff166024141561163d5760408051808201825260078152662335353030656560c81b6020808301919091529083528151808301909252601182527054657a6361746c69706f636120426c756560781b828201528201525b8163ffffffff166025141561169357604080518082018252600781526608cd4d0d4d4d4d60ca1b6020808301919091529083528151808301909252600b82526a436172626f6e20436f707960a81b828201528201525b8163ffffffff16602614156116e45760408051808201825260078152662335386130626360c81b60208083019190915290835281518083019092526006825265223ab830b4b760d11b828201528201525b8163ffffffff166027141561173c576040805180820182526007815266119a9ab333191960c91b6020808301919091529083528151808301909252600d82526c2a3930b33334b19023b932b2b760991b828201528201525b8163ffffffff16602814156117915760408051808201825260078152660233562336539360cc1b6020808301919091529083528151808301909252600a825269088c2d2e6f24084eae6d60b31b828201528201525b8163ffffffff16602914156117e6576040805180820182526007815266119b1b1c1c333360c91b6020808301919091529083528151808301909252600a825269446565702044656e696d60b01b828201528201525b8163ffffffff16602a141561183f5760408051808201825260078152660233631653136360cc1b6020808301919091529083528151808301909252600e82526d2634b3b43a34b9b41023b932b2b760911b828201528201525b8163ffffffff16602b14156118965760408051808201825260078152662336613331636160c81b6020808301919091529083528151808301909252600c82526b536167617420507572706c6560a01b828201528201525b8163ffffffff16602c14156118ef5760408051808201825260078152662336363763336560c81b6020808301919091529083528151808301909252600e82526d26b4b634ba30b93c9023b932b2b760911b828201528201525b8163ffffffff16602d141561194657604080518082018252600781526608cd8e18ce0e5960ca1b6020808301919091529083528151808301909252600c82526b496e74656e7365204a61646560a01b828201528201525b8163ffffffff16602e141561199f5760408051808201825260078152660466cc8626060760cb1b6020808301919091529083528151808301909252600e82526d21b432b9ba373aba10213937bbb760911b828201528201525b8163ffffffff16602f14156119f657604080518082018252600781526608cd8e4d8ccdcd60ca1b6020808301919091529083528151808301909252600c82526b0a0eae4e0d8ca40a0eadcc6d60a31b828201528201525b8163ffffffff1660301415611a4b5760408051808201825260078152660233666623765360cc1b6020808301919091529083528151808301909252600a8252694c69666520466f72636560b01b828201528201525b8163ffffffff1660311415611aa957604080518082018252600781526608cdcdcc0c0d0d60ca1b602080830191909152908352815180830190925260138252724461776e206f6620746865204661697269657360681b828201528201525b8163ffffffff1660321415611b025760408051808201825260078152662337383531613960c81b6020808301919091529083528151808301909252600e82526d2937bcb0b6102630bb32b73232b960911b828201528201525b8163ffffffff1660331415611b5e5760408051808201825260078152660466e6c72c662760cb1b60208083019190915290835281518083019092526011825270263ab6b4b732b9b1b2b73a1023b932b2b760791b828201528201525b8163ffffffff1660341415611baf57604080518082018252600780825266119bb1329c1c9960c91b6020808401919091529184528251808401909352825266149859ddd9595960ca1b828201528201525b8163ffffffff1660351415611c075760408051808201825260078152662337303362653760c81b6020808301919091529083528151808301909252600d82526c426c7569736820507572706c6560981b828201528201525b8163ffffffff1660361415611c5d57604080518082018252600781526608cdd88e188d5960ca1b6020808301919091529083528151808301909252600b82526a53616765204c656176657360a81b828201528201525b8163ffffffff1660371415611cb85760408051808201825260078152662338326439633560c81b6020808301919091529083528151808301909252601082526f54656e6465722054757271756f69736560801b828201528201525b8163ffffffff1660381415611d105760408051808201825260078152660233765323533360cc1b6020808301919091529083528151808301909252600d82526c536361726c657420536861646560981b828201528201525b8163ffffffff1660391415611d6a5760408051808201825260078152662338333736396360c81b6020808301919091529083528151808301909252600f82526e566f786174726f6e20507572706c6560881b828201528201525b8163ffffffff16603a1415611dc25760408051808201825260078152660233838636330360cc1b6020808301919091529083528151808301909252600d82526c466162756c6f75732046726f6760981b828201528201525b8163ffffffff16603b1415611e1d576040805180820182526007815266119c1c18989b1b60c91b6020808301919091529083528151808301909252601082526f506f7373657373656420507572706c6560801b828201528201525b8163ffffffff16603c1415611e7557604080518082018252600781526608ce0dcd4d994d60ca1b6020808301919091529083528151808301909252600d82526c476c6f6f6d7920507572706c6560981b828201528201525b8163ffffffff16603d1415611ed357604080518082018252600781526608ce4cd88c4cd960ca1b60208083019190915290835281518083019092526013825272477265656e205465612049636520437265616d60681b828201528201525b8163ffffffff16603e1415611f285760408051808201825260078152662339306664613960c81b6020808301919091529083528151808301909252600a8252692337b0b69023b932b2b760b11b828201528201525b8163ffffffff16603f1415611f815760408051808201825260078152662339313462313360c81b6020808301919091529083528151808301909252600e82526d2830b930b9b4ba3290213937bbb760911b828201528201525b8163ffffffff1660401415611fdd5760408051808201825260078152662339313963383160c81b6020808301919091529083528151808301909252601182527057686973706572696e672057696c6c6f7760781b828201528201525b8163ffffffff16604114156120355760408051808201825260078152662339396565656560c81b6020808301919091529083528151808301909252600d82526c467265657a7920427265657a7960981b828201528201525b8163ffffffff16604214156120895760408051808201825260078152662339383364353360c81b60208083019190915290835281518083019092526009825268105b19d8594814995960ba1b828201528201525b8163ffffffff16604314156120e45760408051808201825260078152662339633837633160c81b6020808301919091529083528151808301909252601082526f50657472696669656420507572706c6560801b828201528201525b8163ffffffff16604414156121405760408051808201825260078152662339386461326360c81b60208083019190915290835281518083019092526011825270456666657276657363656e74204c696d6560781b828201528201525b8163ffffffff16604514156121955760408051808201825260078152662339343231393360c81b6020808301919091529083528151808301909252600a82526941636169204a7569636560b01b828201528201525b8163ffffffff16604614156121f25760408051808201825260078152662361363735666560c81b60208083019190915290835281518083019092526012825271141d5c9c1b1948125b1b1d5cda5bdb9a5cdd60721b828201528201525b8163ffffffff16604714156122495760408051808201825260078152662361346331363160c81b6020808301919091529083528151808301909252600c82526b4a756e676c65204a7569636560a01b828201528201525b8163ffffffff16604814156122a55760408051808201825260078152662361613030636360c81b602080830191909152908352815180830190925260118252704665726f63696f7573204675636873696160781b828201528201525b8163ffffffff16604914156122fb5760408051808201825260078152662361383565333960c81b6020808301919091529083528151808301909252600b82526a4561727468656e204a756760a81b828201528201525b8163ffffffff16604a141561235057604080518082018252600781526608d858584e584d60ca1b6020808301919091529083528151808301909252600a825269456c6c6965204772657960b01b828201528201525b8163ffffffff16604b14156123b15760408051808201825260078152662361616565313160c81b6020808301919091529083528151808301909252601682527523b637b934b7bab99023b932b2b71023b634ba3a32b960511b828201528201525b8163ffffffff16604c14156124095760408051808201825260078152662361643433373960c81b6020808301919091529083528151808301909252600d82526c26bcb9ba34b19026b0b937b7b760991b828201528201525b8163ffffffff16604d141561246757604080518082018252600781526608d88c4e4d594d60ca1b60208083019190915290835281518083019092526013825272111c99585b5e4810d85b991e48119bdc995cdd606a1b828201528201525b8163ffffffff16604e14156124b85760408051808201825260078082526611b118b2321a9960c91b602080840191909152918452825180840190935282526621b7b734b332b960c91b828201528201525b8163ffffffff16604f141561251157604080518082018252600781526611b198199a30b360c91b6020808301919091529083528151808301909252600e82526d141a5b9ac814195c995b9b9a585b60921b828201528201525b8163ffffffff16605014156125795760408051808201825260078152662362373837323760c81b6020808301919091529083528151808301909252601d82527f556e6976657273697479206f662043616c69666f726e696120476f6c64000000828201528201525b8163ffffffff16605114156125d057604080518082018252600781526611b11cb2181c3160c91b6020808301919091529083528151808301909252600c82526b596f756e67204c656176657360a01b828201528201525b8163ffffffff166052141561262b5760408051808201825260078152662362623131656560c81b6020808301919091529083528151808301909252601082526f50726f6d697363756f75732050696e6b60801b828201528201525b8163ffffffff16605314156126825760408051808201825260078152660236330363936360cc1b6020808301919091529083528151808301909252600c82526b15185c195cdd1c9e4814995960a21b828201528201525b8163ffffffff16605414156126d85760408051808201825260078152662362656262633960c81b6020808301919091529083528151808301909252600b82526a53696c766572626572727960a81b828201528201525b8163ffffffff16605514156127305760408051808201825260078152660236266306133360cc1b6020808301919091529083528151808301909252600d82526c13db190811db1bdc9e48149959609a1b828201528201525b8163ffffffff16605614156127875760408051808201825260078152662363333562393960c81b6020808301919091529083528151808301909252600c82526b131b1a5b1858dc5d595c995960a21b828201528201525b8163ffffffff16605714156127e057604080518082018252600781526611b1b0b09c981b60c91b6020808301919091529083528151808301909252600e82526d10da1c9a5cdd1b585cc811dbdb1960921b828201528201525b8163ffffffff16605814156128385760408051808201825260078152662363326631373760c81b6020808301919091529083528151808301909252600d82526c437563756d626572204d696c6b60981b828201528201525b8163ffffffff16605914156128915760408051808201825260078152662364363438643760c81b6020808301919091529083528151808301909252600e82526d50696e6b69736820507572706c6560901b828201528201525b8163ffffffff16605a14156128f057604080518082018252600781526611b1b31c999a1b60c91b6020808301919091529083528151808301909252601482527308cd8cae6d0e8dedcca40a6d0c2c8ca40aec2e6d60631b828201528201525b8163ffffffff16605b14156129495760408051808201825260078152662364336530623160c81b6020808301919091529083528151808301909252600e82526d149bd8dadb595b1bdb88149a5b9960921b828201528201525b8163ffffffff16605c141561299c57604080518082018252600781526608d90c8c990c5960ca1b60208083019190915290835281518083019092526008825267141d5c994814995960c21b828201528201525b8163ffffffff16605d14156129ec5760408051808201825260078152662364323830383360c81b6020808301919091529083528151808301909252600582526408ec2d8c2d60db1b828201528201525b8163ffffffff16605e1415612a41576040805180820182526007815266046c86ac66eca760cb1b6020808301919091529083528151808301909252600a825269466f676779204c6f766560b01b828201528201525b8163ffffffff16605f1415612a975760408051808201825260078152662364623134353960c81b6020808301919091529083528151808301909252600b82526a527562796c6963696f757360a81b828201528201525b8163ffffffff1660601415612aed57604080518082018252600781526611b2321b1b313160c91b6020808301919091529083528151808301909252600b82526a50696e6b2043686172676560a81b828201528201525b8163ffffffff1660611415612b415760408051808201825260078152662365326232323760c81b60208083019190915290835281518083019092526009825268476f6c64205469707360b81b828201528201525b8163ffffffff1660621415612b975760408051808201825260078152662365653030393960c81b6020808301919091529083528151808301909252600b82526a131bdd994815995cdcd95b60aa1b828201528201525b8163ffffffff1660631415612bf257604080518082018252600781526611b2321a9ab33360c91b6020808301919091529083528151808301909252601082526f466c616d696e6720466c616d696e676f60801b828201528201525b8163ffffffff1660641415612c4d5760408051808201825260078152662365646133363760c81b6020808301919091529083528151808301909252601082526f416476656e74757265204f72616e676560801b828201528201525b8163ffffffff1660651415612ca75760408051808201825260078152660236539663164360cc1b6020808301919091529083528151808301909252600f82526e59656c6c6f7769736820576869746560881b828201528201525b8163ffffffff1660661415612cfd5760408051808201825260078152662365663339333960c81b6020808301919091529083528151808301909252600b82526a159a5d985b191a4814995960aa1b828201528201525b8163ffffffff1660671415612d585760408051808201825260078152662365373865613560c81b6020808301919091529083528151808301909252601082526f556e646572776174657220466c61726560801b828201528201525b8163ffffffff1660681415612db15760408051808201825260078152662365656464313160c81b6020808301919091529083528151808301909252600e82526d59656c6c6f772042757a7a696e6760901b828201528201525b8163ffffffff1660691415612e0b5760408051808201825260078152662365653232373760c81b6020808301919091529083528151808301909252600f82526e467572696f7573204675636873696160881b828201528201525b8163ffffffff16606a1415612e6a57604080518082018252600781526611b3181b9ab29b60c91b602080830191909152908352815180830190925260148252734c69616e20486f6e67204c6f7475732050696e6b60601b828201528201525b8163ffffffff16606b1415612ec65760408051808201825260078152662366376333346360c81b6020808301919091529083528151808301909252601182527021b932b0b6bc9029bbb2b2ba1021b7b93760791b828201528201525b8163ffffffff16606c1415612f195760408051808201825260078152660236663306663360cc1b602080830191909152908352815180830190925260088252674347412050696e6b60c01b828201528201525b8163ffffffff16606d1415612f7157604080518082018252600781526611b3331b1b191960c91b6020808301919091529083528151808301909252600d82526c53706172726f7773204669726560981b828201528201525b8163ffffffff16606e1415612fc857604080518082018252600781526608d99898598e1960ca1b6020808301919091529083528151808301909252600c82526b4f72616e67652047726f766560a01b828201528201525b919050565b6060604051602001613748907f3c646566733e3c66696c7465722069643d226672616374616c222066696c746581527f72556e6974733d226f626a656374426f756e64696e67426f782220783d22302560208201527f2220793d223025222077696474683d223130302522206865696768743d22313060408201527f302522203e3c666554757262756c656e63652069643d2274757262756c656e6360608201527f652220747970653d226672616374616c4e6f697365222062617365467265717560808201527f656e63793d22302e303322206e756d4f6374617665733d223122203e3c616e6960a08201527f6d617465206174747269627574654e616d653d22626173654672657175656e6360c08201527f79222076616c7565733d22302e30313b302e343b302e303122206475723d223160e08201527f3030732220726570656174436f756e743d22696e646566696e69746522202f3e6101008201527f3c2f666554757262756c656e63653e3c6665446973706c6163656d656e744d616101208201527f7020696e3d22536f757263654772617068696322207363616c653d223530223e6101408201527f3c2f6665446973706c6163656d656e744d61703e3c2f66696c7465723e3c66696101608201527f6c7465722069643d226d6f727068223e3c66654d6f7270686f6c6f6779206f706101808201527f657261746f723d2264696c61746522207261646975733d2230223e3c616e696d6101a08201527f617465206174747269627574654e616d653d22726164697573222076616c75656101c08201527f733d22303b353b3022206475723d2238732220726570656174436f756e743d226101e08201527f696e646566696e69746522202f3e3c2f66654d6f7270686f6c6f67793e3c2f666102008201527f696c7465723e3c66696c7465722069643d22676c6f77222066696c746572556e6102208201527f6974733d226f626a656374426f756e64696e67426f782220783d2230252220796102408201527f3d223025222077696474683d223130302522206865696768743d2231303025226102608201527f203e3c6665476175737369616e426c757220737464446576696174696f6e3d226102808201527f352220726573756c743d22626c7572322220696e3d22536f75726365477261706102a08201527f68696322202f3e3c66654d657267653e3c66654d657267654e6f646520696e3d6102c08201527f22626c75723222202f3e3c66654d657267654e6f646520696e3d22536f7572636102e08201527f654772617068696322202f3e3c2f66654d657267653e3c2f66696c7465723e3c6103008201527f66696c7465722069643d226e6f697365223e3c666554757262756c656e6365206103208201527f626173654672657175656e63793d22302e3035222f3e3c6665436f6c6f724d616103408201527f7472697820747970653d22687565526f74617465222076616c7565733d2230226103608201527f3e3c616e696d617465206174747269627574654e616d653d2276616c756573226103808201527f2066726f6d3d22302220746f3d2233363022206475723d2231732220726570656103a08201527f6174436f756e743d22696e646566696e697465222f3e3c2f6665436f6c6f724d6103c08201527f61747269783e3c6665436f6c6f724d617472697820747970653d226d617472696103e08201527f78222076616c7565733d223020302030203020312030203020302030203020306104008201527f203020302030203020312030203020302030222f3e3c6665446973706c6163656104208201527f6d656e744d617020696e3d22536f757263654772617068696322207363616c656104408201527f3d223130222f3e3c2f66696c7465723e3c66696c7465722069643d226e6f6e656104608201527f223e3c66654f66667365743e3c2f66654f66667365743e3c2f66696c7465723e6104808201527f3c66696c7465722069643d227363726962626c65223e3c666554757262756c656104a08201527f6e636520747970653d2274757262756c656e63652220626173654672657175656104c08201527f6e63793d22302e303522206e756d4f6374617665733d22322220726573756c746104e08201527f3d2274757262756c656e6365222f3e3c6665446973706c6163656d656e744d616105008201527f7020696e323d2274757262756c656e63652220696e3d22536f757263654772616105208201527f7068696322207363616c653d2235302220784368616e6e656c53656c6563746f6105408201527f723d22522220794368616e6e656c53656c6563746f723d2247222f3e3c2f66696105608201527f6c7465723e3c66696c7465722069643d2274696c652220783d2231302220793d6105808201527f223130222077696474683d2231302522206865696768743d22313025223e3c666105a08201527f6554696c6520696e3d22536f75726365477261706869632220783d22313022206105c08201527f793d223130222077696474683d22313022206865696768743d22313022202f3e6105e0820152781e3332aa34b632979f1e17b334b63a32b91f1e17b232b3399f60391b6106008201526106190190565b604051602081830303815290604052905090565b604080516101208082526124208201909252600091829182916020820161240080368337019050509050600091505b60908210156137c55760088183815181106137a8576137a8615874565b6020908102919091010152816137bd8161588a565b92505061378b565b6101008210156138005760098183815181106137e3576137e3615874565b6020908102919091010152816137f88161588a565b9250506137c5565b61011882101561383b57600781838151811061381e5761381e615874565b6020908102919091010152816138338161588a565b925050613800565b61012082101561387657600881838151811061385957613859615874565b60209081029190910101528161386e8161588a565b92505061383b565b6138898460c00151826101206000613c56565b50600091505b601e8210156138c95760058183815181106138ac576138ac615874565b6020908102919091010152816138c18161588a565b92505061388f565b6138db8460e0015182601e6000613c56565b506000949350505050565b608082015160009081905b838560a00151101561397a578460400151518560600151141561391c57600160009250925050610988565b60a08501516040860151606087018051906139368261588a565b90528151811061394857613948615874565b602001015160f81c60f81b60f81c60ff16901b8117905060088560a0018181516139729190615846565b9052506138f1565b80841c608086015260a085018051859190613996908390615579565b90525060006139a8600180871b615579565b60009792169550909350505050565b60006139d6604051806040016040528060608152602001606081525090565b604080518082019091526060808252602082015260006139f585613f21565b90945092509050600081600e811115613a1057613a1061585e565b14613a1d57949350505050565b613a288584846145d7565b95945050505050565b6000610609828360c001518460e001516145d7565b60006080820181905260a082018190526040820151516060830151829190613a6f906004615846565b1115613a7e5750600192915050565b604083015160608401805190613a938261588a565b905281518110613aa557613aa5615874565b0160200151604084015160608501805160f89390931c935060089290613aca8261588a565b905281518110613adc57613adc615874565b602001015160f81c60f81b60f81c60ff16901b81179050801960ff168360400151846060018051809190613b0f9061588a565b905281518110613b2157613b21615874565b016020015160f81c141580613b6c5750604083015160608401805160ff841960081c169291613b4f8261588a565b905281518110613b6157613b61615874565b016020015160f81c14155b15613b7a5750600492915050565b826040015151818460600151613b909190615846565b1115613b9f5750600192915050565b8251516020840151613bb2908390615846565b1115613bc15750600292915050565b8015613c4d57613bd2600182615579565b90508260400151836060018051809190613beb9061588a565b905281518110613bfd57613bfd615874565b602001015160f81c60f81b8360000151846020018051809190613c1f9061588a565b905281518110613c3157613c31615874565b60200101906001600160f81b031916908160001a905350613bc1565b50600092915050565b600080600080613c64615133565b600092505b600f8311613ca657600089600001518481518110613c8957613c89615874565b602090810291909101015282613c9e8161588a565b935050613c69565b600093505b86841015613d1257885188613cc08689615846565b81518110613cd057613cd0615874565b602002602001015181518110613ce857613ce8615874565b602002602001018051809190613cfd9061588a565b90525083613d0a8161588a565b945050613cab565b868960000151600081518110613d2a57613d2a615874565b60200260200101511415613d45576000945050505050613f19565b60019150600192505b600f8311613dc8578851805160019390931b9284908110613d7157613d71615874565b6020026020010151821015613d8d57600e945050505050613f19565b8851805184908110613da157613da1615874565b602002602001015182613db49190615579565b915082613dc08161588a565b935050613d4e565b60006020820152600192505b600f831015613e4d578851805184908110613df157613df1615874565b6020026020010151818460108110613e0b57613e0b615874565b6020020151613e1a9190615846565b81613e26856001615846565b60108110613e3657613e36615874565b602002015282613e458161588a565b935050613dd4565b600093505b86841015613f005787613e658588615846565b81518110613e7557613e75615874565b6020026020010151600014613eee5760208901518490828a613e97848b615846565b81518110613ea757613ea7615874565b602002602001015160108110613ebf57613ebf615874565b60200201805190613ecf8261588a565b905281518110613ee157613ee1615874565b6020026020010181815250505b83613ef88161588a565b945050613e52565b60008211613f0f576000613f12565b600e5b9450505050505b949350505050565b6000613f40604051806040016040528060608152602001606081525090565b6040805180820190915260608082526020820152600080808080613f67601e61011e615846565b6001600160401b03811115613f7e57613f7e615234565b604051908082528060200260200182016040528015613fa7578160200160208202803683370190505b50905060006040518060400160405280600f6001613fc59190615846565b6001600160401b03811115613fdc57613fdc615234565b604051908082528060200260200182016040528015614005578160200160208202803683370190505b5081526040805161011e8082526123e0820190925260209283019290919082016123c08036833701905050815250905060006040518060400160405280600f60016140509190615846565b6001600160401b0381111561406757614067615234565b604051908082528060200260200182016040528015614090578160200160208202803683370190505b50815260408051601e8082526103e0820190925260209283019290919082016103c0803683375050509052905060006140ca8c60056138e6565b98509450600085600e8111156140e2576140e261585e565b146140fa575092985096509094506145d09350505050565b61410661010189615846565b97506141138c60056138e6565b97509450600085600e81111561412b5761412b61585e565b14614143575092985096509094506145d09350505050565b61414e600188615846565b965061011e8811806141605750601e87115b1561417a57506005995090975095506145d0945050505050565b6141838c614e02565b9095509350600085600e81111561419c5761419c61585e565b146141b4575092985096509094506145d09350505050565b6141c2838560136000613c56565b9450600085600e8111156141d8576141d861585e565b146141f257506006995090975095506145d0945050505050565b600095505b6142018789615846565b8610156143fa576000806142158e86615024565b9097509150600087600e81111561422e5761422e61585e565b146142485750949a5091985096506145d095505050505050565b60108210156142805781868961425d8161588a565b9a508151811061426f5761426f615874565b6020026020010181815250506143f3565b506000601082141561431f57876142a9575060079b509299509097506145d09650505050505050565b856142b560018a615579565b815181106142c5576142c5615874565b602002602001015190506142da8e60026138e6565b9097509250600087600e8111156142f3576142f361585e565b1461430d5750949a5091985096506145d095505050505050565b614318836003615846565b915061437f565b8160111415614333576142da8e60036138e6565b61433e8e60076138e6565b9097509250600087600e8111156143575761435761585e565b146143715750949a5091985096506145d095505050505050565b61437c83600b615846565b91505b614389898b615846565b614393838a615846565b11156143b1575060089b509299509097506145d09650505050505050565b81156143f3576143c2600183615579565b91508086896143d08161588a565b9a50815181106143e2576143e2615874565b6020026020010181815250506143b1565b50506141f7565b836101008151811061440e5761440e615874565b6020026020010151600014156144335750600b995090975095506145d0945050505050565b61444083858a6000613c56565b9450600085600e8111156144565761445661585e565b141580156144e05750600185600e8111156144735761447361585e565b14806144905750600285600e81111561448e5761448e61585e565b145b806144e057508251805160019081106144ab576144ab615874565b602002602001015183600001516000815181106144ca576144ca615874565b60200260200101516144dc9190615846565b8814155b156144fa57506009995090975095506145d0945050505050565b6145068285898b613c56565b9450600085600e81111561451c5761451c61585e565b141580156145a65750600185600e8111156145395761453961585e565b14806145565750600285600e8111156145545761455461585e565b145b806145a6575081518051600190811061457157614571615874565b6020026020010151826000015160008151811061459057614590615874565b60200260200101516145a29190615846565b8714155b156145c05750600a995090975095506145d0945050505050565b5060009950909750955050505050505b9193909250565b6000806000806000604051806103a00160405280600361ffff168152602001600461ffff168152602001600561ffff168152602001600661ffff168152602001600761ffff168152602001600861ffff168152602001600961ffff168152602001600a61ffff168152602001600b61ffff168152602001600d61ffff168152602001600f61ffff168152602001601161ffff168152602001601361ffff168152602001601761ffff168152602001601b61ffff168152602001601f61ffff168152602001602361ffff168152602001602b61ffff168152602001603361ffff168152602001603b61ffff168152602001604361ffff168152602001605361ffff168152602001606361ffff168152602001607361ffff168152602001608361ffff16815260200160a361ffff16815260200160c361ffff16815260200160e361ffff16815260200161010261ffff1681525090506000604051806103a00160405280600060ff168152602001600060ff168152602001600060ff168152602001600060ff168152602001600060ff168152602001600060ff168152602001600060ff168152602001600060ff168152602001600160ff168152602001600160ff168152602001600160ff168152602001600160ff168152602001600260ff168152602001600260ff168152602001600260ff168152602001600260ff168152602001600360ff168152602001600360ff168152602001600360ff168152602001600360ff168152602001600460ff168152602001600460ff168152602001600460ff168152602001600460ff168152602001600560ff168152602001600560ff168152602001600560ff168152602001600560ff168152602001600060ff1681525090506000604051806103c00160405280600161ffff168152602001600261ffff168152602001600361ffff168152602001600461ffff168152602001600561ffff168152602001600761ffff168152602001600961ffff168152602001600d61ffff168152602001601161ffff168152602001601961ffff168152602001602161ffff168152602001603161ffff168152602001604161ffff168152602001606161ffff168152602001608161ffff16815260200160c161ffff16815260200161010161ffff16815260200161018161ffff16815260200161020161ffff16815260200161030161ffff16815260200161040161ffff16815260200161060161ffff16815260200161080161ffff168152602001610c0161ffff16815260200161100161ffff16815260200161180161ffff16815260200161200161ffff16815260200161300161ffff16815260200161400161ffff16815260200161600161ffff1681525090506000604051806103c00160405280600060ff168152602001600060ff168152602001600060ff168152602001600060ff168152602001600160ff168152602001600160ff168152602001600260ff168152602001600260ff168152602001600360ff168152602001600360ff168152602001600460ff168152602001600460ff168152602001600560ff168152602001600560ff168152602001600660ff168152602001600660ff168152602001600760ff168152602001600760ff168152602001600860ff168152602001600860ff168152602001600960ff168152602001600960ff168152602001600a60ff168152602001600a60ff168152602001600b60ff168152602001600b60ff168152602001600c60ff168152602001600c60ff168152602001600d60ff168152602001600d60ff16815250905060005b8761010014614df057614b118c8c615024565b98509050600081600e811115614b2957614b2961585e565b14614b3d5797506106d79650505050505050565b610100881015614bb3578b515160208d01511415614b66576002985050505050505050506106d7565b8760f81b8c600001518d6020015181518110614b8457614b84615874565b60200101906001600160f81b031916908160001a90535060208c01805190614bab8261588a565b905250614afe565b610100881115614dde576000614bcb6101018a615579565b9850601d8910614be757600c99505050505050505050506106d7565b614c0a8d868b601d8110614bfd57614bfd615874565b602002015160ff166138e6565b9092509050600082600e811115614c2357614c2361585e565b14614c38575097506106d79650505050505050565b80868a601d8110614c4b57614c4b615874565b602002015161ffff16614c5e9190615846565b9750614c6a8d8c615024565b99509150600082600e811115614c8257614c8261585e565b14614c97575097506106d79650505050505050565b614cad8d848b601e8110614bfd57614bfd615874565b9092509050600082600e811115614cc657614cc661585e565b14614cdb575097506106d79650505050505050565b80848a601e8110614cee57614cee615874565b602002015161ffff16614d019190615846565b96508c60200151871115614d2157600d99505050505050505050506106d7565b8c515160208e0151614d34908a90615846565b1115614d4c57600299505050505050505050506106d7565b8715614dd857614d5d600189615579565b97508c60000151878e60200151614d749190615579565b81518110614d8457614d84615874565b602001015160f81c60f81b8d600001518e6020015181518110614da957614da9615874565b60200101906001600160f81b031916908160001a90535060208d01805190614dd08261588a565b905250614d4c565b50614afe565b868c602001818151614bab9190615846565b5060009b9a5050505050505050505050565b60006060818080614e16601e61011e615846565b6001600160401b03811115614e2d57614e2d615234565b604051908082528060200260200182016040528015614e56578160200160208202803683370190505b506040805161026081018252601081526011602082015260129181019190915260006060820181905260086080830152600760a0830152600960c0830152600660e0830152600a6101008301526005610120830152600b61014083015260046101608301819052600c61018084015260036101a0840152600d6101c084015260026101e0840152600e6102008401526001610220840152600f61024084015292935091614f049089906138e6565b95509150600082600e811115614f1c57614f1c61585e565b14614f2d5750969095509350505050565b614f38600486615846565b9450600093505b84841015614fc157614f528860036138e6565b84838760138110614f6557614f65615874565b602002015160ff1681518110614f7d57614f7d615874565b60209081029190910101529150600082600e811115614f9e57614f9e61585e565b14614faf5750969095509350505050565b83614fb98161588a565b945050614f3f565b601384101561501457600083828660138110614fdf57614fdf615874565b602002015160ff1681518110614ff757614ff7615874565b60209081029190910101528361500c8161588a565b945050614fc1565b5060009791965090945050505050565b600080600181808080805b600f86116151205760006150448b60016138e6565b9092509050600082600e81111561505d5761505d61585e565b146150745750965060009550610988945050505050565b89518051968217968890811061508c5761508c615874565b6020026020010151935083856150a29190615846565b8610156150ed5760208a01516000906150bb8789615579565b6150c59086615846565b815181106150d5576150d5615874565b60200260200101519850985050505050505050610988565b6150f78484615846565b92506151038486615846565b600196871b961b94508690506151188161588a565b96505061502f565b50600c9960009950975050505050505050565b6040518061020001604052806010906020820280368337509192915050565b60006020828403121561516457600080fd5b5035919050565b60005b8381101561518657818101518382015260200161516e565b83811115615195576000848401525b50505050565b600081518084526151b381602086016020860161516b565b601f01601f19169290920160200192915050565b60a0815260006151da60a083018861519b565b82810360208401526151ec818861519b565b90508281036040840152615200818761519b565b90508281036060840152615214818661519b565b90508281036080840152615228818561519b565b98975050505050505050565b634e487b7160e01b600052604160045260246000fd5b604051606081016001600160401b038111828210171561526c5761526c615234565b60405290565b604051601f8201601f191681016001600160401b038111828210171561529a5761529a615234565b604052919050565b60006001600160401b038211156152bb576152bb615234565b50601f01601f191660200190565b600082601f8301126152da57600080fd5b81356152ed6152e8826152a2565b615272565b81815284602083860101111561530257600080fd5b816020850160208301376000918101602001919091529392505050565b60006020828403121561533157600080fd5b81356001600160401b038082111561534857600080fd5b908301906060828603121561535c57600080fd5b61536461524a565b82358281111561537357600080fd5b61537f878286016152c9565b82525060208301358281111561539457600080fd5b6153a0878286016152c9565b6020830152506040830135604082015280935050505092915050565b6040815260006153cf604083018561519b565b8281036020840152613a28818561519b565b634e487b7160e01b600052601260045260246000fd5b600063ffffffff8084168061540e5761540e6153e1565b92169190910692915050565b60006154286152e8846152a2565b905082815283838301111561543c57600080fd5b6106d783602083018461516b565b600082601f83011261545b57600080fd5b6106d78383516020850161541a565b60006020828403121561547c57600080fd5b81516001600160401b038082111561549357600080fd5b90830190606082860312156154a757600080fd5b6154af61524a565b8251828111156154be57600080fd5b6154ca8782860161544a565b8252506020830151828111156154df57600080fd5b6154eb8782860161544a565b6020830152506040830151604082015280935050505092915050565b6000815161551981856020860161516b565b9290920192915050565b6000835161553581846020880161516b565b83519083019061554981836020880161516b565b651e17b9bb339f60d11b9101908152600601949350505050565b634e487b7160e01b600052601160045260246000fd5b60008282101561558b5761558b615563565b500390565b600060ff8316806155a3576155a36153e1565b8060ff84160691505092915050565b600063ffffffff8083168185168083038211156155d1576155d1615563565b01949350505050565b600063ffffffff838116908316818110156155f7576155f7615563565b039392505050565b6000825161561181846020870161516b565b9190910192915050565b60006020828403121561562d57600080fd5b81516001600160401b0381111561564357600080fd5b8201601f8101841361565457600080fd5b613f198482516020840161541a565b7f3c7376672076696577426f783d2730203020363430203634302720776964746881527f3d273130302527206865696768743d27313030252720786d6c6e733d2768747460208201527f703a2f2f7777772e77332e6f72672f323030302f737667273e3c7374796c653e60408201527f2040666f6e742d66616365207b20666f6e742d66616d696c793a20436f7572696060820152716572466f6e743b207372633a2075726c282760701b608082015260008651615728816092850160208b0161516b565b77272920666f726d617428276f70656e7479706527293b207d60401b609291840191820152712e626173657b66696c7465723a75726c282360701b60aa820152865161577b8160bc840160208b0161516b565b66149db334b6361d60c91b60bc929091019182015261522861583561582f6157f66157f06157ac60c387018c615507565b7f3b666f6e742d66616d696c793a436f7572696572466f6e743b666f6e742d73698152713d329d10189b383c1dbe9e17b9ba3cb6329f60711b602082015260320190565b89615507565b7f3c726563742077696474683d223130302522206865696768743d223130302522815266103334b6361e9160c91b602082015260270190565b86615507565b6401110179f160dd1b815260050190565b6000821982111561585957615859615563565b500190565b634e487b7160e01b600052602160045260246000fd5b634e487b7160e01b600052603260045260246000fd5b600060001982141561589e5761589e615563565b506001019056fea264697066735822122005c36c4204a0fa9862c9ca1c27df1968811897c74f776c879099d33cef697ae564736f6c63430008090033",
  "deployedBytecode": "0x608060405234801561001057600080fd5b506004361061002b5760003560e01c8063b0dc78fa14610030575b600080fd5b61004361003e3660046111c0565b610059565b6040516100509190611226565b60405180910390f35b61007d60405180606001604052806060815260200160608152602001600081525090565b816100d157604051806080016040528060448152602001611e1560449139602080830191909152604a604080840191909152805180820190915260088152674d6e656d6f6e696360c01b9181019190915281525b816001141561012457604051806080016040528060518152602001611b1260519139602080830191909152605e60408084019190915280518082019091526003815262090caf60eb1b9181019190915281525b816002141561017a5760405180608001604052806057815260200161258560579139602080830191909152606a6040808401919091528051808201909152600681526542696e61727960d01b9181019190915281525b81600314156101cf576040518060800160405280605a815260200161136f605a91396020808301919091526083604080840191909152805180820190915260058152644d6f72736560d81b9181019190915281525b8160041415610223576040518060a0016040528060638152602001611d2d606391396020808301919091526101386040808401919091528051808201909152600381526233783560e81b9181019190915281525b816005141561027a576040518060a00160405280606a81526020016121c7606a9139602080830191909152610146604080840191909152805180820190915260068152651358591c9a5960d21b9181019190915281525b81600614156102d5576040518060a00160405280607d8152602001612034607d91396020808301919091526101c36040808401919091528051808201909152600a8152691219585c9d081319599d60b21b9181019190915281525b8160071415610335576040518060c0016040528060878152602001611a8b608791396020808301919091526101da6040808401919091528051808201909152600f81526e20a9a1a4a4902732bb902937b6b0b760891b9181019190915281525b8160081415610390576040518060a00160405280607b8152602001611654607b913960208083019190915261021f6040808401919091528051808201909152600a81526954696e6b65722d546f7960b01b9181019190915281525b81600914156103eb576040518060c0016040528060868152602001611ca7608691396020808301919091526102386040808401919091528051808201909152600a8152694a53204375727369766560b01b9181019190915281525b81600a1415610445576040518060c00160405280608c8152602001611958608c9139602080830191909152610266604080840191909152805180820190915260098152680526f77616e204361760bc1b9181019190915281525b81600b141561049d576040518060a0016040528060788152602001612a29607891396020808301919091526102a4604080840191909152805180820190915260078152664c65747465727360c81b9181019190915281525b81600c14156104f6576040518060c0016040528060938152602001612e26609391396020808301919091526102aa6040808401919091528051808201909152600881526714dd185b99185c9960c21b9181019190915281525b81600d141561054d576040518060c00160405280608881526020016120b1608891396020808301919091526102ef6040808401919091528051808201909152600681526550757a7a6c6560d01b9181019190915281525b81600e14156105a3576040518060c001604052806088815260200161178a608891396020808301919091526102f26040808401919091528051808201909152600581526414db185b9d60da1b9181019190915281525b81600f14156105f9576040518060c00160405280608d8152602001612f53608d91396020808301919091526102f46040808401919091528051808201909152600581526414dc19595960da1b9181019190915281525b8160101415610650576040518060c00160405280608681526020016115ce6086913960208083019190915261032d6040808401919091528051808201909152600681526514d8dc9a5c1d60d21b9181019190915281525b81601114156106a6576040518060e0016040528060a7815260200161152760a79139602080830191909152610348604080840191909152805180820190915260058152642a3930b4b760d91b9181019190915281525b81601214156106fc576040518060c00160405280608e8152602001612139608e913960208083019190915261034e60408084019190915280518082019091526005815264526f7a7a6f60d81b9181019190915281525b8160131415610752576040518060e0016040528060a881526020016122b160a8913960208083019190915261035060408084019190915280518082019091526005815264436172647360d81b9181019190915281525b81601414156107aa576040518060a00160405280607b8152602001611e59607b913960208083019190915261035c604080840191909152805180820190915260078152664e6970706c657360c81b9181019190915281525b8160151415610803576040518060a00160405280607b8152602001612bd9607b913960208083019190915261035c60408084019190915280518082019091526008815267436f696e7374616b60c01b9181019190915281525b816016141561085b576040518060a00160405280607b81526020016114ac607b913960208083019190915261035c604080840191909152805180820190915260078152662a3ab13ab630b960c91b9181019190915281525b81601714156108b1576040518060e0016040528060a781526020016119e460a7913960208083019190915261036460408084019190915280518082019091526005815264507566667960d81b9181019190915281525b816018141561090a576040518060c0016040528060938152602001612aa16093913960208083019190915261036b6040808401919091528051808201909152600881526712d95e589bd85c9960c21b9181019190915281525b8160191415610966576040518060e0016040528060af815260200161297a60af91396020808301919091526103816040808401919091528051808201909152600b81526a4669726520466f6e742d6b60a81b9181019190915281525b81601a14156109be576040518060e0016040528060a5815260200161270f60a591396020808301919091526103b1604080840191909152805180820190915260078152664a617a6d696e6560c81b9181019190915281525b81601b1415610a16576040518060a00160405280607b81526020016125dc607b91396020808301919091526103cc6040808401919091528051808201909152600781526642616e6e65723360c81b9181019190915281525b81601c1415610a72576040518060c0016040528060938152602001611ed4609391396020808301919091526103d66040808401919091528051808201909152600b81526a1419585adcc814db185b9d60aa1b9181019190915281525b81601d1415610acc5760405180610100016040528060cc81526020016127b460cc91396020808301919091526103fe6040808401919091528051808201909152600881526712195b9c9e480cd160c21b9181019190915281525b81601e1415610b2a5760405180610100016040528060da815260200161235960da91396020808301919091526104026040808401919091528051808201909152600c81526b11185b98da5b99c8119bdb9d60a21b9181019190915281525b81601f1415610b80576040518060a00160405280608081526020016122316080913960208083019190915261041c604080840191909152805180820190915260058152645065616b7360d81b9181019190915281525b8160201415610bd9576040518060e0016040528060b481526020016124d160b491396020808301919091526104236040808401919091528051808201909152600881526713185c9c9e480cd160c21b9181019190915281525b8160211415610c2f576040518060e0016040528060a58152602001612b3460a5913960208083019190915261044260408084019190915280518082019091526005815264476f6f667960d81b9181019190915281525b8160221415610c885760405180610120016040528060e98152602001612d3d60e9913960208083019190915261046a60408084019190915280518082019091526007815266436f736d696b6560c81b9181019190915281525b8160231415610ce25760405180610100016040528060cd8152602001611f6760cd91396020808301919091526104946040808401919091528051808201909152600881526708ed0deead8d2e6d60c31b9181019190915281525b8160241415610d3a576040518060c00160405280609e8152602001612433609e91396020808301919091526104a66040808401919091528051808201909152600781526614c8109b1bdbd960ca1b9181019190915281525b8160251415610d93576040518060c0016040528060868152602001612fe0608691396020808301919091526104a66040808401919091528051808201909152600881526755534120466c616760c01b9181019190915281525b8160261415610de9576040518060c0016040528060838152602001611c24608391396020808301919091526104cc6040808401919091528051808201909152600581526454696c657360d81b9181019190915281525b8160271415610e3f576040518060e0016040528060bb81526020016116cf60bb9139602080830191909152610503604080840191909152805180820190915260058152642937b6b0b760d91b9181019190915281525b8160281415610e98576040518060c0016040528060858152602001611d906085913960208083019190915261058c60408084019190915280518082019091526008815267426172627769726560c01b9181019190915281525b8160291415610ef35760405180610120016040528060e98152602001612c5460e991396020808301919091526105c260408084019190915280518082019091526009815268131a5b0811195d9a5b60ba1b9181019190915281525b81602a1415610f47576040518060c00160405280609a8152602001612eb9609a91396020808301919091526105f4604080840191909152805180820190915260038152620ccb5160ea1b9181019190915281525b81602b1415610f9e576040518060c00160405280608881526020016118d0608891396020808301919091526105f8604080840191909152805180820190915260068152654172726f777360d01b9181019190915281525b81602c1415610ff9576040518060e0016040528060b8815260200161265760b8913960208083019190915261063f6040808401919091528051808201909152600a81526920b63634b3b0ba37b91960b11b9181019190915281525b81602d14156110575760405180610100016040528060c18152602001611b6360c191396020808301919091526106b26040808401919091528051808201909152600c81526b29b630b73a102932b634b2b360a11b9181019190915281525b81602e14156110b4576040518060e0016040528060be815260200161181260be91396020808301919091526107506040808401919091528051808201909152600c81526b426967204d6f6e65792d6e7760a01b9181019190915281525b81602f141561110a5760405180610120016040528060fa815260200161288060fa913960208083019190915261076e604080840191909152805180820190915260048152632132b0b960e11b9181019190915281525b81603014156111615760405180610120016040528060f8815260200161127760f8913960208083019190915261077e6040808401919091528051808201909152600581526411da1bdcdd60da1b9181019190915281525b81603114156111bb5760405180610120016040528060e381526020016113c960e391396020808301919091526107ab6040808401919091528051808201909152600881526723b2b7b933b4989b60c11b9181019190915281525b919050565b6000602082840312156111d257600080fd5b5035919050565b6000815180845260005b818110156111ff576020818501810151868301820152016111e3565b81811115611211576000602083870101525b50601f01601f19169290920160200192915050565b60208152600082516060602084015261124260808401826111d9565b90506020840151601f1984830301604085015261125f82826111d9565b91505060408401516060840152809150509291505056fec5555d0b823014fd2b83a08b4fce154df00342ead53f104c2bdf22027d50f0c7a7416bda9c1b8d7cf232ef3d3be7ec4cc3aaa82b54478001351190ad0fe872cbcb3282735e16108755f9c8ef7d07f13680ae0d8ac0db41bc5ed518e33d0efe50b0d92672e80b423cf25ea081a3031dba2f7dcbcb24fed70a1d881bf5a4292f1d664f17494423a79e22292d71c90f28aa61c75027f7542742dcf6a32a5cad42403646a22ab9adf9e949366f99242c43fe7d665aeb39b6445f792ce221249fa1d33490e41651f5be7aec3b7b75d8d3c9a077008ce74b036ae69d1df745d632cfa992cc222a06976deec3a5ab2933e83519e2aadcfebf1b3f01b32949ad2851a8b055375057a8b455373634525748ce492c2eb6554f4a2c4e55b7b329292e48cc03a930b2b4505748a954b055373453b75353ae30323234b246a20d0c0c8c5ca10c47036bec2a801236fa6033ed8034d0723b00d555410a833010fc4aa0d03d9aa6902a1aa1941ef7019eaca9bd95528807fd7d9b6243c45423e4606f9bcd647626ec2659736b1bd20aa0403a016ccf805cef95520264a56e90678d7a560f8d603406527744c08e43beddb494d2234d4d5096e3dc4450baf07e1c93a82cfa289e17ce1125229af5c58af5de98da9d9d2bc87b5a767897903efe107962cb1aaca47761cb8f45ed27c0480e86f2105c7c09cffd71764a3159223830cabb970af4d3b90ec12c4e7191da75dfbc994ad337fa8d4074bd2f3fb3be533ceda090a1ee3578b078f89c2c75f2b706872db35e1f634391fea4f317b32949ad2851a8b055375057a8b455373237525748ce492c2eb6554f4a2c4e55b7b329292e48cc03a9303232565748a954b055373453b75353ae3030307034b0c664f8d7d5e197adc3aa14996da30fb696b0ed58edc2652a9220564d846c25e8319ad83a307ec5e351828ea0a52bf0c7c1c032e0bed107e52a3b00b32949ad2851a8b055375057a8b455373237525748ce492c2eb6554f4a2c4e55b7b329292e48cc03a93032b1505748a954b055373453b75353ae3030307034b0c664c4c72398789451c8b0d107bb8c64071ab921b93401ceacc1e20f6c3ea286436260e619395b637100ba538cccb1d81a430d87d4c4c35de2668d4d1a0c89b600a6d4c8c89a18460da9ea49f429500b287e8d8c0c8dac0d301868614b92626427e88372901d00b32949ad2851a8b055375057a8b45537b200d2c93989c5c5b6ea4989c5a9ea763625c50589792015462616ea0a29950ab6ea8666ea766aca150606068e06d670467c3c8469e46c8d45925c2138c3461fec12621d64e486c58c1a3c8a6a481122cb6131f170f36a4870240e21846124860c2603e1203c8aa8c8a0c0c13103e3507d5036b10300b32949ad2851a8b055375057a8b45537b200d2c93989c5c5b6ea4989c5a9ea763625c5058979201546e616ea0a29950ab6ea8666ea76f96aca1546468646d6301a24606060e068600d97f2c794b3d1079b87d3d81ab84a38a386481621a3315cec8fe262dc2c4206633a198bebc86390eca77c6a59a80f4a187600b32949ad2851a8b055375057a8b455373233515748ce492c2eb6554f4a2c4e55b7b329292e48cc03a930b4b0505748a95400b2ccd4edd4942b0c0c0c1c0dac210c2357eb7c2880cbc0d940496cca714992a80ac8b0d107bb12a7632d2c2ca0c698233425585824611a0514b508802a36b28e04aa41e551603956a7d3599690634181929f020f0173ebc1e538e414863549e4030dce278a47c8b21478b4e3f1062623d28524e5838441283090b300520631b71ed29ed507157e7600b32949ad2851a8b055375057a8b45537b200d2c93989c5c5b6ea4989c5a9ea763625c505897920154626c6ea0a29950ab6ea8666ea766aca150606068e06d6988c782040e1a0f0e06c1b7db0d124db60e4866c159c99805f16891d43a2cdc846c245e2f1c8d14e846897c7c0fc6be44ca2e3499423ce4520bdf0b8c7349aa60cb80bf54169dd0e00b32949ad2851a8b055375057a8b4553732b1505748ce492c2eb6554f4a2c4e55b7b329292e48cc03a9303234565748a954b055373453b75353ae3030307034b086308c4c4863c4a0e9a7d420926db3d1077b8c80ff304d4336233e9eb055044c2053510cf5fc61e4664d7c5c00a56ac8309172c53514f8b3866afeab21c1000afd13435e7618b4fe81ab8c898f8fc797ec6b800a6a9055a372484f07388b1ad2bc4d67064dd307b24583dc9fa8e9069e72dcac07d6d998eed707d5a47600b32949ad2851a8b055375057a8b455373237525748ce492c2eb6554f4a2c4e55b7b329292e48cc03a9303234565748a954b055373453b75353ae3030307034b0c6c5307685315cd045f0e8c2a7dd05a78178ecc2670e36f7d8e8833d4cacbf49f2253d14936b2071fe262f5287bebf476a7c139353a9e6dd41ed6f0a8bb30167c0fdad0f2af1ed00b32949ad2851a8b055375057a8b45537b200d2c93989c5c5b6ea4989c5a9ea763625c505897920154646c6ea0a29950ab6ea8666ea766aca150606068e06d6b81846aed689be401000174ff1858224b8908d3ed878126c4981196864644dd00d68eab1b2497105b2265f1c86e162136d1bc295ae44198cd512a26d0bf3f5c516a2e4598669ab3e287dd90100b32949ad2851a8b055375057a8b455373237525748ce492c2eb6554f4a2c4e55b7b329292e48cc03a9303231565748a954b055373453b75353ae3030307034b0c664c4c7e3914452158f950d67d8e883ad26d605466e3086b935c2b484184c5984b50865d8c4628873819105baef8022f19a70b19a1a4c69b88826517235845c9210832d046bb039878018e97ed644f62b31314f2183e87411034f5658639f0e2ed407e52e3b00b32949ad2851a8b055375057a8b45537b2b0505748ce492c2eb6554f4a2c4e55b7b329292e48cc03a9303203caa5542ad8aa1b9aa9dba92957181818381a58c703018463e46c8d248a450c2e64a30f369580e1461620bd4646864650338cdcb01986a1b82606aebc06ae9e382b4106c7c4c723b4616192e87e8866e219e4e942f6a13e284eed00b32949ad2851a8b055375057a8b455373634525748ce492c2eb6554f4a2c4e55b7b329292e48cc03a9303630565748a954b055373453b733335753ae3030307034b0367381336df4c1caed8034d05c3b00b32949ad2851a8b055375057a8b4553732b1505748ce492c2eb6554f4a2c4e55b7b329292e48cc03a9303432565748a95400b2ccd4ede2090235e50a03030347036b0a1936fa6027e074095c21cd9d44b44b909d04611bb959c74001359d46ba8b909c86ec32381b0f03ea76540f61f2e3e9e503845762b03a36068b03f17b8f907c3cbd7c84144b44450d0167c7e0e0a1466d0cb15ea5aa0fb12748709ec0743a7e2ebd5c4a54c28b27cfe93476311513169c118fdf2c4aa5e121a20faaabec00b32949ad2851a8b055375057a8b455373237525748ce492c2eb6554f4a2c4e55b7b329292e48cc03a9303232565748a954b055373453b75353ae3030307034b0c66444435846aed6680cd254236b8b2653ce461fec7cc2be20cacde4ba02a722028613723d95027a805c3fb4c31e4f4053c9f103e30bd2d2d4c032e0bed30795627600b32949ad2851a8b055375057a8b45537b2b0505748ce492c2eb6554f4a2c4e55b7b329292e48cc03a9303233565748a954b055373453b75353ae3030307034b08633e2e331c5d01846ce40553075400e5cda461f6c0d4edb605a2cac612c37b87d4026ba35c488008d22642bc26b084b09fa916c0671ae01ba1b979768ca80bb4e1f9462ec00b32949ad2851a8b055375057a8b45537b2b0505748ce492c2eb6554f4a2c4e55b7b329292e48cc03a930b234565748a954b055373453b75356565653ae3030307034b04666dbe88335e0d687d045967e244dd84c22de1d48fa8961c0cdd30785981d00b32949ad2851a8b055375057a8b455373237525748ce492c2eb6554f4a2c4e55b7b329292e48cc03a9303232565748a954b055373453b75353ae3030307034b0c6c5307685319cd119e4e9c2d44e8c15f8d5d8e883bd47ac2f49f213e5ae23a898484b89f325d5236c50fa7264c4259e08a3bae706932fc94bc303c580fb521f540adb0100b32949ad2851a8b055375057a8b455373634525748ce492c2eb6554f4a2c4e55b7b329292e48cc03a9303632565748a954b055373453b74bcfb5d1074bd90169a0197600b32949ad2851a8b055375057a8b455373237525748ce492c2eb6554f4a2c4e55b7b329292e48cc03a9303232565748a954b055373453b75353ae3030307034b0c66454c7c7e3978dc7aa14996da30fb696b0ed58edc2652a9220564d846c25e8319ad83a307ec5e351828ea0a52bf0c7c1c032e0bed107e52a3b00b32949ad2851a8b055375057a8b455373237525748ce492c2eb6554f4a2c4e55b7b329292e48cc03a93034b3505748a95400b1d4edd4942b0c0c0c1c0dac8961c4e30136fa601b28b208680c846de4661d839f4548257679b80540cb2870703c293612eb2302fec17405e91ea0387c914571a8c0136c443b189aa4488ad778d2dd43b4c34808350c405206833b441f949fed00ad544b0a833010bd4aa0d0212be32caa102388e82984d4b6ee4a29c485debed8d2688d4953edee31df376f2649daa66b49278001e905608440ced75a2901a75a359026adbad7b72102310672e98980f000e97ed731c632c64d40ab17c462b02186c8a7065b9a91efed4c8227495fae98bf41c4175d53ca3997d4460763eb18baf4d8ac34624abe76165767a7c852bab4f5d9ce5702bf2c845a652bb81c376dac60b17da57dd5dcf65f85f3adfa6870d4d3529fe3a0ab15d6e53e149e5d8cf91e36826933872e7a9860f88dd207b32949ad2851a8b055375057a8b45537b234535748ce492c2eb6554f4a2c4e55b7b329292e48cc03a93032b3505748a954b055373453b75353ae3030307034b086308c5c410c23234323fc02e4ebb1d107bb8480838c2c103ad2b1da0762985b63aace25a89a6847001526a01b6281ee7b640669aae18ed007459e1d00b32949ad2851a8b055375057a8b45537b200d2c93989c5c5b6ea4989c5a9ea763625c5058979201546c616ea0a29950ab6ea8666ea766aca150606068e06d6c430e249524da94136fa603793e374a8f946160821cdf878f23510ed94f81ad2c2a186640dc43905e81184ebdd71863b42198a065f223490154135d8c3b986a002b855faa0846e0700b32949ad2851a8b055375057a8b455373237525748ce492c2eb6554f4a2c4e55b7b329292e48cc03a93032b2505748a954b055373453b75353ae3030307034b04eb5b080b32d8861a7c29970868d3ed8169c96a558906a894512d18647926eb805d186a3f9d5c8c89a7e96216c75b6c694b2b008c0a59ea60c32420cce827b27004d88ce7ec0f48c3e281fd90100b32949ad2851a8b055375057a8b45537b234535748ce492c2eb6554f4a2c4e55b7b329292e48cc03a930b230565748a954b055373453b75353ae3030303072b386308c5dac6b202c47036b4cb918741650958d3ed8689c36c46031193f8b1c13c963c06dd207859f1d00b32949ad2851a8b055375057a8b455373237525748ce492c2eb6554f4a2c4e55b7b329292e48cc03a9303232565748a954b055373453b75353ae3030307034b0c6c53072b38e8b234e551c115a51c56cf4c1ce22d67578dd42d8362c92780d23ce752404d000b86e70871d9e0023c191f4772571713e500cb8aff441a5821d00b32949ad2851a8b055375057a8b455373237525748ce492c2eb6554f4a2c4e55b7b329292e48cc03a9303235565748a954b055373453b75353ae3030303072b506328c8c0c8d48a1e11a2934c1461fec389c6eac71c76707b22b1c0dac6b6a7c49514dd06eb85208c3d811668a9b750c9a10d87634f546163065400d9a14d98b3087087b09a927d57e23735ca1696eed5e438a6a5f827627909992ccadc9d70977933e2827d90100a593dd0a823018866f6510f4e19173860a3a21c2eec03361587916114c4161179f8a7f6dd356ede8ddf7fb385ea3b2a84b5453c0801a0ac43b00bade73ce295c725e401c95fc993fba0ae2ba806e0da2e07810ef7735c6f8884355b0f66ca4177566b14944760fb3ca944a2de43c0ad241892a15c3dd9f876652eddced87a232de9d89a954683e4b255b36cc0cca9425d727060d81609b5cbf278d59e687ee7ca15b631cfc7e27b386570cda896bce724fb220bd20c4216f016d2609ff70ac6c8ba0f5a9c5466a75645b20ad557dbbf074125a1b4c76f7efc72fb32949ad2851a8b055375057a8b45537b200d2c93989c5c5b6ea4989c5a9ea763625c505897920154646c6ea0a29950ab6ea8666ea766aca150606068e06d6680c13ca18543710bf5d36fa60ef11eb4b2343121c4e1203d340b85d94aba1d89778ecc1a3d8c480b02e4c9331a58831c784e4b8347624ec164c06a662b83924a9218681d51c127d89e95d4cb7102385c799e4790ebf76b82ff541e5931d00b32949ad2851a8b055375057a8b455373233515748ce492c2eb6554f4a2c4e55b7b329292e48cc03a93032b2505748a954b055373453b75353ae3030307034b0c664c4c7e391c4a63c1e2b1b0fc3461fec2a621d67e40663985b23cc4f88c1a30cc94509c8ec18721d03341ca137c607898d4d9e3431221c81a4271e399091c571b2890e6e841b817660f5633cba2f088a9118d7980c90b9083fc32399c8d4491e830247c7c42305223ddd8ce9787d50e1600700b32949ad2851a8b055375057a8b455373634525748ce492c2eb6554f4a2c4e55b7b329292e48cc03a9303231565748a954b055373453b73330343400624335e50a03030347036b900008c1056cf4c15aed8034d00e3b00b32949ad2851a8b055375057a8b455373233515748ce492c2eb6554f4a2c4e55b7b329292e48cc03a9303236565748a954b055373453b75353ae3030307034b0560603381793815712af721b7db0e538dd409cc9d854117231b5dd409c3b91cc52a69a1bd08cc5ea493a85f9604c07b472135df3873e2817db0100ad55d10a022110fc1561a17d3cb3388254b8fec4eade22027df0febeac3888335d4f7d5a74677667e641e946ef9857c8914d0a45bf4776b9196b159e8d1d514b671fe61e3a043f20bb4e4ce1b647bd01cf391ff8f153ec8636c54c58c4bc44d5f3c8eead3c63c00c15a7aaa512f0e513e586322271433620cdd1a4a08c2815d7ce80171456244f140e594f8b0288339293067ac23fddb0465803ab72c2fe6f182d62ed851485ecb46402f87b22b450bd184416eac2c7a19fb32949ad2851a8b055375057a8b455373233515748ce492c2eb6554f4a2c4e55b7b329292e48cc03a93032b5505748a954b055373453b75353ae3030303072b5ce0f88cc8773200c4703ebfcfcc87c6ce236fa60f3701a6b015789876181ce3232c72689458836d6639724c3fa84c8fcfc00da190f5168ec688d162f5819e836612ac263105629129d07640043032d82316d209b41ba7308061be58ec2e34c7d5056b50300b32949ad2851a8b055375057a8b455373233515748ce492c2eb6554f4a2c4e55b7b329292e48cc03a93032b4505748a954b055373453b75353ae3030307034b0c6c3888f8f47b089d280ac351e9f161b7db0bbc8719e1b92250970b60fa6422f342123736cbe4008410d3372a6c49935282c232343236b185d834511367df1354084458274c72082ca273ede0b67c0a0aa44b0b0e9f0a2c0399ab090c09e387cbce2e3b1db0e1427da36af9878a4c467e466ed5683dbd81ad23de10531de8d98fc407506dcb9faa07c6f0700b555c90a833010fd9540a1434ec6b434820bf4a03df5030a426a5b6fa514f4a0e0c757a5c65de3761b667933f3e6198dd08f4214994000c526d0a306e8f9f682c0848717f8601961f0f53e5906250740af1899a09ec0daef2242c899e86d830fc496666fd0c450f215276f4a35fd89ffa69df92855a95e75d49364465d8239778fb2b9d3f2d80573a2791a73e75d6cbd26d29b72ee0aca84f3262c2c46e21d0299532c37590ac8fb8e5cd0435933c2724eea82e0787dc4053a4a12615eba9c938c4add550e4c5e17cd2f8a9520f716494dbdb296703b9e9a35b1a55535fa72381d23b8fd55783b64e95b8d72366cc8946fd7426ca964ff59eb07b32949ad2851a8b055375057a8b455373233515748ce492c2eb6554f4a2c4e55b7b329292e48cc03a93032b5505748a954b055373453b75353ae3030307034b086308c2cacd1448891c2cad02446918d3ed85d849da719a3a949bc3b48752b71ce809b0a64c46b6ac6e0f33c4e492373327c8f69bf26924be2b13a8f6c5fba2174c427c0993535783c0267c4a03b90086b63e2611e70b646b22e1e0c49f7454d3cdc3c37d252017949461f94f5ec00b32949ad2851a8b055375057a8b45537b200d2c93989c5c5b6ea4989c5a9ea763625c5058979201546c6c6ea0a29950ab6ea8666ea766aca150606068e06d6e96000e7e6e662672271e00c1b7db0e138ed4032169381622716c3098811b61bdd5fd4b7038fefe8ee5fd4f824c9655467c0ddaa0f4a9d7600b32949ad2851a8b055375057a8b455373233515748ce492c2eb6554f4a2c4e55b7b329292e48cc03a93032b1505748a954b055373453b75353ae3030307034b08e87009c7c1b7db009380daa89812b259e61e4664db63e820e42d7e304621819191a61a3e10a205a28d34cbcd36af078b5062f0baf7a121c904ea4c5b954b270b04606304981137c0c061f6e803e2893d90100b32949ad2851a8b055375057a8b455373237525748ce492c2eb6554f4a2c4e55b7b329292e48cc03a93032b4505748a954b055373453b78b8f5753ae3030307034b0268f114fb109f80cb7d107bb1ba7f331b5686275623c16e11a6ab912611089ce3572c3692c5629bc418dc53b353170c36a2877b691056ed7922815439cf34914223af4b1581f83358968d2d379585d403c0318d0f1f1d81c804314ee1c7d50d9610700b32949ad2851a8b055375057a8b455373237525748ce492c2eb6554f4a2c4e55b7b329292e48cc03a9303232565748a954b055373453b75353ae3030307034b0c664f86b6ae297d5c4aa14996da30fb696b0ed58edc2652a9220564d846c25e8319ad83a307ec5e351828ea0a52bf0c7c1c032e0bed107e52a3b00bd94cd0a83300cc75fa53058f0648d4c053f6088bbfa0203759bb731067a50e8c36f6ea3d4aed52273a786364d7ef9276dd4d65d4bba1828903e06dc7940ced7aa696238554d0d49d436f7ea36782006402e3d89c1f120d96e3a4ae99e862b196e3a18880e7e3630935d30084bc9c70fadef8091fdaae107a5bc1984846eb6b0c8232f21cff9a6552c65c6915af23aa395fab228391ef49228fa6499d13f098c8596846213d29632bc3fd50836c7aa48c5666953a1d3fa009c4c64652b317ee70ac282b7d720c2ccd91248116d3c9a5329ffc03a1a26ddb352bd185f3390a6be069738bb3dfcddc903ad54cf0b823014fe570641efd87a4a0a738248dd842e1d6497d4bc45067ad0ffbe19f5322d5dd263876fdbf77e7d6fccabf2ba62b5040eac91800e02cbce49594a48933207dfabca6b726919c82d60a78649586fc05f2e6ace79c0450fe0f609c21620aef17160053f00dc89c90cc3ab7980927ee478abbb021342e86e45af5f74c4511b6d46728837cdcc7b24c75f0a564a8d845477a3217436e16010e1976b43c94828fb05b21933fe18a8cfb1ff04709a63ac80261e63372dfac3ef80c275f572891f3f3115a20f35a130ce3804af271a47873d858fa3d686f468f2456b67ed4915adda3fc6bf01b32949ad2851a8b055375057a8b45537b200d2c93989c5c5b6ea4989c5a9ea763625c505897920154626c6ea0a29950ab6ea8666ea766aca150606068e06d6988cf87804131b0b99198fa9dd461f6c25c9361bb921392101ceac4157668ee496042cee8b21dd2518765858c7d76091259a457a18c4c082d2c819215883ec0a5436e936d4c0630b39a469c780bb501f9446ed00b32949ad2851a8b055375057a8b455373233515748ce492c2eb6554f4a2c4e55b7b329292e48cc03a9303236565748a954b055373453b75353ae3030307034b04663183992c0c0d44e53868d3ed833c4fa098bc3dd7033707b8ea4202135fc88f31331ce44b8d78d9400a0811a52fde4466920921097e4aa2135edb991c2181a7ea2561941d3b8a4653ce1cb6a642926520ddc4ffaa0d2de0e00b32949ad2851a8b055375057a8b45537b200d2c93989c5c5b6ea4989c5a9ea763625c5058979201546c6c6ea0a29950ab6ea8666ea76f110a0a65c616060e068608d850f67dbe8830dc163165c29927e383301c23272b326a00e891d43d04e4ca3d0ad01b270ca61d5472d11826e8f81f9d4c8992803e3a92747c86d08bdf0148069349d197037eb8352bb1d00b32949ad2851a8b055375057a8b45537b200d2c93989c5c5b6ea4989c5a9ea763625c505897920154646c6ea0a29950ab6ea8666ea766aca150606068e06d61086b1236e860b090cb881543719ab5d36fa60ef51c197980e2789418cc9c4041b5635a4fa925c7b28d135287d89259ea8e403a2d204157c495e8411952fe9e24b7d50f9640700a2646970667358221220505ca36b8b13554b6e882b7baf5a52cf6f54b2df9bc936386f83e595703af34a64736f6c63430008090033",
  "devdoc": {
    "kind": "dev",
    "methods": {},
    "version": 1
  },
  "userdoc": {
    "kind": "user",
    "methods": {},
    "version": 1
  },
  "storageLayout": {
    "storage": [],
    "types": null
  }
}